:100000000C946A000C9492000C9492000C94920050
:100010000C9492000C9492000C9492000C94920018
:100020000C9492000C9492000C9492000C94920008
:100030000C9492000C9492000C9492000C949200F8
:100040000C94C61F0C9492000C9436200C94102033
:100050000C9492000C9492000C9492000C949200D8
:100060000C9468200C9492000000000023002600ED
:1000700029007C3C3E5E2B3D3F2F5B5D3B2C2A22C2
:100080005C0000000000240027002A00000000009F
:10009000250028002B0004040404040404040202C4
:1000A00002020202030303030303010204081020F7
:1000B0004080010204081020010204081020000002
:1000C0000008000201000003040700000000000017
:1000D0000000872111241FBECFEFD8E0DEBFCDBFC7
:1000E00012E0A0E0B1E0ECE2FFE402C005900D9266
:1000F000AC32B107D9F727E0ACE2B2E001C01D9203
:10010000A133B207E1F710E0CAE6D0E004C02197BE
:10011000FE010E944E23C936D107C9F70E94AE22C4
:100120000C9494270C940000662329F06A3019F08F
:10013000862F90E008958FEF9FEF0895AF92BF92C2
:10014000CF92DF92EF92FF920F93CF93DF93EC0168
:10015000DA017901942F9770E1E0F0E09F01092E18
:1001600001C0220F0A94EAF7522F6E018AE8C80EE6
:10017000D11CF601808140E0823018F4422F81309A
:1001800049F15D01F8EFAF22E8ADF9AD2881398181
:10019000D90150968C918A9D90018B9D300D112430
:1001A000620F731FDF01A60FB71F01111AC0EA0EFD
:1001B000FB1E8C91842B85278D93AE15BF05C9F747
:1001C000DF91CF910F91FF90EF90DF90CF90BF9094
:1001D000AF90089550E0D5CF440F550FE114F104CE
:1001E00079F33C91342B35273C939F5F9770E1E086
:1001F000EE1AF1089111F0CF2CAD3DADA20FB31F57
:10020000F6018081823028F4813009F051E041E02C
:10021000E5CF51E0E3CF80E0089590E080E00895DD
:100220009B01DC011896ED91FC9141E067E1099496
:10023000833081F028F4813099F08230A9F008955C
:100240008730A9F08830C9F08430B1F48091800003
:100250008F7D03C0809180008F7780938000089508
:1002600084B58F7784BD089584B58F7DFBCF809151
:10027000B0008F778093B00008958091B0008F7D9B
:10028000F9CF1F93CF93DF93282F30E0F901E25489
:10029000FF4F8491F901E655FF4FD491F901EA56D9
:1002A000FF4FC491CC23A9F0162F81110E94180191
:1002B000EC2FF0E0EE0FFF1FE457FF4FA591B49134
:1002C0008FB7F894EC91111108C0D095DE23DC9320
:1002D0008FBFDF91CF911F910895DE2BF8CFCF9381
:1002E000DF9390E0FC01E655FF4F24918A569F4F23
:1002F000FC0184918823D1F090E0880F991FFC01C4
:10030000EE57FF4FA591B491FC01E457FF4FC59103
:10031000D491623071F49FB7F8943C91822F80950C
:1003200083238C93E8812E2B28839FBFDF91CF916D
:1003300008958FB7F894EC912E2B2C938FBFF6CFA6
:100340003FB7F8948091AB029091AC02A091AD02BE
:10035000B091AE0226B5A89B05C02F3F19F00196BB
:10036000A11DB11D3FBFBA2FA92F982F8827BC010F
:10037000CD01620F711D811D911D42E0660F771F37
:10038000881F991F4A95D1F708958F929F92AF9237
:10039000BF92CF92DF92EF92FF926B017C010E949D
:1003A000A0014B015C01C114D104E104F104B9F0D6
:1003B0000E94A001681979098A099B09683E734067
:1003C0008105910580F321E0C21AD108E108F10806
:1003D00088EE880E83E0981EA11CB11CE4CFFF902C
:1003E000EF90DF90CF90BF90AF909F908F90089547
:1003F0002FB7F8946091A7027091A8028091A9028A
:100400009091AA022FBF0895AF92BF92CF92DF9230
:10041000EF92FF920F931F93CF93DF936C017B01B9
:100420008B01040F151FEB015E01AE18BF08C0174A
:10043000D10759F06991D601ED91FC910190F081BD
:10044000E02DC6010995892B79F7C501DF91CF9180
:100450001F910F91FF90EF90DF90CF90BF90AF90E2
:100460000895FC01538D448D252F30E0842F90E0BA
:10047000821B930B541710F0CF960895019708959F
:10048000FC01918D828D981761F0A28DAE0FBF2F68
:10049000B11D5D968C91928D9F5F9F73928F90E0BE
:1004A00008958FEF9FEF0895FC01918D828D98172D
:1004B00031F0828DE80FF11D858D90E008958FEF6A
:1004C0009FEF0895FC01918D228D892F90E0805C33
:1004D0009F4F821B91098F739927089583E295E0BE
:1004E0000E94620221E0892B09F420E0822F089506
:1004F00080E090E0892B29F00E946E0281110C941B
:1005000000000895FC01A48DA80FB92FB11DA35AB6
:10051000BF4F2C91848D90E001968F739927848F23
:10052000A689B7892C93A089B1898C918370806446
:100530008C93938D848D981306C00288F389E02DE7
:1005400080818F7D80830895EF92FF920F931F9398
:10055000CF93DF93EC0181E0888F9B8D8C8D981376
:100560001AC0E889F989808185FF15C09FB7F89482
:10057000EE89FF896083E889F989808183708064CE
:1005800080839FBF81E090E0DF91CF911F910F9119
:10059000FF90EF900895F62E0B8D10E00F5F1F4F28
:1005A0000F731127E02E8C8D8E110CC00FB607FC37
:1005B000FACFE889F989808185FFF5CFCE010E94C5
:1005C0008202F1CFEB8DEC0FFD2FF11DE35AFF4FAF
:1005D000F0829FB7F8940B8FEA89FB898081806253
:1005E000CFCFCF93DF93EC01888D8823B9F0AA8910
:1005F000BB89E889F9898C9185FD03C0808186FDDE
:100600000DC00FB607FCF7CF8C9185FFF2CF80812C
:1006100085FFEDCFCE010E948202E9CFDF91CF911D
:100620000895FC01DB0112968D919C9113979383A1
:1006300082838DEA91E09183808314968C91149744
:10064000848315968C911597858316964D915D91AF
:100650006D917C91199746835783608771871A96AD
:100660004D915D916D917C911D9742875387648771
:1006700075871E964D915D916D917C91519746873E
:100680005787608B718B52968C915297828B5396C1
:100690004D915D916D917C915697438B548B658BF9
:1006A000768B57964D915D916D917C915A97478BC2
:1006B000508F618F728F5B968D919C91948F838FF9
:1006C0000895DC015996ED91FC913097B9F083893A
:1006D0009489A589B6894285538564857585841B6F
:1006E000950BA60BB70B811520E89207A105B10564
:1006F00038F08FEF9FE7A0E0B0E0089590E080E051
:100700000895DC0159968D919C91009739F0DC0198
:10071000ED91FC910480F581E02D099490E080E05A
:100720000895CF93DF931F92CDB7DEB76983DC01C5
:10073000ED91FC910280F381E02D41E050E0BE019B
:100740006F5F7F4F09950F90DF91CF9108952091B2
:100750007B02260F3327331F21323105ECF4209121
:10076000F904FC0190E080E0243069F082E0089513
:10077000A0917B022191AC01475A5D4FA40FB52F88
:10078000B11D2C930196861798F380917B02680F18
:1007900060937B0280E0089581E008951092F9044F
:1007A00081E08093F8041092D30461E082E10E941A
:1007B000410161E083E10E944101E9EBF0E08081C9
:1007C0008E7F808380818D7F808388E48093B800D2
:1007D00085E48093BC000895CF93DF9391E09093DC
:1007E00058028823B9F0C091B800D091BA00809126
:1007F000BC008A7B8093BC0060E082E10E944101E2
:1008000060E083E10E9441010E94CE03D093BA00D0
:10081000C093B800DF91CF910895CF92DF92EF920D
:10082000FF920F931F93CF93DF93D091220581E026
:10083000D13208F09CC0C09121050E94A0016B013B
:100840007C018091F90481116CC082E08093F904ED
:1008500081E08093F8048FEF8093F7041092F60400
:10086000D093F504A1E0B5E0E5EDF4E080E0D81325
:100870008DC01092D4048091D404CC0FC82BC093A7
:10088000D4048091D304813009F084C01092D30441
:100890000E94A0016B017C018091D4048093BB0075
:1008A0008091FB049091FC04A091FD04B091FE04A2
:1008B000892B8A2B8B2BA1F00E94A0010091FB04B5
:1008C0001091FC042091FD043091FE046C197D0907
:1008D0008E099F09061717072807390708F442C031
:1008E0008091BC0083FDD8CF85EC8093BC000E9432
:1008F000A0016B017C018091F904823009F44CC0A5
:100900008091F7048F3F09F469C08091F704803229
:1009100009F466C08091F704803309F463C084E071
:1009200026C08091FB049091FC04A091FD04B0913D
:10093000FE04892B8A2B8B2B09F483CF0E94A00104
:100940000091FB041091FC042091FD043091FE0401
:100950006C197D098E099F090617170728073907A3
:1009600008F06FCF8091FA040E94EC0385E01092AA
:100970000005109222051092FF04DF91CF911F9184
:100980000F91FF90EF90DF90CF9008959D919193FC
:100990008F5F6DCF85EEA9CF8091FB049091FC0411
:1009A000A091FD04B091FE04892B8A2B8B2B09F4B6
:1009B000A2CF0E94A0010091FB041091FC042091A1
:1009C000FD043091FE046C197D098E099F090617FC
:1009D00017072807390708F08ECFC4CF80E0C7CFAC
:1009E00082E0C5CF83E0C3CF089508950895E091D4
:1009F000B2048091B104E81730F4F0E0ED54FB4FFD
:100A0000808190E008958FEF9FEF08959091B20458
:100A10008091B1042FEF3FEF981748F4E92FF0E0F1
:100A2000ED54FB4F208130E09F5F9093B204C901E9
:100A300008958091B1049091B204891B990B089597
:100A4000CF92DF92EF92FF920F931F93CF93DF939A
:100A50007C01CB018A012091FF04222389F0EB0164
:100A60006B01C40ED51ECC15DD0569F06991D70167
:100A7000ED91FC910190F081E02DC7010995F3CF34
:100A8000642F0E94A703C801DF91CF911F910F919E
:100A9000FF90EF90DF90CF900895CF93DF931F9258
:100AA000CDB7DEB769832091FF042223F9F02091AE
:100AB0002205203258F021E030E0FC01338322830C
:100AC00090E080E00F90DF91CF9108958091000534
:100AD000E82FF0E0EF5FFA4F998190838F5F80936A
:100AE00000058093220581E090E0ECCF61E0CE012B
:100AF00001960E94A703F7CFDC011A96ED91FC91B5
:100B000030E020E00994DC011696ED91FC9130E094
:100B100020E040E069E10994DC011696ED91FC913A
:100B200030E020E040E068E109949A01DC0116968B
:100B3000ED91FC91462F67E10994EF92FF920F939C
:100B40001F93CF93DF931F92CDB7DEB77C018B014C
:100B5000D8016C91673129F150F46531A0F40F9000
:100B6000DF91CF911F910F91FF90EF9008956A311F
:100B700018F16E3FA1F7F8014181498369E2C7018D
:100B80000E947C050BC0F80141814983D70116966C
:100B9000ED91FC9130E020E0C70109950E5F1F4FF9
:100BA000D7CFF80181818983AE014F5F5F4F61E04C
:100BB000C7010E949505F2CF0F5F1F4FD701169610
:100BC000ED91FC9130E020E040E0C7010995C0CFF5
:100BD000462FDC011696ED91FC9130E020E066E1B5
:100BE0000994462FDC011696ED91FC9130E020E04F
:100BF00065E10994EF92FF920F931F93CF93DF93D8
:100C0000EC01042F79016D3009F446C050F46B30CB
:100C1000C9F1693009F49FC06A3009F465C080E009
:100C200046C06E3009F452C06F3099F70E948C05AF
:100C3000F7011381110F110F110F6C89160F60E46A
:100C4000CE010E94F105612F62956F706061CE0147
:100C50000E94F105612F6F70CE010E94E805F70137
:100C60006481606BCE010E94E805F70140815181EB
:100C70006281660F660F660FCE010E9495050150D6
:100C8000A1F72EC063E371E0442311F06EE271E03E
:100C9000CE010E949D050AC0411110C067E271E0BB
:100CA0000E949D05E881F98182898C8B81E0DF912A
:100CB000CF911F910F91FF90EF90089560E271E046
:100CC0000E949D05E881F9818389EFCF0E948C0500
:100CD00061E8CE010E94F105602FCE010E94E80577
:100CE000CE010E948305E2CFEA85FB8530E020E05B
:100CF00040E068E2CE010995EE81FF8130E020E01E
:100D000040E064E1CE01099541E06BE4CE010E9430
:100D10007C05E881F981448169E2CE010E947C056D
:100D200040E06BE4CE010E947C05E881F9814481BA
:100D300069E2CE010E947C0541E06BE4CE010E9495
:100D40007C05E881F981458169E2CE010E947C053C
:100D500068E371E09DCF8DE691E0998388831C8ADA
:100D6000A5CFDC011896ED91FC9130E020E040E049
:100D700069E10994DC011896ED91FC9130E020E0E6
:100D800040E068E10994CF93DF931F92CDB7DEB7BF
:100D90006983BE016F5F7F4F0E9410010F90DF914A
:100DA000CF910895EF92FF921F93CF93DF93EC01C1
:100DB000162F7A010E94BA0660E4CE010E94C30693
:100DC000E885F9859701412F67E1CE010995CE01AC
:100DD000DF91CF911F91FF90EF900C94B106EF92AD
:100DE000FF921F93CF93DF93EC01142F79016631AB
:100DF00081F138F4643109F44BC0653179F080E059
:100E000022C06831C9F150F16931C9F780915702A8
:100E1000882391F1CE010E94B1062EC08091570225
:100E2000882319F0CE010E94B106CE010E94BA06B5
:100E300060E0CE010E94C306612FCE010E94C3066E
:100E400081E080935702DF91CF911F91FF90EF9047
:100E50000895642F0E94C30681E0F5CF8091570268
:100E6000882319F0CE010E94B106A701193138F488
:100E7000612FCE010E94D20610925702EDCF68E199
:100E8000CE010E94D206185188E1E80EF11CEDCF88
:100E90008E898F3F11F488E78E8BE885F98597015D
:100EA000412F64E1CE01DF91CF911F91FF90EF9030
:100EB00009940F93FC01E05CFF4F0190F081E02D5D
:100EC0004E1B5F0BDC01D496ED91FC9109950F91BF
:100ED0000895CF93DF93FC01A081B18182AD90E0B2
:100EE0009C0143E0220F331F4A95E1F737AF26AF4D
:100EF00050962C91509748E0249F9001112435AFD3
:100F000024AF23AD30E0B90153E0660F771F5A9547
:100F1000E1F7EF01C05CDF4F7983688351964C9114
:100F20005197E901C80FD91F50E04C175D0718F41D
:100F3000CA01821B930BEF01CE5BDF4F798368837D
:100F4000229623E0880F991F2A95E1F7860F971FB5
:100F500099838883229654968D919C915597998375
:100F60008883E85BFF4F56968D919C919183808397
:100F7000DF91CF9108950F931F93FC01E25BFF4F28
:100F80000190F081E02DDC01A05BBF4F0D90BC9182
:100F9000A02D4A175B0740F4E017F10748F004174B
:100FA000150730F080E019C0E017F107C0F3FACF61
:100FB000FC01E65BFF4F40815181845B9F4FFC0148
:100FC000808191816817790758F481E042175307AF
:100FD00020F081E02617370728F71F910F91089519
:100FE00042175307B0F3DECF2F923F924F925F929A
:100FF0006F927F928F929F92AF92BF92CF92DF9229
:10100000EF92FF920F931F93CF93DF93CDB7DEB78D
:101010002A970FB6F894DEBF0FBECDBF9A87898797
:10102000865B9F4F9A838983FC0111821082E98538
:10103000FA85EA5BFF4F4080518029853A85245B21
:101040003F4F3C832B83F90151824082E985FA8529
:10105000EE5BFF4F2080318029853A85225B3F4F30
:101060003E832D83F90131822082E985FA85EC5B8C
:10107000FF4F6080718029853A85205B3F4F38871C
:101080002F83F90171826082E985FA85E85AFF4F62
:10109000E080F180E985FA85EC5AFF4FA080B180AD
:1010A000E985FA85EA5AFF4FC080D180E985FA8543
:1010B000EE5AFF4F8080918087019501A601B4010F
:1010C00089859A850E94BB0729853A852C573F4F11
:1010D0003A87298781111BC0F90110822A960FB621
:1010E000F894DEBF0FBECDBFDF91CF911F910F915E
:1010F000FF90EF90DF90CF90BF90AF909F908F9038
:101100007F906F905F904F903F902F90089581E077
:10111000E985FA8580838114910421F0E981FA81BF
:1011200091828082A414B50420F4EB81FC81B18209
:10113000A0822C143D0420F4ED81FE81D182C08276
:10114000E614F70458F6EF81F885F182E082C6CF05
:101150000F93CF93DF93E02FDC01AC57BF4FFC918F
:10116000FF2309F460C02115310509F45CC0223069
:10117000310538F0023009F04AC06F5F7F4F621BC3
:10118000730B0E2F0170E0FD52C0FC01E25BFF4FBC
:101190000190F081E02D4E175F0708F444C0FC0178
:1011A000E05BFF4F0190F081E02D4E175F07D8F50F
:1011B000FC01E45BFF4F0190F081E02DDC01A65BB8
:1011C000BF4F0D90BC91A02D260F371F2617370754
:1011D00038F56E177F0718F59F0121503109A217C6
:1011E000B30708F56A177B0708F4BD012E173F0700
:1011F00008F4F901E61BF70BEC01AEA9BFA91496A0
:101200000D90BC91A02D9F01FD0109950CC00330EC
:1012100009F0B7CF4F5F5F4F421B530BB2CFBD01F9
:101220006E177F07E0F2DF91CF910F910895FC01D7
:10123000E65BFF4F0190F081E02D6E177F0798F37A
:10124000FC01E45BFF4F0190F081E02D6E177F07FA
:1012500050F7FC01E05BFF4F0190F081E02DDC01D5
:10126000A25BBF4F0D90BC91A02D240F351F2417FA
:101270003507A8F44E175F0788F49F012150310904
:10128000A217B30780F64A175B0708F4AD012E17C3
:101290003F0708F4F901E41BF50BAECFAD014E1783
:1012A0005F0708F6EDCF213069F038F0223079F091
:1012B000840F911D47FD9A950895860F911D67FD36
:1012C0009A950895841B910947FD93950895861B6F
:1012D000910967FD93950895213069F038F0223027
:1012E00079F0861B910967FD93950895840F911DF0
:1012F00047FD9A950895860F911D67FD9A9508956B
:10130000841B910947FD939508953F924F925F92F8
:101310006F927F928F929F92AF92BF92CF92DF9205
:10132000EF92FF920F931F93CF93DF937C01162FC1
:10133000442EEC01C25ADF4F5E806F806C018AE858
:10134000C80ED11C78847518312E711608F4372C0C
:101350008C809D800E85202F462D652D8A819B8156
:101360000E9453095C01202F462D652DC4010E9467
:101370006C09AC01442079F08C85F6018083232D23
:1013800030E0B501C7010E94A808171548F01719E9
:101390006394512CD7CF8B858111F7CF8D85EDCFFD
:1013A000150D1E836F82DF91CF911F910F91FF90DA
:1013B000EF90DF90CF90BF90AF909F908F907F90F5
:1013C0006F905F904F903F900895DC011A964C917A
:1013D0001A97ED91FC911197249130E0042E02C0F0
:1013E000359527950A94E2F7842F860F883068F0A8
:1013F00031961196FC93EE93E49198E0941B01C012
:10140000EE0F9A95EAF72E2B88501A968C938FEF51
:101410009FEF01C0880F6A95EAF7809582230895AF
:10142000FC01E60FF11D849190E0982F88273196FA
:10143000E4918E0F911D08958FB7F8948091560214
:101440008FBF089561E0FC0184810E944101809179
:10145000A00281111092A0020895CF93DF93EC01B6
:10146000962F683109F445C0B901993130F49431AF
:1014700099F0973159F080E006C0993109F45BC0CA
:101480009032C9F781E0DF91CF91089550E08BE071
:1014900096E00E942005F6CF8C859D85AE85BF85A0
:1014A000892B8A2B8B2B71F4E881F981A585B0E01B
:1014B00020EA36E841E050E00E9443236C877D87B4
:1014C0008E879F871092B2041092B104109200058B
:1014D000109222050E94CE0384EF94E090937A024A
:1014E0008093790285EF94E090937E0280937D0251
:1014F000C9CF2C853D854E855F8560E074E284EF21
:1015000090E00E942123205131094109510956954B
:101510004795379527952093B8008E8990E095954B
:10152000879591E09093FF04809321051092000528
:1015300010922205A7CF0E940D04A4CF0F931F93F2
:10154000CF93DF93EC01862F642F8C3208F03AC0E2
:101550008A3208F060C0883209F44BC0893209F43D
:1015600060C0803408F475C0982F9F73FE01E90FA6
:10157000F11D868D8F3F09F44EC0903108F436C0BE
:10158000282F30E0F901E254FF4F8491F901E6552C
:10159000FF4F0491F901EA56FF4F1491112379F09E
:1015A00081110E941801E12FF0E0EE0FFF1FE859B2
:1015B000FF4FA591B491EC910E2381E009F480E0F6
:1015C000898F29C08D3299F108F4CBCF94EB980F15
:1015D000923008F0C6CF8F73C80FD11D8E8D411188
:1015E00034C061E00E946F0160E08E8D0E94410175
:1015F00012C08E01025E1F4FD0E0F80181918F0171
:101600008F3F31F061E0D03108F062E00E946F015D
:10161000DF5FD63191F781E0DF91CF911F910F917C
:10162000089570E090E080E00E94C501F4CF85E06D
:1016300090E0433010F082E090E0880F991F880F0F
:10164000991F05970197F1F7E6CF62E00E946F01BD
:10165000E2CF80E0E1CF8EBD00000DB407FEFDCFEC
:101660008EB508958FEF0C942B0B0F931F93CF9390
:10167000DF93EC010E94F8018B010E94320B8F3F37
:1016800069F00E94F801601B710B6C177D07A8F3CD
:1016900080E0DF91CF911F910F91089581E0F9CF04
:1016A0008CBD9DBD0895CF93DF93EC018091A00286
:1016B000811109C081E08093A0028091C0059091C2
:1016C000C1050E94500B60E08C81DF91CF910C949A
:1016D00041018F929F92AF92BF92FF920F931F93FF
:1016E000CF93DF93EC01F62E49015A018E818823B6
:1016F00089F08F8198859C012F5F3F4F38872F831A
:101700008230924018F40E94320BF3CFCE010E9437
:10171000220A1E82CE010E94530B8CE291E00E94AD
:10172000350B8F2D80640E942B0B08E110E0D50152
:10173000C401002E04C0B695A795979587950A9485
:10174000D2F70E942B0B08501109083F8FEF1807A2
:1017500071F785E9FF2021F028E087E8F2128FEF8A
:101760000E942B0B10E00E94320B8A8787FF04C077
:101770001F3F11F01F5FF7CFDF91CF911F910F91A6
:10178000FF90BF90AF909F908F900895AF92BF92BF
:10179000CF92DF92EF92FF920F931F93CF93DF933D
:1017A000EC016901C801820F931F8130924050F50E
:1017B0008E81882379F088819981AA81BB818417E1
:1017C0009507A607B70731F48F819885C816D90603
:1017D00008F042C0488359836A837B838B858330BA
:1017E00039F089E0440F551F661F771F8A95D1F79E
:1017F0009A01AB0161E1CE010E94690B882389F057
:1018000083E08D83CE010E94220A80E0DF91CF9198
:101810001F910F91FF90EF90DF90CF90BF90AF900E
:1018200008950E94F8015B010E94320B8A878F3F66
:1018300069F40E94F8016A197B096D327140A0F3C6
:101840008FE08D83CE010E94220ADCCF8E3F89F487
:1018500018861F8281E08E838F8198858C159D0567
:1018600050F40E94320B8F819885019698878F8360
:10187000F3CF8DE0E6CF6701E00EF11E0E94320B40
:10188000F60181936F01EE15FF05C1F78F819885F1
:10189000080F191F18870F838985882319F00115F0
:1018A0001240A0F08E81882389F08F8198859C0159
:1018B0002F5F3F4F38872F838230924018F40E9469
:1018C000320BF3CFCE010E94220A1E8281E09ECF0E
:1018D000CF92DF92EF92FF920F93CF93DF93EC01C1
:1018E000690182E1411551056105710599F08B850A
:1018F000833039F089E0440F551F661F771F8A95A2
:10190000D1F79A01AB0168E1CE010E94690B8823EF
:1019100019F084E08D832DC08EEF0E942B0B760191
:101920008EEFD81AF70181917F010E942B0BEC14E6
:10193000FD04C1F78FEF0E942B0B8FEF0E942B0B42
:101940000E94320B8A878F71853071F4011116C0A5
:10195000CE010E94220A81E0DF91CF910F91FF908A
:10196000EF90DF90CF90089581E18D83CE010E94AA
:10197000220ACE010E94220A80E0EECF88E592E0A2
:101980000E94350B811102C085E1C4CF20E030E018
:10199000A9016DE0CE010E94690B882311F084E15A
:1019A000B9CF0E94320B8111FACFD2CF0F93409161
:1019B000A2025091A3026091A4027091A502411568
:1019C00051056105710599F0082F2FEA32E08091E9
:1019D000AF049091B0040E94680C882349F01092E3
:1019E000A2021092A3021092A4021092A50281E01A
:1019F0000F9108950F93CF93C82F8091A102811169
:101A000005C0C1E08C2FCF910F9108954091140132
:101A10005091150160911601709117010C2F2FEA5A
:101A200032E08091AF049091B0040E94680C811163
:101A300002C0C0E0E7CFCC2321F381E00E94D60CA6
:101A40008823B9F31092A102DDCF8F929F92AF92BB
:101A5000BF92EF92FF920F931F93CF934B015C01C4
:101A6000C42F8091140190911501A0911601B0919D
:101A7000170188159905AA05BB0551F181E00E945F
:101A8000FA0C81110BC080E0CF911F910F91FF9054
:101A9000EF90BF90AF909F908F9008958FEAE82EBF
:101AA00082E0F82E00E012E030E020E0B501A40171
:101AB0008091AF049091B0040E94C60B882319F363
:101AC0008092140190921501A0921601B092170114
:101AD0004091A1024C2B4093A10281E0D5CF8F927F
:101AE0009F92AF92BF92CF92DF92EF92FF92CF93ED
:101AF00022EC35E03093B0042093AF04882309F43E
:101B00006DC040E060E070E0CB010E94250D8111C6
:101B10000BC080E0CF91FF90EF90DF90CF90BF900F
:101B2000AF909F908F90089580916D048F7789F783
:101B30008091790490917A04A0917B04B0917C0407
:101B400084369105A105B10520F3C0907504D090AD
:101B50007604E0907704F0907804C114D104E10495
:101B6000F104B9F240E0C701B6010E94250D8823B7
:101B700081F28091BA029091BB028115924049F6A0
:101B8000A091BF02AA2329F26091BD027091BE020A
:101B90006115710509F4BDCF2091BC02222309F41F
:101BA000B8CFA093E0052093D20590E080E030E02C
:101BB000E1E0F0E0C82FAF01082E02C0440F551F2E
:101BC0000A94E2F72417350769F041E0480F0196BF
:101BD0008930910579F74093DB059BCFC12CD12C3F
:101BE0007601C0CF8093DB052091C5023091C602FB
:101BF00050E040E02115310541F42091D3023091AD
:101C0000D4024091D5025091D6022093D30530934F
:101C1000D4054093D5055093D60546015701860E4D
:101C2000971EA11CB11C8092E1059092E205A09242
:101C3000E305B092E405E091C002F091C102F09397
:101C4000E705E093E605B0E00E944323DC01CB0109
:101C5000880D991DAA1DBB1D8093E8059093E90589
:101C6000A093EA05B093EB0525E0EE0FFF1F2A9540
:101C7000E1F7E150FE4FEF2FFF27E6958E0F9F1FF4
:101C8000A11DB11D8093DC059093DD05A093DE05B9
:101C9000B093DF058090C2029090C302B12CA12CBA
:101CA0008114910441F48090CF029090D002A090D2
:101CB000D102B090D202C81AD90AEA0AFB0AC80CAB
:101CC000D91CEA1CFB1C04C0F694E794D794C79473
:101CD000CA95D2F7C092D705D092D805E092D9051F
:101CE000F092DA0585EFC8168FE0D806E104F1041A
:101CF00028F48CE08093E50581E00CCF80E125EFAE
:101D0000C2162FEFD206E104F104A0F38091DB02AA
:101D10009091DC02A091DD02B091DE028093E80593
:101D20009093E905A093EA05B093EB0580E2E2CF3A
:101D30004F925F926F927F928F929F92AF92BF92DB
:101D4000CF92DF92EF92FF920F931F93CF93DF9387
:101D5000EC01423051056105710590F480E0DF919E
:101D6000CF911F910F91FF90EF90DF90CF90BF9098
:101D7000AF909F908F907F906F905F904F9008955D
:101D800089859A85AB85BC850196A11DB11D8417F7
:101D90009507A607B70710F3CB88DC88ED88FE8887
:101DA0008F89803109F042C0BB27A72F962F852F3E
:101DB000480159012A013B01C80ED91EEA1EFB1E2B
:101DC0008091140190911501A0911601B091170115
:101DD000C816D906EA06FB0699F58F898031C1F548
:101DE000B301A201552766277727440F551F415598
:101DF0005D4FFA01918280828091A102816080937F
:101E0000A1028A89823080F08D819E81AF81B88560
:101E10008C0D9D1DAE1DBF1D8093A2029093A30249
:101E2000A093A402B093A50281E099CFDB01CA017F
:101E3000E7E0B695A79597958795EA95D1F7B8CF3E
:101E400040E0C701B6010E94250D8111C6CF86CFA3
:101E5000B301A2014F77552766277727440F551FF7
:101E6000440F551F41555D4FFA0180829182A28235
:101E7000B382C2CF8F929F92AF92BF92CF92DF92E6
:101E8000EF92FF920F931F93CF93DF93FC01818515
:101E90009285A385B4850196A11DB11D8417950770
:101EA000A607B70770F480E0DF91CF911F910F91E3
:101EB000FF90EF90DF90CF90BF90AF909F908F906A
:101EC000089583889488A588B6888789803189F5A4
:101ED000BB27A72F962F852FE9016A017B018F0170
:101EE000BC01CD01680D791D8A1D9B1D80901401D8
:101EF00090901501A0901601B090170186169706D4
:101F0000A806B90601F5F8018789803111F5DD24AD
:101F1000EE24FF24F601EE0FFF1FE155FD4F8081F7
:101F20009181B0E0A0E088839983AA83BB8381E09C
:101F3000BBCFDB01CA01C7E0B695A79597958795FA
:101F4000CA95D1F7C9CF40E00E94250D8111DBCFA2
:101F5000AACFE894C7F8DD24EE24FF24F601EE0FA3
:101F6000FF1FEE0FFF1FE155FD4F80819181A28180
:101F7000B381BF70D8CF4F925F926F927F92AF9232
:101F8000BF92CF92DF92EF92FF920F931F93CF9366
:101F9000DF9300D000D0CDB7DEB78C0149835A83E0
:101FA0006B837C835901C12CD12C7601412C82E0BA
:101FB000582E612C712C49815A816B817C819E0144
:101FC0002F5F3F4FC8010E943A0F882339F1F80173
:101FD0008585A301920104C0220F331F441F551FA2
:101FE0008A95D2F7DA01C901C80ED91EEA1EFB1E76
:101FF00049815A816B817C818789803111F188EF19
:102000009FEFAFEFBFE0481759076A077B0798F2C9
:10201000F501C082D182E282F38281E00F900F90BD
:102020000F900F90DF91CF911F910F91FF90EF9044
:10203000DF90CF90BF90AF907F906F905F904F9068
:10204000089588EF9FEFA0E0B0E0DDCF0F931F93DE
:10205000CF93DF93FC012581222331F080E0DF91D3
:10206000CF911F910F9108958B01EC01FB0187899E
:10207000803139F582E08D831F8A188E198E1A8E71
:10208000808D918DB0E0A0E025E0880F991FAA1FF8
:10209000BB1F2A95D1F78B8B9C8BAD8BBE8B1C8F76
:1020A0000B8F81E08C831E821F82188619861A8608
:1020B0001B861C861D861E861F86188A198A1A8A08
:1020C000CECF803259F683E08D83428D538D648D5F
:1020D000758D4F8B588F698F7A8F9E012D5E3F4F84
:1020E000C8010E94BB0F8111DACFB8CF8F929F92A7
:1020F000AF92BF92CF92DF92EF92FF920F931F9316
:10210000CF93DF93EC018D8181110EC080E0DF91D0
:10211000CF911F910F91FF90EF90DF90CF90BF90E4
:10212000AF909F908F9008950B891C892D893E89CF
:10213000041715072607370748F34A015B01823069
:1021400031F48A869B86AC86BD8681E0E0CF81141F
:102150009104A104B10449F41E821F8218861986D5
:102160001A861B861C861D86F0CF0A851B852C854A
:102170003D85EB8DFC8D858590E00996B901A80120
:102180004150510961097109082E04C0769567957F
:10219000579547950A94D2F775016401E1E0CE1A8C
:1021A000D108E108F10804C0F694E794D794C794E5
:1021B0008A95D2F7C416D506E606F70620F0012B5D
:1021C000022B032B11F58F89988DA98DBA8D8E83E3
:1021D0009F83A887B9878E010A5F1F4FC114D1045E
:1021E000E104F10409F4ADCF4E815F816885798502
:1021F00098018B8D9C8D0E943A0F91E0C91AD108ED
:10220000E108F1088111EACF81CFC41AD50AE60AA4
:10221000F70AE1CF3F924F925F926F927F928F9237
:102220009F92AF92BF92CF92DF92EF92FF920F9365
:102230001F93CF93DF93CDB7DEB72C970FB6F894EB
:10224000DEBF0FBECDBF5C01DC015B968D909C9024
:102250005C9716964D905D906D907C901997411407
:1022600051046104710409F468C0BFEF4B1A5B0AA2
:102270006B0A7B0A312CF40181859285A385B48594
:102280009C01AD012F5F3F4F4F4F5F4F29873A872A
:102290004B875C87730162011D821E821F82188634
:1022A000F40181859285A385B4852D813E814F817E
:1022B0005885281739074A075B0708F056C08985F3
:1022C0009A85AB85BC858C159D05AE05BF0550F480
:1022D00082E0C82ED12CE12CF12C92E0492E512C19
:1022E000612C712C9E012F5F3F4FB701A601C401E5
:1022F0000E943A0F8823C9F189819A81AB81BC8100
:10230000892B8A2B8B2B09F1260137019FEF491A64
:10231000590A690A790A2D813E814F8158852F5FBC
:102320003F4F4F4F5F4F2D833E834F8358873FEF83
:10233000C31AD30AE30AF30AB3CFF40140805180F1
:10234000628073803324339496CFC414D504E6049A
:10235000F70409F70FEF1FEF2FEF3FE0B701A601DA
:10236000C4010E94980E811119C080E02C960FB60E
:10237000F894DEBF0FBECDBFDF91CF911F910F91BB
:10238000FF90EF90DF90CF90BF90AF909F908F9095
:102390007F906F905F904F903F900895D501169673
:1023A0004D915D916D917C91199741155105610594
:1023B000710539F097018601C4010E94980E8823A7
:1023C000A1F2D5011696CD92DD92ED92FC9219976D
:1023D000332051F0D701C6010196A11DB11DF401B2
:1023E00080839183A283B383F5018789908DA18D2A
:1023F000B28D892B8A2B8B2B39F48481C78AD08E9E
:10240000E18EF28E80688483F5018481806284830A
:1024100081E0ACCF2F923F924F925F926F927F926A
:102420008F929F92AF92BF92CF92DF92EF92FF92E4
:102430000F931F93CF93DF9300D01F92CDB7DEB7DA
:10244000FC018581811118C08FEF9FEF0F900F90D5
:102450000F90DF91CF911F910F91FF90EF90DF9040
:10246000CF90BF90AF909F908F907F906F905F9034
:102470004F903F902F900895848180FFE5CF43894E
:1024800054896589768982859385A485B585312CA3
:10249000212C481759076A077B0719F02224239437
:1024A000312C6F012101CE0101963C01DF0116960E
:1024B000BB83AA834114510409F4C5C0F6014285C7
:1024C0005385648575854A01F1E09F22D6015B96AC
:1024D0008D919C915C978A019B01E9E03695279547
:1024E00017950795EA95D1F71596EC91E230E9F545
:1024F000FC01628D738D848D958D600F711F821F1D
:10250000931FA12C22E0B22EA818B9084A145B042C
:1025100008F45201F601248126FD04C0A114F2E062
:10252000BF0671F40091140110911501209116015C
:1025300030911701061717072807390709F05EC001
:1025400040E00E94250D882309F47ECFC401815507
:102550009D4FD3019C012A0D3B1DFC012E173F0707
:1025600009F46CC041914D93F9CFDC011496BC90F5
:10257000BA94B0228114910479F4B1100DC0452BA6
:10258000462B472B69F5F6018789908DA18DB28D79
:1025900086839783A087B187D6015B96ED91FC91E6
:1025A0005C9716966D917D918D919C9119976250D3
:1025B000710981099109258504C0660F771F881F5D
:1025C000991F2A95D2F70685178520893189600FD2
:1025D000711F821F931F6B0D711D811D911D91CF66
:1025E000D60116964D915D916D917C9119972A8136
:1025F0003B810E943A0F8111CFCF26CF7301850115
:102600009401AB01BC018091AF049091B0040E9491
:10261000C60B882309F418CF6A0C7B1CF60182854F
:102620009385A485B5858A0D9B1DA11DB11D82874B
:102630009387A487B5874A185B083CCF281B390BC2
:10264000620E731EEBCF2A94232809F0FDCE8981F8
:1026500090E0FCCEFC01818D928D009711F00C94DE
:102660000A128FEF9FEF08950F931F93CF93DF937D
:10267000EC01898D9A8D10E000E0009799F00E949E
:102680000A128C010F3F100769F0898D9A8DFC01A9
:1026900042855385648575854150510961097109E9
:1026A0000E947610C801DF91CF911F910F9108957C
:1026B0001F93CF93DF93FC0125812223D1F1162FA5
:1026C000EC01848187FF2AC066857785808991899E
:1026D00041E00E94250D882361F1EA8980E2E89FAC
:1026E000F0011124E155FD4F309719F18D818230B1
:1026F00040F48B899C89AD89BE89848F958FA68F84
:10270000B78F8F89988D938F828F8F89988DA98DA0
:10271000BA8DB58BA48B8C818F778C83111103C0FC
:102720008C818F7E8C83812FDF91CF911F910C94B0
:10273000FA0C80E0DF91CF911F910895FF920F93E3
:102740001F93CF93DF93EC018D81813041F090E0B6
:1027500080E0DF91CF911F910F91FF9008958C81C0
:1027600081FFF5CF82FD1BC00091AF041091B00432
:10277000C8010E94530B0E94320BF82EC8010E9420
:10278000220A8FEFF812E3CF8C8185FF1BC060E037
:10279000CE010E9458138C818F7D8C83D8CF4B89BA
:1027A0005C896D897E898A859B85AC85BD8584170A
:1027B0009507A607B707C1F2CE010E9476108111D6
:1027C000D3CFC5CF4091A2025091A3026091A40241
:1027D0007091A502452B462B472B21F080E00E94EB
:1027E000D60CB5CF80618C832A853B85317080E023
:1027F00092E0821B930BADCFCF93DF93EC0161E0AE
:102800000E945813882311F01D8281E0DF91CF913F
:102810000895FC01818D928D009719F061E00C9470
:10282000581308952F923F924F925F926F927F922A
:102830008F929F92AF92BF92CF92DF92EF92FF92D0
:102840000F931F93CF93DF9300D000D01F92CDB78B
:10285000DEB77C015B01342E5D83DC0115968C9123
:102860001597813009F0CEC014962C9021FECAC075
:1028700022FCB4C0C32CDD8022947FE02722209468
:10288000B22DB1702B2ED7011A964D915D916D919D
:102890007C911D97C114D10409F428C15B968D91D8
:1028A0009C915C97FC0174807A948A019B0169E099
:1028B00036952795179507956A95D1F770228A0165
:1028C0001170711020C001151105E9F416964D9193
:1028D0005D916D917C9119974115510561057105C7
:1028E00009F099C057968D919D910D90BC91A02DA6
:1028F0000097A105B10509F0B0C0C7010E940A11F7
:10290000882309F47FC080E092E0801B910B460190
:102910008C159D0508F44C01D7015B964D915C9197
:102920005C9716968D919D910D90BC91A02D02976C
:10293000A109B109FA01258504C0880F991FAA1FB2
:10294000BB1F2A95D2F74685578560897189840F08
:10295000951FA61FB71F9C01AD01270D311D411DFD
:10296000511D29013A01811432E0930609F07BC020
:102970008091140190911501A0911601B091170159
:1029800084159505A605B70559F48FEF9FEFDC0177
:102990008093140190931501A0931601B093170131
:1029A000022D9501B301A2018091AF049091B00472
:1029B0000E94680C882331F19EEFB91AC818D90813
:1029C000F70182859385A485B585880D991DA11D84
:1029D000B11D82879387A487B58755CFF7014389B7
:1029E00054896589768982859385A485B58548173C
:1029F00059076A077B0709F43DCFC7010E9476108B
:102A0000811138CF81E090E0D70113969C938E938B
:102A1000129780E007C09E012F5F3F4F0E943A0F40
:102A2000811102C090E079C089819A81AB81BC811B
:102A3000F701238D348DF901278948EF5FEF60E0BE
:102A400070E0203121F048EF5FEF6FEF7FE08417F7
:102A50009507A607B70708F050CFF701868397833D
:102A6000A087B18750CF0115110599F5D7011A96A6
:102A70004D915D916D917C911D9753968D919D9196
:102A80000D90BC91A02D481759076A077B0708F1E4
:102A900081E00E94FA0C882309F4B4CF409214011B
:102AA0005092150160921601709217018091A10257
:102AB00081608093A102C80181559D4FD5019C0181
:102AC000280D391DFC012E173F0759F04D914193F8
:102AD000FACF41E0C301B2010E94250D8111EBCF75
:102AE00091CF281B390BA20EB31E68CFF701838943
:102AF0009489A589B68984179507A607B70738F47E
:102B00008481438B548B658B768B80688483F7013B
:102B1000848183FD1AC0832D9D810F900F900F90AB
:102B20000F900F90DF91CF911F910F91FF90EF9039
:102B3000DF90CF90BF90AF909F908F907F906F90DD
:102B40005F904F903F902F90089561E0C7010E94E1
:102B50005813882309F456CFDECFCF93DF931F920B
:102B6000CDB7DEB7698341E050E0BE016F5F7F4FB4
:102B70000E9412140F90DF91CF910895CF93DF93AD
:102B8000EC01E98DFA8D309749F481E090E09B8368
:102B90008A8390E080E0DF91CF91089513821282C2
:102BA000898D9A8D0E941214E98DFA8D22813381CC
:102BB000232B59F7F0CFCF92DF92EF92FF920F9332
:102BC0001F93CF93DF936C01EB017B01E40EF51EA5
:102BD00010E000E0CE15DF0561F06991D601ED91BE
:102BE000FC910190F081E02DC6010995080F191F95
:102BF000F1CFC801DF91CF911F910F91FF90EF901E
:102C0000DF90CF9008952F923F924F925F926F92F4
:102C10007F928F929F92AF92BF92CF92DF92EF926C
:102C2000FF920F931F93CF93DF93CDB7DEB7289713
:102C30000FB6F894DEBF0FBECDBF7C016C0124E05F
:102C4000C20ED11CFC01E057FF4F0190F081E02D36
:102C5000C60109958C018E3F9F4F08F061C0370176
:102C600084E9680E711CF3010190F081E02DFD8371
:102C7000EC835701F2E9AF0EB11CF5018080918021
:102C8000970120593F4F3B832A83F901808181308E
:102C900009F470C008F45FC0823009F476C0833054
:102CA00009F482C0F701EC59FF4F9182808232967D
:102CB0002C813D8131832083389780819181479693
:102CC0009D838C830F3F110511F008F020C1B6964B
:102CD0000136110530F40134110558F0F701EE57B3
:102CE000FF4F808191812C813D81280F391F3D83C9
:102CF0002C838C819D810196FC01249121115FC060
:102D000090E080E0EA81FB812081213009F4C1C19B
:102D100008F4B7C1223009F4BEC1233009F4C3C19D
:102D200081E090E028960FB6F894DEBF0FBECDBFCD
:102D3000DF91CF911F910F91FF90EF90DF90CF9097
:102D4000BF90AF909F908F907F906F905F904F90CB
:102D50003F902F900895F701E05AFF4F0190F081C6
:102D6000E02DC60109952C813D81280F391F3D8337
:102D70002C8398CFF701E05AFF4F0190F081E02DAE
:102D8000C6010995881A990A8DCFF701E05AFF4FBD
:102D90000190F081E02DC6010995EC81FD81E81BD1
:102DA000F90BFD83EC837ECFF701E05AFF4F0190D2
:102DB000F081E02DC6010995880E991E73CFEC8134
:102DC000FD8124912017110609F09AC0CF010296C7
:102DD000009709F495CFF701EE59FF4FF887EF837D
:102DE000918380831286739660818F8198850E947B
:102DF000E509EF81F8858087F701EA58FF4F608188
:102E00008F8198850E94E509582EEF81F88581878A
:102E1000970122573F4F3D832C83F9019081EF8129
:102E2000F885948781E0911180E0EF81F8858587AE
:102E3000F701E958FF4F8080682D8F8198850E94A7
:102E4000E509382EF701E858FF4F2080622D8F8169
:102E500098850E94E509982EF701E758FF4F1081E9
:102E6000612F8F8198850E94E5099FEF910F01E006
:102E700010E0980101C0220F9A95EAF7821B8E8319
:102E8000EF81F885408414140CF0C4C08A94C80102
:102E900001C0880F8A94EAF7381AF685F983950CF1
:102EA0002A94C80101C0880F2A94EAF7282E29180D
:102EB0002F2F422D632DEF81F885828193810E940F
:102EC00053094C01EF81F885938382832981422D38
:102ED000632D848195810E946C09EF81F88595832B
:102EE0008483F981F13009F49AC008F44EC0F230BD
:102EF00009F4A4C0F33009F4B5C0BC0194014FC07B
:102F0000FC0184912C813D81280F311DF0CEF70109
:102F1000EA57FF4F80819181EC81FD81E80FF91F15
:102F2000FD83EC834F0160E0C4010E94100A2C81F4
:102F30003D81280F391F3D832C8362E0C4010E942C
:102F4000100A34E0830E911C8017910760F3EC8126
:102F5000FD81849190E0982F88273196E4918E2B03
:102F6000009709F4CDCE0817190721F48C819D81B3
:102F700003962ECFEC81FD813296E4912C813D8128
:102F80002E0F311D3D832C83E2CF9401240D311D82
:102F900047FC3A95BC01650D711D57FC7A958B0174
:102FA000AC01B401C6010E94BB07882399F1EF81EF
:102FB000F885168217824701F3E78F0E911C24E7EC
:102FC000E20EF11CF40160818F8198850E94E50971
:102FD000082FF70160818F8198850E94E509182FDD
:102FE00040E0602FC6010E94850941E0612FC601C3
:102FF0000E94850961E08F8198850E94E509811111
:10300000EFCFEF81F88587818515E4F28485EC8127
:10301000FD818083FE818F2FFF0F990B73CE0519E1
:10302000110957FC139594012F5F3F4FBC01640DAC
:10303000711D47FC7A95800E911EB1CFA8014419ED
:10304000510947FC539594012F5F3F4F0519110912
:1030500057FC1395BC016F5F7F4F800F911F840E4B
:10306000951E9DCF9401250D311D57FC3A950419ED
:10307000110947FC1395BC016F5F7F4F800F911FB3
:103080008ECFF50120813181820F931F9183808340
:1030900047CEF301F7CFF50120813181281B390B91
:1030A000318320833DCEF301F7CF089590E080E097
:1030B0000895CF92DF92EF92FF920F931F93CF93D9
:1030C000DF9300D000D000D0CDB7DEB781E0809391
:1030D000FF0488E6809321051092000510922205D6
:1030E00060E08BE096E00E944D050E940D040E9476
:1030F000A0016B017C018091F904811165C081E020
:103100008093F9048093F8049FEF9093F704109252
:10311000F60496E09093F5048093D4048091D4044F
:10312000806D8093D4048091D304813009F0EDC088
:103130001092D3040E94A0016B017C018091D40401
:103140008093BB008091FB049091FC04A091FD044E
:10315000B091FE04892B8A2B8B2BA1F00E94A00139
:103160000091FB041091FC042091FD043091FE04B9
:103170006C197D098E099F0906171707280739075B
:1031800008F443C08091BC0083FDD8CF85EC8093C8
:10319000BC000E94A0016B017C018091F904813088
:1031A00009F4B5C08091F604873008F0D2C0809150
:1031B000F604A5EDB4E0E3EBF4E090E0981751F1EC
:1031C0002D9121939F5FFACF8091FB049091FC0495
:1031D000A091FD04B091FE04892B8A2B8B2B09F45E
:1031E0008ACF0E94A0010091FB041091FC04209161
:1031F000FD043091FE046C197D098E099F090617A4
:1032000017072807390708F076CF8091FA040E9443
:10321000EC0380E01092B2048093B1048BE096E05E
:103220000E9406059C0194E0359527959A95E1F753
:103230002F7033273AE0C32E8F70182FC29E100DC7
:1032400011248BE096E00E9406059C0144E0359530
:1032500027954A95E1F72F7033278F70082FC29E6C
:10326000000D11248BE096E00E940605982F9F73B5
:1032700092959F708F70D82E9C9DD00C11248BE05E
:1032800096E00E9406058BE096E00E9406059C01F0
:1032900054E0359527955A95E1F72F7033278F70B5
:1032A000E82EC29EE00C11248BE096E00E940605F9
:1032B00084FB992790F98F70F82E9C9DF00C1124B7
:1032C0008BE096E00E9406059C0164E03595279509
:1032D0006A95E1F72F7033278F70482FC29E400DFB
:1032E000112497015D2DB80180E090E026960FB67D
:1032F000F894DEBF0FBECDBFDF91CF911F910F912C
:10330000FF90EF90DF90CF90089585EE40CF8091B1
:10331000FB049091FC04A091FD04B091FE04892B64
:103320008A2B8B2B09F439CF0E94A0010091FB045A
:103330001091FC042091FD043091FE046C197D096C
:103340008E099F09061717072807390708F025CFA8
:103350005CCF87E02ECFCF92DF92EF92FF921F9348
:10336000CF93DF93EC0180E2689FF0011124E155D7
:10337000FD4F9385917161F0842F827449F080E054
:10338000DF91CF911F91FF90EF90DF90CF90089544
:10339000142F6A8B8091140190911501A091160150
:1033A000B09117018E879F87A88BB98BC488D58869
:1033B000F12CE12C7601DD24CC24CF8AD88EE98E45
:1033C000FA8E828D938DB0E0A0E0AC01BD014C2956
:1033D0005D296E297F294F8B588F698F7A8F83855E
:1033E0008871B1F4848D958DA68DB78D8B8B9C8B58
:1033F000AD8BBE8B81E08D831F701C831E821F826C
:10340000188619861A861B861C861D8681E0B8CF11
:10341000803109F0B4CF9E012D5E3F4F8B8D9C8D86
:103420000E94BB0F882309F4AACF84E0E4CFFB01FC
:1034300001900020E9F73197AF01461B570BDC01E3
:10344000ED91FC910280F381E02D09940F931F937D
:10345000CF93DF93EC010E94171A8C0169ED71E0A4
:10346000CE010E94171A800F911FDF91CF911F91FB
:103470000F9108953F924F925F926F927F928F9239
:103480009F92AF92BF92CF92DF92EF92FF920F93F3
:103490001F93CF93DF93CDB7DEB72B970FB6F8947A
:1034A000DEBF0FBECDBF7C01FE013196CE010C9672
:1034B0006F0130E23193E817F907E1F7DA0130E004
:1034C00087E09D91B92E992309F43CC09E32F1F416
:1034D0008A30C9F480E02B960FB6F894DEBF0FBE99
:1034E000CDBFDF91CF911F910F91FF90EF90DF90B3
:1034F000CF90BF90AF909F908F907F906F905F9094
:103500004F903F90089538E08AE0DBCFE2E7F0E0AB
:103510004491442321F031969413FACFDBCF8317E3
:10352000C8F24FED490F4E35A8F64FE9490F4A3121
:1035300018F440EEB42EB90EF601E30FF11DB0827F
:103540003F5FBFCF8981803229F2322E8B01DB01B0
:103550005B968D919C915C97F701948F838F169663
:103560001D921D921D921C921997FB0112861386C3
:1035700014861586F80182859385A485B5854389CF
:1035800054896589768984179507A607B70708F0D7
:103590004DC025E0B695A795979587952A95D1F7C3
:1035A000F82FFF70AF2ED80115968C91823008F459
:1035B00091CFC8010E940A1297FD8CCFF801828535
:1035C0009385A485B5854F96A11DB11D82879387EC
:1035D000A487B587F0E2AF9EB001112461557D4FFD
:1035E0006115710509F476CFDB018C91882341F0D8
:1035F000853E09F062C0BB2029F0BB24B394BACF4A
:10360000B1100EC0F701A28A8091140190911501AA
:10361000A0911601B091170186879787A08BB18B77
:10362000DB018C918111E9CFBB24B394832D82718E
:10363000823109F04FCFBB2009F44DC0F7016685F8
:1036400077858089918941E00E94250D882309F4BE
:1036500041CFD70152968C91B0E28B9FC0011124CB
:1036600081559D4F009709F435CFFC013A9626E12C
:10367000DF011D922A95E9F72BE0F601DC010190AC
:103680000D922A95E1F721E238E2FC01318B208B83
:1036900040E058E057874687338B228B318F208F4D
:1036A000578B468B81E00E94FA0C882309F412CFD5
:1036B000432DD70152966C910AC04BE050E0C601F1
:1036C0000E948824892B09F055CF432D6A2DC7010C
:1036D0000E94AB1900CFF8018581823009F4FACE3F
:1036E000C8010E940A11882309F4F4CED8015B9620
:1036F000ED91FC915C9716968D909D90AD90BC904D
:103700001997B2E08B1A9108A108B108858504C009
:10371000880C991CAA1CBB1C8A95D2F786859785B4
:10372000A089B189880E991EAA1EBB1E848124011E
:103730003501480E511C611C711C84149504A604AB
:10374000B70409F1E1E04E1A51086108710881E0FF
:103750000E94FA0C882309F4BDCEEFEAF2E0119240
:103760008FEA94E08E179F07D1F740921401509290
:10377000150160921601709217018091A10281607B
:103780008093A102DACFD8015B96ED91FC9125855B
:1037900080E092E0A0E0B0E004C0880F991FAA1F6B
:1037A000BB1F2A95D2F7F801438954896589768928
:1037B000840F951FA61FB71F838B948BA58BB68B89
:1037C000D70152961C928FEA92E04FCFEF92FF9270
:1037D0000F931F93CF93DF93EC017B018A011B8230
:1037E0001A8288EE93E0A0E0B0E08C839D83AE83E4
:1037F000BF8389E891E0998388838DE190E00E94FE
:1038000063239A8F898F009779F02DE1F701DC010E
:1038100001900D922A95E1F74CE050E0B801CE01FD
:103820000C960E94A024188EDF91CF911F910F91CA
:10383000FF90EF90089585ED8093BC008091FB048C
:103840009091FC04A091FD04B091FE040796A11D87
:10385000B11D23E0B695A795979587952A95D1F741
:103860002091BC0024FD03C01092F90408954091FA
:10387000FB045091FC046091FD047091FE04452B03
:10388000462B472B69F30097A105B10541F02AE2C9
:103890002A95F1F700C00197A109B109E1CF809104
:1038A000FA040C94EC034F925F926F927F928F9286
:1038B0009F92AF92BF92CF92DF92EF92FF920F93BF
:1038C0001F93CF93DF93CDB7DEB7C85DD1090FB695
:1038D000F894DEBF0FBECDBFE0913305F091340503
:1038E00082E08083E0912F05F09130051082E09115
:1038F0003105F09132058FEC808310923B05E09109
:103900003705F091380586E08083E0913505F09128
:103910003605808180618083E0913505F091360520
:10392000808188608083E0913505F0913605808143
:1039300080688083E0913505F091360580818F7D28
:1039400080831092B2041092B1041092000510927C
:1039500022050E94CE0384EF94E090937A02809334
:10396000790285EF94E090937E0280937D0282EC51
:1039700095E0909354028093530285E592E09093F2
:103980005202809351028091F105882321F08CEE40
:1039900095E00E94FC131092CD051092CB05109279
:1039A000C8051092C7058AE08093C6050E94F801F9
:1039B0008B0161E08091C6050E946F0161E08091FA
:1039C000C6050E944101FFB6F89480915002811112
:1039D00027C0E0EAF0E08491E4EBF0E09491E82F76
:1039E000F0E0EE0FFF1FEE57FF4FA591B491EC9161
:1039F000E92321F461E08AE00E94410161E08AE06C
:103A00000E946F018CB580618CBD8CB580648CBDCB
:103A100061E08DE00E946F0161E08BE00E946F0128
:103A2000809150028F5F80935002FFBE82E58093A9
:103A3000C0051092C1058091C0059091C1050E94FA
:103A4000500B2AE0F22E8FEF0E942B0BFA94F1100C
:103A5000FACF82EC95E00E94530B20E030E0A90100
:103A600060E082EC95E00E94690BF82E8093CC0513
:103A700081E0F816A9F00E94F801601B710B613D0E
:103A8000774058F381E08093C70582EC95E00E946F
:103A9000220A68EE71E083E295E00E94261AEDC0EA
:103AA0002AEA31E040E050E068E082EC95E00E94D4
:103AB000690B82FF2AC0F092CD058091CD05C12C03
:103AC000D12C7601823029F4C12CD12CE12C80E458
:103AD000F82E20E030E0A90167E382EC95E00E9437
:103AE000690BA701960169E282EC95E00E94690BDF
:103AF0008093CC058823D1F00E94F801601B710BE4
:103B0000613D774030F388E0BECF94E0F92E0E940B
:103B1000320B8093CC05FA94F110F9CF8A3A11F068
:103B200082E0B1CF82E08093CD05C7CF8091CD05F3
:103B30008230D1F420E030E0A9016AE382EC95E024
:103B40000E94690B882311F086E09DCF0E94320B02
:103B5000807C803C19F483E08093CD050E94320B79
:103B60000E94320B0E94320B82EC95E00E94220AE6
:103B700080E58093C0051092C10581E00E946F0D21
:103B8000882309F492C06EEC75E08CEE95E00E94FB
:103B90002610882309F47DCF68EB7BE080E090E07D
:103BA0000E94C5010E945918822FF62F29833A835B
:103BB0004B835C836D837E83A0E0B1E0EAE06E2FEF
:103BC0000E941523805D80930001905D9093010118
:103BD0002FE220930201832F0E941523805D8093A2
:103BE0000301905D9093040120930501842F0E94AE
:103BF0001523805D80930601905D9093070110E28C
:103C000010930801852F0E941523805D8093090180
:103C1000905D90930A018AE380930B018F2F0E949D
:103C20001523805D80930C01905D90930D0110929F
:103C30000E011F9281E08F931F9286EE8F931F9249
:103C400084E58F93BF93AF938CED91E09F938F9317
:103C50001F9280E48F93CE0101963C019F938F9336
:103C60000E94AF240FB6F894DEBF0FBECDBF809187
:103C7000530290915402892BF9F4C852DF4F0FB6CA
:103C8000F894DEBF0FBECDBFDF91CF911F910F9192
:103C9000FF90EF90DF90CF90BF90AF909F908F906C
:103CA0007F906F905F904F90089580E00E946F0D1D
:103CB000882309F4EECE67CF0E945918CD52DF4F0A
:103CC0002883C35DD040CC52DF4F3883C45DD040E1
:103CD000CB52DF4F4883C55DD040CA52DF4F588377
:103CE000C65DD040C952DF4F6883C75DD040C8521F
:103CF000DF4F7883C85DD0401F923F93CB52DF4F98
:103D00008881C55DD04090E08053984F9F938F93FA
:103D100088EF91E09F938F931F921F934E01F1E4E0
:103D20008F0E911C9F928F920E94AF24609153023C
:103D3000709154027E018EE7E80EF11CF7011382A8
:103D400012828DEA91E0918380831582A5961FAE41
:103D50001EAEA597A3969FAF8EAFA397A7961FAE53
:103D6000A797645F7F4FC7010E9426100FB6F89493
:103D7000DEBF0FBECDBFFE01EF59FF4F6F01270120
:103D800084016FE270E0C8010E949524009709F455
:103D90006AC0F80120812F3269F40F5F1F4F9C2DFC
:103DA0008D2D6201492E582E942D852D2601C92E68
:103DB000D82EE7CF801B8D3008F08CE0A82EB12CD8
:103DC000A501B801CE0188549F4F0E94A024E8EBC2
:103DD000F0E0EC0FFD1FEA0DFB1D1082C6010E94F2
:103DE000FC13F6018581882371F1C356DF4F1982D8
:103DF0001882CD59D0408DEA91E0C556DF4F9983A6
:103E00008883CB59D040C056DF4F1882C05AD0406B
:103E100010E000E0800E911EF401808181112CC021
:103E2000BE0165567F4FCE018F599F4F0E941103EF
:103E30004BE052E0BE016F597F4FCE0188549F4F37
:103E40000E94E61B4DC021E0AE0148545F4FB20115
:103E5000C6010E943A1A882341F20A0D1B1DC201B5
:103E60000E94FC13A1CF08191909B201CE01855691
:103E70009F4F0E941103CECFF701138212828DEA69
:103E800091E0918380831582C056DF4F8881C05AAC
:103E9000D04081115BC0C654DF4F19821882CA5BC3
:103EA000D04088EE93E0A0E0B0E0C454DF4F8883B8
:103EB0009983AA83BB83CC5BD04089E891E0C85446
:103EC000DF4F99838883C85BD040CF52DF4F198280
:103ED0001882C15DD040CC53DF4F1882C45CD04003
:103EE000CF52DF4FE881F981C15DD040309709F4AE
:103EF000C4CE8581882309F4C0CE83899489A5899D
:103F0000B689892B8A2B8B2B39F46DE072E0CE01B8
:103F100088549F4F0E94261AB301CE0188549F4FA8
:103F20000E94261ACF52DF4F88819981C15DD0400F
:103F3000009709F4A2CE0E94FC13CF52DF4F888174
:103F40009981C15DD0400E94FF2397CE27E1A40153
:103F5000BE0165567F4FC7010E943A1A882309F4B3
:103F60009ACFCE0185569F4F0E94FC13F7014389DB
:103F7000548965897689C7010E947610B701CE0100
:103F80008F599F4F0E941103A40154CF1F920F928B
:103F90000FB60F9211242F933F938F939F93AF935C
:103FA000BF938091A7029091A802A091A902B0911D
:103FB000AA023091A60223E0230F2D3758F501966F
:103FC000A11DB11D2093A6028093A7029093A80281
:103FD000A093A902B093AA028091AB029091AC0287
:103FE000A091AD02B091AE020196A11DB11D8093CA
:103FF000AB029093AC02A093AD02B093AE02BF911E
:10400000AF919F918F913F912F910F900FBE0F9085
:104010001F90189526E8230F0296A11DB11DD2CF3F
:104020001F920F920FB60F9211242F933F934F932D
:104030005F936F937F938F939F93AF93BF93EF9310
:10404000FF9383E295E00E948202FF91EF91BF917E
:10405000AF919F918F917F916F915F914F913F9120
:104060002F910F900FBE0F901F9018951F920F92D7
:104070000FB60F9211242F938F939F93EF93FF937B
:10408000E0913305F09134058081E0913905F0919C
:104090003A0582FD1BC0908180913C058F5F8F7334
:1040A00020913D05821741F0E0913C05F0E0ED5D87
:1040B000FA4F958F80933C05FF91EF919F918F91DF
:1040C0002F910F900FBE0F901F9018958081F4CF05
:1040D0001F920F920FB60F9211242F933F934F937D
:1040E0005F936F937F938F939F93AF93BF93EF9360
:1040F000FF938091B900887F803609F44AC0F0F5BB
:10410000883209F4A7C018F5803109F49BC0B8F4CF
:10411000882309F4F9C0883009F494C0FF91EF9125
:10412000BF91AF919F918F917F916F915F914F91CF
:104130003F912F910F900FBE0F901F9018958831CF
:1041400009F488C0803251F78093F70414C080349A
:1041500009F49DC040F48033B9F38833F9F68093B5
:10416000F70485ECB0C0803509F485C0883509F4C2
:1041700096C0883499F60E941B1CD0CF883909F468
:104180008CC038F5883729F050F4883611F0803724
:1041900029F683E08093F90410929F0257C0883873
:1041A00009F47BC0803919F0803809F0B7CF8091CD
:1041B0009F02803208F071C0E0919F0281E08E0F73
:1041C00080939F028091BB00F0E0E158FD4F808317
:1041D0003DC0803B39F0E0F4803A09F479C0883A78
:1041E00009F09CCF84E08093F90410927C02109235
:1041F0007B02E0917902F0917A02099580917B022D
:1042000081110FC081E080937B021092590209C096
:10421000803C09F4A6CF883C09F4A3CF883B09F081
:104220007DCFE0917C0281E08E0F80937C02F0E0F4
:10423000E75AFD4F80818093BB0090917C02809172
:104240007B0229C08091D4048093BB0085EC8093CD
:10425000BC0064CF9091F6048091F504981758F54E
:10426000E091F60481E08E0F8093F604F0E0EB52CB
:10427000FB4F8081E9CFE091F60481E08E0F8093BF
:10428000F6048091BB00F0E0EB52FB4F80839091ED
:10429000F6048091F5049817C8F285E8D8CFE0912C
:1042A000F60481E08E0F8093F6048091BB00F0E06D
:1042B000EB52FB4F80838091F80481115CCF81E049
:1042C0008093D30484EA8093BC001092F90426CF33
:1042D00085EC8093BC001092F90480919F0280329B
:1042E00030F4E0919F02F0E0E158FD4F10826091C0
:1042F0009F0270E0E0917D02F0917E028FE792E0F4
:10430000099510929F020ACF1092F70434CFCF93F1
:10431000109226051092250588EE93E0A0E0B0E00B
:104320008093270590932805A0932905B0932A052B
:104330002BE931E0309324052093230525EC30E070
:104340003093300520932F0524EC30E03093320574
:104350002093310520EC30E0309334052093330571
:1043600021EC30E0309336052093350522EC30E027
:10437000309338052093370526EC30E030933A052A
:104380002093390510923C0510923D0510923E0590
:1043900010923F0520E52093C0051092C1051092B0
:1043A000C7051092C8051092CB051092CD0542E0CA
:1043B00050E060E070E04093CE055093CF056093ED
:1043C000D0057093D1051092E5051092EF0510927B
:1043D000EE052DEA31E03093ED052093EC051092C7
:1043E000F10510920E0610920D0680930F06909321
:1043F0001006A0931106B093120689EB91E09093FA
:104400000C0680930B0610929A061092990684E986
:1044100090E0909328078093270710922A07109224
:10442000290710922C0710922B071092B3068BECE1
:1044300091E0909398068093970610929C061092B4
:104440009B061092B0061092A7061092A806109232
:10445000A9061092AA068FEF8093B1068093B50645
:10446000E9EBF6E08FEC96E0CFEFC1938E179F0754
:10447000E1F78AEF95E09093A00680939F068FEE78
:1044800096E09093A2068093A1068DE29AE0909325
:10449000A4068093A3068EE99AE09093A6068093E3
:1044A000A50630E020E040E069E08BE996E00E945C
:1044B000FA051092F6061092F5068EE990E09093B8
:1044C000D0068093CF0687E196E09093D406809340
:1044D000D30681E08093D5061092D6061092040789
:1044E00010922407109220078093250780932607B7
:1044F00083ED91E09093D2068093D1068BE996E00C
:104500000E9469071092EE061092ED061092F206D4
:104510001092F1068FEF9FEF9093F0068093EF06D5
:104520009093F4068093F306E091D106F091D206C1
:104530000280F381E02D8BE996E009958DE091E012
:104540009093F8068093F70610920707C093C4066D
:10455000C093C506C093C606CF910895789484B5DC
:10456000826084BD84B5816084BD85B5826085BD6F
:1045700085B5816085BD80916E00816080936E00FD
:1045800010928100809181008260809381008091EF
:1045900081008160809381008091800081608093A0
:1045A00080008091B10084608093B1008091B00060
:1045B00081608093B00080917A00846080937A005B
:1045C00080917A00826080937A0080917A00816085
:1045D00080937A0080917A00806880937A001092AC
:1045E000C1000E94531CC0E0D0E068EE73E080E0A0
:1045F00090E00E94C50180911801909119010296E6
:10460000853691056CF490931901809318012097D9
:1046100061F30E946E02882341F30E940000E5CFFF
:104620001092190110921801F2CF991B79E004C081
:10463000991F961708F0961B881F7A95C9F78095E1
:104640000895A1E21A2EAA1BBB1BFD010DC0AA1FD3
:10465000BB1FEE1FFF1FA217B307E407F50720F0EB
:10466000A21BB30BE40BF50B661F771F881F991F66
:104670001A9469F760957095809590959B01AC01AF
:10468000BD01CF0108950E945423A59F900DB49FB2
:10469000900DA49F800D911D11240895EE0FFF1F12
:1046A0000590F491E02D0994A29FB001B39FC00141
:1046B000A39F700D811D1124911DB29F700D811D4E
:1046C0001124911D08950F931F93CF93DF93823090
:1046D000910510F482E090E0E0912F07F09130070F
:1046E00030E020E0B0E0A0E0309799F421153105EA
:1046F00009F44AC0281B390B24303105D8F58A81CA
:104700009B816115710589F1FB0193838283FE0111
:1047100011C0408151810281138148175907E0F08F
:104720004817590799F4109761F012960C93129755
:1047300013961C933296CF01DF91CF911F910F9169
:10474000089500932F0710933007F4CF21153105FA
:1047500051F04217530738F0A901DB019A01BD015E
:10476000DF01F801C1CFEF01F9CF909330078093BB
:104770002F07CDCFFE01E20FF31F819391932250BB
:10478000310939832883D7CF20912D0730912E0707
:10479000232B41F420911C0130911D0130932E07F1
:1047A00020932D0720911A0130911B01211531050D
:1047B00041F42DB73EB740911E0150911F01241BBB
:1047C000350BE0912D07F0912E07E217F307A0F4C7
:1047D0002E1B3F0B2817390778F0AC014E5F5F4F57
:1047E0002417350748F04E0F5F1F50932E07409354
:1047F0002D07819391939FCFF0E0E0E09CCFCF9382
:10480000DF930097E9F0FC01329713821282A091A6
:104810002F07B0913007ED0130E020E01097A1F4B0
:1048200020813181820F931F20912D0730912E0717
:104830002817390709F061C0F0932E07E0932D0780
:10484000DF91CF910895EA01CE17DF07E8F54A819D
:104850005B819E0141155105B1F7E901FB83EA83B4
:1048600049915991C40FD51FEC17FD0761F4808160
:1048700091810296840F951FE90199838883828133
:1048800093819B838A83F0E0E0E012968D919C9166
:1048900013970097B9F52D913C911197CD01029690
:1048A000820F931F20912D0730912E07281739076B
:1048B00039F6309751F51092300710922F07B093C8
:1048C0002E07A0932D07BCCFD383C2834081518193
:1048D000840F951FC817D90761F44E5F5F4F888119
:1048E0009981480F591F518340838A819B8193830B
:1048F00082832115310509F0B0CFF0933007E093A2
:104900002F079ECFFD01DC01C0CF13821282D7CFCB
:10491000FB01DC0104C08D910190801921F441500C
:104920005040C8F7881B990B0895FC0181918617A8
:1049300021F08823D9F7992708953197CF01089559
:10494000FB01DC014150504048F001900D920020E5
:10495000C9F701C01D9241505040E0F70895AEE004
:10496000B0E0E5EBF4E20C946B270D891E898F898A
:10497000988D26E02C831A83098397FF02C080E07C
:1049800090E801979E838D83AE01455E5F4F698DF0
:104990007A8DCE0101960E94DF244D815E8157FD04
:1049A0000AC02F813885421753070CF49A01020F71
:1049B000131FF80110822E96E4E00C948727ABE0D9
:1049C000B0E0E5EEF4E20C945D277C013B018A0146
:1049D000FC0117821682838181FFC8C1CE01019636
:1049E0005C01F7019381F30193FD859193FF819120
:1049F0003F01882309F453C1853239F493FD859131
:104A000093FF81913F01853229F4B70190E00E9424
:104A1000CF26E7CF912C212C312CFFE1F31538F074
:104A20008B3211F190F4803209F1833229F137FC95
:104A30003CC020ED280F2A3050F536FE20C08AE019
:104A4000989E200D1124922E06C08D3291F0803355
:104A500071F7689430F8F30193FD859193FF81918C
:104A60003F018111DACF21C0689431F8689432F89F
:104A7000F2CF689433F8EFCF689434F8ECCFEAE0E3
:104A80002E9E200D1124222E689435F8E4CF8E320C
:104A900029F436FC04C1689436F8DDCF8C3619F45D
:104AA000689437F8D8CF8836B1F2982F9F7D955407
:104AB0009330E0F08336A1F18337C1F1833509F0FB
:104AC00063C02801F2E04F0E511CF801C080D18074
:104AD000692D70E036FC02C06FEF7FEFC6010E94C7
:104AE000B9264C01689437F882010AC00C5F1F4F49
:104AF000FFE3F98388248394912C6501E89437F8C7
:104B000033FE2DC0522C8114910471F5552009F407
:104B100068CFB70180E290E00E94CF265A94F6CF8A
:104B2000F801808189830E5F1F4FE4CF2801F2E0F6
:104B30004F0E511CF801C080D180692D70E036FC09
:104B400002C06FEF7FEFC6010E94C4264C018201B4
:104B5000D5CFB70180E290E00E94CF262A94281496
:104B6000190409F0B0F7CECFF60137FC859137FE76
:104B700081916F01B70190E00E94CF2651105A94A5
:104B8000F1E08F1A9108BFCF843619F0893609F009
:104B900077C0F80137FE6BC060817181828193819B
:104BA0000C5F1F4FF32DFF763F2E97FF09C09095A6
:104BB0008095709561957F4F8F4F9F4F689437F820
:104BC0002AE030E0A5010E94FF26C82ECA188C2CCE
:104BD000432C36FE0CC0E89440F8C91440F434FE6F
:104BE00005C032FC03C0F32DFE7E4F2E892C44FEFF
:104BF00095C0FE01EC0DF11D8081803309F087C066
:104C0000242D297E422E842D8870582E43FC95C079
:104C100040FE8FC09C2C821418F42C0C922C9818F7
:104C200044FE91C0B70180E390E00E94CF2642FE8F
:104C300009C088E790E041FE02C088E590E0B70136
:104C40000E94CF26C91408F48AC0CA94D12C9FEFC1
:104C5000C91AD90ACA0CDB1CF60182916F01B7018F
:104C600090E00E94CF26AC14BD04B1F74FCF608115
:104C70007181072E000C880B990B0E5F1F4F92CF8E
:104C8000D32CE894D4F82AE030E0853739F1232D8D
:104C9000297FD22E8F3601F148F48835A9F0F7012B
:104CA000868197812B96E2E10C947927803749F031
:104CB0008837A9F7D4FE02C06894D2F820E130E02A
:104CC0000DC06894D4F8F6CF34FE03C0822F8660FE
:104CD000D82E20E132E002C028E030E0F801D7FE13
:104CE0000FC060817181828193810C5F1F4FA5018C
:104CF0000E94FF26C82ECA183D2CE89437F867CFCB
:104D00006081718190E080E00E5F1F4FF0CF42FC28
:104D100002C0839478CF8394839475CF842D867852
:104D200009F471CFF6CFB70180E290E00E94CF2660
:104D300083948214C0F3512C73CF522C58188214D0
:104D400008F46ECFF8CF842D867809F47BCF8BE200
:104D500041FE80E247FC8DE2B70190E071CFB701E0
:104D600080E390E00E94CF269A946CCF8FEF9FEF64
:104D700099CFFC010590615070400110D8F78095E3
:104D800090958E0F9F1F0895FC0161507040019017
:104D90000110D8F7809590958E0F9F1F08950F935F
:104DA0001F93CF93DF93182F092FEB018B8181FD88
:104DB00009C01FEF0FEF812F902FDF91CF911F912F
:104DC0000F91089582FF14C02E813F818C819D81B7
:104DD000281739073CF4E881F981CF0101969983BE
:104DE000888310838E819F8101969F838E83E3CF7A
:104DF000E885F985812F0995892BA1F3DACFFA018E
:104E0000AA27283051F1203181F1E8946F936E7F09
:104E10006E5F7F4F8F4F9F4FAF4FB1E03ED0B4E0FA
:104E20003CD0670F781F891F9A1FA11D680F791F3B
:104E30008A1F911DA11D6A0F711D811D911DA11D4C
:104E400020D009F468943F912AE0269F112430195C
:104E5000305D3193DEF6CF010895462F4770405DF7
:104E60004193B3E00FD0C9F7F6CF462F4F70405DA6
:104E70004A3318F0495D31FD4052419302D0A9F701
:104E8000EACFB4E0A6959795879577956795BA95FB
:104E9000C9F700976105710508959B01AC010A2EC1
:104EA00006945795479537952795BA95C9F7620F98
:104EB000731F841F951FA01D08952F923F924F923C
:104EC0005F926F927F928F929F92AF92BF92CF929A
:104ED000DF92EF92FF920F931F93CF93DF93CDB7A3
:104EE000DEB7CA1BDB0B0FB6F894DEBF0FBECDBF1B
:104EF00009942A88398848885F846E847D848C84EC
:104F00009B84AA84B984C884DF80EE80FD800C81F4
:104F10001B81AA81B981CE0FD11D0FB6F894DEBFD7
:0C4F20000FBECDBFED010895F894FFCF47
:104F2C0030332D30342D32362031313A33300000CD
:104F3C0000000000FFFFFFFF54000000310780005D
:104F4C001815A015C019FF1815A115C819FF1815AB
:104F5C00AE19FF1815AF19FF1815AE15D51680151B
:104F6C00A8163F15D316001540158D1614152016CE
:104F7C000015A115C815DA1612158116CF15D916FC
:104F8C00F115DB1640152E15A415A619FF000114FA
:104F9C000A6464323200127A000004289610080069
:104FAC000080004000000000009103BE1581030941
:104FBC001461032A13341300000000A4020402310C
:104FCC0002F10262024002540200000000AD15041E
:104FDC00029E135518000000004D0520055618F6CA
:104FEC000419050605F704000000000316DB15562E
:104FFC001855186907F40759070D0A0025732C2555
:10500C00642C25642C256400534420696E6974203B
:10501C006661696C656421002F6C6F675F253034A5
:10502C00645F253032642E637376002F00646174E4
:10503C00652C74696D652C6C6576656C2C766F6C63
:0C504C00746167652C6D6F746F7200005A
:00000001FF
