:020000040000FA
:100000000C94EC060C9414070C9414070C9414072D
:100010000C9414070C9414070C9414070C941407F4
:100020000C9414070C9414070C9414070C941407E4
:100030000C9414070C9414070C9414070C941407D4
:100040000C94DA150C9414070C9414070C941407F0
:100050000C9414070C9414070C9414070C941407B4
:100060000C9424160C9414070000000023002600B2
:10007000290000000000240027002A0000000000E2
:10008000250028002B0004040404040404040202D4
:100090000202020203030303030301020408102007
:1000A0004080010204081020010204081020000012
:1000B0000008000201000003040700000000000027
:1000C00000005F0003020304030504050A00FE07A5
:1000D000FE07000142028803B620050062072107DF
:1000E0003943C7A00422079B52476209230E3D42B1
:1000F0004F294906A53228A52401240C3D4257B6B4
:10010000D4B624D92200250C3D424FA474ABB44888
:100110000900260D3D424F9644495649A4480927F7
:10012000061953C7002808BB425752AA152909BB14
:10013000424756AA94002A0A2D4647965406A52DF2
:100140002B0A2D4657180D5218012C079B3E8F5233
:10015000022D060D4EC7202E089B3E4FB224002FC5
:10016000083D4267AD6308300B3D425796D46C4959
:100170002D02310A3D4257262561D320320C3D42E3
:10018000CF92859194858300330C3D42C7206699B8
:10019000AA250B00340C3D425F2625A564D0C2047D
:1001A000350B3D42C73131855AB200360C3D42977E
:1001B000948589494B1600370B3D42C7206661562E
:1001C000CC00380C3D42CF9269C99269C902390C02
:1001D0003D42CF92498A126691043A0ABB3E4FB221
:1001E000A4C992003B09BB3E4FB2A44A093C08BCDB
:1001F000425FD4D8003D081D4AC7A00E023E08BC8D
:100200004247D8D4063F0A3D42CF9235E6500440DB
:100210000C3D42CF92494B62491700410C3D425779
:1002200096D4B461C8B400420D3D42C71055A264D3
:10023000AA448302430A3D42CF92896DC902440F0A
:100240003D42C71055A2244AA2241A1400450B3D72
:1002500042C7311C92301C04460A3D42C7311C92F1
:10026000B008470B3D42CF9289A52D5900480A3D61
:100270004247661B86CC164908BB42C71275194A0D
:100280000A3D42D716B64491044B0D3D4247262500
:10029000252D892A59004C083D4247D8E3204D0BB3
:1002A0003D4247A62D4BA2D9024E0C3D4247A64DDA
:1002B0004A226D5A004F0A3D42CF92794B160050A8
:1002C0000C3D42C79064DAA0844500510A453ECFF8
:1002D0009279A9AC01520D3D42C79064DAA0942AEC
:1002E0005900530B3D42CF92A9AB962C0054093DC7
:1002F00042C720853D0155093D4247E65BB20056A5
:100300000D3D4247664B4A4994641100570A3D42ED
:1003100047E69228C92D580B3D4247A625B54A4DC0
:100320000B590A3D4247A625B5B0095A0A3D42C7B6
:1003300020661D07015B08BB42C710751A5C083DAB
:10034000424798760C5D08BB42C7D469085E081D19
:10035000525796D4025F060D3EC7206006125B47D7
:1003600014610A2D42CF9A0C5A3204620B3D424767
:1003700058316993A200630A2D42CF928959B20085
:10038000640A3D4267C5B4498A12650A2D42CF927C
:100390000D43BA00660B3D429754C98628AC0167ED
:1003A0000C3D3ACFA069C9106AC902680A3D4247AC
:1003B000583169B6006908BB424F28B50C6A0BCCAE
:1003C0003A5FACD5242951006B0B3D4247589392BC
:1003D000A992056C08BB4287D4CB006D0B2D4287D8
:1003E000D2A2244AA2056E092D424762D26C016F47
:1003F000092D42CF92D99205700C3D3A4762D22620
:1004000045094300710A3D3A8F699314252C7209FE
:100410002D424762128B0073092D42CF921E1400A9
:10042000740C3D424F980D51588A140075092D42A5
:1004300047E6A42801760B2D4247A625A5248B006C
:10044000770A2D42476649942E00780A2D42479636
:10045000D42AB500790C3D3A47665294504B1600A9
:100460007A092D42C7A0B50D027B0ABC429712261D
:1004700062140A7C063943C7217D0BBC428718856C
:100480004A9848007E091D524FA4245202000000E1
:1004900004FFFF00006000030304050406060F17B5
:1004A00000FC10FC1000020A040005FF20060010EA
:1004B00054012108021534F1A144220934B6552112
:1004C000998802231E08135427114D4492916424E5
:1004D000911C0E928948E57090A8496412D144A4F9
:1004E00004241448D3532796D22CA322799F89A59C
:1004F000898D2A9601251808135423B348282255BC
:10050000B1AA582A5615A94822129B04002617089A
:100510001354372CC9243289783A244A641209C901
:10052000CD343919270732B4355101281004175436
:100530001593885444FA26128D220029100417546A
:10054000139289D444FA22928C42002A127872556E
:10055000278C48228710E91089488232002B0C66CC
:10056000745425141D4A4211002C0732F4334109FA
:100570002D0726B45471282E06221434412F140856
:1005800013542D9D8AA553B154AC2A964EC5D22939
:1005900000300F08135445B38C8AFCC7D2C44602FE
:1005A000310B041754253A5044FA1F3214081354DF
:1005B00045B38C8A6C53E9702A9DAA4E0F0701330C
:1005C00012081354F1209DAAAE92C79A4B131B092F
:1005D00000341208135427156B156B11E974380891
:1005E000C54A003513081354F14056365D4645B1EF
:1005F00032B134B19100361408135445B38C8A6477
:10060000B1E9322A722C4D6C24003713081354F1CF
:1006100040A44DC5AA53B174552C9D0A0138150844
:10062000135445B38C8A8CA589C9322A3296263652
:100630001200391408135445B38C8A1C4B939359F8
:100640004C2C4D6C24003A089254344187113B09DC
:10065000A23434418751023C0D95765C19932C05E8
:10066000674361003D0967545CF10E3F1C3E0E95E7
:10067000765C1114CE86A1C95210003F12081354A3
:1006800045B38C8A62E970AAAC3B5C2C0340293EDE
:100690009383693F4487B3B964542299484A242517
:1006A00092124989A444522229910EA643680E9DB4
:1006B000430FE2430800411308135427160F79949F
:1006C000C824229D4C17199128421408135451BB79
:1006D000C824426E12D34556E426B9D4004310080C
:1006E000135445B38C8A64FDB134B19100440F08B2
:1006F000135461BAC88AFC6F87890900450F081333
:1007000054F140D6D96412EB7C3808460E081354D5
:10071000F140D6D96412EB3300471108135445B3A6
:100720008C8A649D1C194B939301480D0813542126
:10073000E4C7C3C1C88F024908021534F103014A56
:100740000D081354ADFF99589AD848004B1A081356
:100750005421AB494413918AAC469C4E8935894C4F
:10076000A434914964034C0B08135421D6FFF3E1E0
:10077000204D13081354212C391D7E904828128ACD
:1007800084C8A3004E1308135421ACB5994C178AA2
:100790008422A19CDC3A0A4F0F08135445B38C8A7B
:1007A000FCC7D2C44602501108135451BBC824429E
:1007B000DE24979A58CF00510E08135445B38C8A03
:1007C000FCC7D2E464521508135451BBC82442DE5E
:1007D000241793DE2432894C2214531108135445F4
:1007E000B38C8AE47D269626361200540C081354E6
:1007F000F12013EBFF0D00550D08135421E4FFB158
:1008000034B19100561708135421244A64129944B4
:10081000A437894C22AB11A95B6500571107155C01
:1008200021E34B8412A14428875F5C065815081306
:10083000542194C824226D12598DC8B13411E98D08
:1008400028591708135421948826225D6644E274BF
:100850002C154BA762E914005A15081354F1209681
:100860008AA562A9582A968AA5E2C341005B0B05B6
:10087000175471A8E97F3B0C5C110715542155965C
:100880004AA7AA53D5A9EA54005D0B0515547198DF
:10089000E97F3B145E0936145625A388045F071AC6
:1008A000F0537118600833F8552111096115C91208
:1008B0005C37AD29C9E432D34528114A84A2438864
:1008C00022621108135421D66CBA8C8A7C2C1D2606
:1008D00026006310C8125445B38C8A641D4B131B49
:1008E0000900640F081354AD93E5302AF2B134398E
:1008F000196512C8125445B38C8AC4C3C12C1E4D4D
:100900006C2400660F08135447336956BCDCC4FAE4
:100910001100671608935365398C8AC4D2C45413E6
:100920008B2D8721F130B100680E08135421D66C4D
:10093000BA8C8AFCA300690C03133421914BF42F69
:1009400013016A0F469553A98E24D4FF483A4428D0
:10095000006B1808135421D6AD26114D442A328954
:10096000AC6D229A4C6412D9006C0B04133421D262
:10097000FF1365006D1BCE128461221D2C23525182
:100980004814128544215148141285442151016EA6
:100990000CC8125461BA8C8AFCA3006F0FC81254A1
:1009A00045B38C8A7C2C4D6C2400701108935361E4
:1009B000BA8C8A7C2C1D2626B16600710F089353D1
:1009C00065398C8A7C2C4D4E661D720BC61244F123
:1009D0001021EA8F007310C7124C35ABC898896498
:1009E0001A4D521B01740E05133C23D37498C8F49E
:1009F0001B6900750CC8125421E41F4B93930176B8
:100A000013C8125421244A6412D144A43789AC4635
:100A100064027720CE12842114126712D94C22A2CC
:100A20004944242592524526D14692C84844129101
:100A300044027814C81254219488262219912A96C7
:100A40001269222D4201791B0893532393C8243243
:100A5000916424914964129944489C6E8B8C8A431A
:100A6000007A11C81254F1201D4EA5C3A974383D57
:100A70001C047B1026D553291B09751BCD8643BD4D
:100A80000E057C0842D953F187027D1026D55321EB
:100A90005CD4EB6C24D46D3413027E0929D25471DA
:100AA000081D027F060010540100000004FFFF0033
:100AB000005F0002020303030404050700FF06FFB2
:100AC0000600010A02160307200500BD012106B138
:100AD000B1192922075BB7495600230A2DB1AB860D
:100AE000AA86AA0024092DB15BF54E6901250834B8
:100AF000B1C9B1770026092CB18B295631052705DC
:100B000099B719280772B153CD00290872B189A984
:100B100052002A076BB149D56A2B0A2DB1CD280E98
:100B20009951042C075BAF5325002D060CB5190114
:100B30002E0652B119012F0724B38F6D00300873B0
:100B4000B1AB5C1500310773B14BB235320934B12A
:100B50005331C77204330A34B1193969249302340A
:100B60000A34B18DAA1A312700350A34B1197A2313
:100B7000991400360A34B1537945991400370A3470
:100B8000B11939E6982300380A34B15331A92893B2
:100B900002390A34B15351A69D14003A076AB119BB
:100BA00071043B0833AFB3912A013C076BB14D751B
:100BB000013D081CB319198D003E076BB1C95509D9
:100BC0003F0973B16BA60C1300400934B15351DDDA
:100BD0004801410934B153518E2903420A34B159B5
:100BE00071A4284702430934B1535197490144097C
:100BF00034B159D1391200450934B1197AE53C02B2
:100C0000460834B1197AE51A470934B15351A79906
:100C100006480834B189724C33490773B159B1356C
:100C20004A0834B16FCBA4004B0A34B1892A4999E0
:100C3000CA004C0734B1C9DD234D0934B189E388BA
:100C400066004E0834B1896BA9334F0934B153D1D2
:100C5000991400500A34B159518E943300510A3C12
:100C6000AF53D15C49A300520934B159518ED40C11
:100C7000530A34B1533165542605540773B159B141
:100C80000B550834B1899E4901560934B189CE24E7
:100C90001500570934B189E6386200580A34B18921
:100CA0003249156500590873B1495659015A09343A
:100CB000B11939B647005B0773B119B1395C092422
:100CC000B3C928A38C025D0773B199CD115E05539A
:100CD000B96B5F060CB11901600652B98901610850
:100CE00024B11B51A902620A34B1C97945391200F5
:100CF000630623B19B59640834B1AF469469650813
:100D000024B153696405660934B1ADCA99230067FB
:100D1000092CAF1B31A98C06680834B1C979453359
:100D2000690873B1CB4856036A097BAFCDB054153F
:100D3000006B0934B1C95592A90C6C0773B1915D70
:100D4000036D0824B1496948196E0724B159D10CC3
:100D50006F0824B15351260570092CAF59518E9458
:100D60000171082CAF1B51A61D720824B15951679F
:100D700000730824B11B1A0D05740934B1CB71E658
:100D80008C04750724B189661A760763B149560544
:100D9000770724B189721C780824B18949AA187987
:100DA000092CAF89329525007A0824B119B11C01AC
:100DB0007B0873B14D49D6017C05B1B1397D09730A
:100DC000B1C951C514017E0714B94B2A01000000B6
:100DD00004FFFF000000431711241FBECFEFD8E02F
:100DE000DEBFCDBF11E0A0E0B1E0E4E3FBE302C071
:100DF00005900D92AA3CB107D9F723E0AAECB1E027
:100E000001C01D92A43DB207E1F716E0CCEED6E09A
:100E100004C02197FE010E94A61ACB3ED107C9F754
:100E20000E9405180C94981D0C940000662329F06C
:100E30006A3019F0862F90E008958FEF9FEF0895A4
:100E4000AF92BF92CF92DF92EF92FF920F93CF9328
:100E5000DF93EC01DA017901942F9770E1E0F0E083
:100E60009F01092E01C0220F0A94EAF7522F6E014A
:100E70008AE8C80ED11CF601808140E0823018F467
:100E8000422F813049F15D01F8EFAF22E8ADF9ADB5
:100E900028813981D90150968C918A9D90018B9D32
:100EA000300D1124620F731FDF01A60FB71F011150
:100EB0001AC0EA0EFB1E8C91842B85278D93AE15EC
:100EC000BF05C9F7DF91CF910F91FF90EF90DF90B1
:100ED000CF90BF90AF90089550E0D5CF440F550FFD
:100EE000E114F10479F33C91342B35273C939F5F57
:100EF0009770E1E0EE1AF1089111F0CF2CAD3DAD05
:100F0000A20FB31FF6018081823028F4813009F0EE
:100F100051E041E0E5CF51E0E3CF80E0089590E07B
:100F200080E008959B01DC011896ED91FC9141E071
:100F300067E10994833081F028F4813099F08230A0
:100F4000A9F008958730A9F08830C9F08430B1F451
:100F5000809180008F7D03C0809180008F77809387
:100F60008000089584B58F7784BD089584B58F7D02
:100F7000FBCF8091B0008F778093B000089580916F
:100F8000B0008F7DF9CF1F93CF93DF93282F30E0F0
:100F9000F901E255FF4F8491F901E656FF4FD491D4
:100FA000F901EA57FF4FC491CC23A9F0162F811104
:100FB0000E949A07EC2FF0E0EE0FFF1FE458FF4F5E
:100FC000A591B4918FB7F894EC91111108C0D09508
:100FD000DE23DC938FBFDF91CF911F910895DE2B2D
:100FE000F8CFCF93DF9390E0FC01E656FF4F2491BA
:100FF0008A579F4FFC0184918823D1F090E0880F9D
:10100000991FFC01EE58FF4FA591B491FC01E458E3
:10101000FF4FC591D491623071F49FB7F8943C9121
:10102000822F809583238C93E8812E2B28839FBF6A
:10103000DF91CF9108958FB7F894EC912E2B2C93DC
:101040008FBFF6CF3FB7F8948091AE029091AF0278
:10105000A091B002B091B10226B5A89B05C02F3F68
:1010600019F00196A11DB11D3FBFBA2FA92F982FCE
:101070008827BC01CD01620F711D811D911D42E0C9
:10108000660F771F881F991F4A95D1F708958F9291
:101090009F92AF92BF92CF92DF92EF92FF926B013D
:1010A0007C010E9422084B015C01C114D104E104BF
:1010B000F104B9F00E942208681979098A099B098C
:1010C000683E73408105910580F321E0C21AD10882
:1010D000E108F10888EE880E83E0981EA11CB11C7F
:1010E000E4CFFF90EF90DF90CF90BF90AF909F90B4
:1010F0008F90089520915D02260F3327331F2132F0
:101100003105ECF420918302FC0190E080E0243072
:1011100069F082E00895A0915D022191AC01455CE7
:101120005D4FA40FB52FB11D2C930196861798F330
:1011300080915D02680F60935D0280E0089581E018
:1011400008951092830281E08093850210928402B8
:1011500061E082E10E94C30761E083E10E94C3076E
:10116000E9EBF0E080818E7F808380818D7F8083BA
:1011700088E48093B80085E48093BC000895CF9301
:10118000DF9391E090933A028823B9F0C091B800C0
:10119000D091BA008091BC008A7B8093BC0060E053
:1011A00082E10E94C30760E083E10E94C3070E94BE
:1011B000A108D093BA00C093B800DF91CF910895F1
:1011C000089508950895E091320280913102E81760
:1011D00030F4F0E0EF5EFD4F808190E008958FEFF6
:1011E0009FEF089590913202809131022FEF3FEFEF
:1011F000981748F4E92FF0E0EF5EFD4F208130E0D2
:101200009F5F90933202C9010895809131029091BD
:101210003202891B990B0895CF92DF92EF92FF92D1
:101220000F931F93CF93DF937C01CB018A01209111
:101230001002222389F0EB016B01C40ED51ECC15E0
:10124000DD0569F06991D701ED91FC910190F08184
:10125000E02DC7010995F3CF642F0E947A08C801D9
:10126000DF91CF911F910F91FF90EF90DF90CF9082
:101270000895CF93DF931F92CDB7DEB76983209196
:1012800010022223F9F020913302203258F021E09D
:1012900030E0FC013383228390E080E00F90DF9107
:1012A000CF91089580913402E82FF0E0E051FE4F95
:1012B000998190838F5F809334028093330281E021
:1012C00090E0ECCF61E0CE0101960E947A08F7CF62
:1012D000DC011A96ED91FC9130E020E00994DC01EC
:1012E0001696ED91FC9130E020E040E069E1099430
:1012F000DC011696ED91FC9130E020E040E068E1E1
:1013000009949A01DC011696ED91FC91462F67E154
:101310000994EF92FF920F931F93CF93DF931F9245
:10132000CDB7DEB77C018B01D8016C91673129F113
:1013300050F46531A0F40F90DF91CF911F910F9180
:10134000FF90EF9008956A3118F16E3FA1F7F80110
:101350004181498369E2C7010E9468090BC0F80115
:1013600041814983D7011696ED91FC9130E020E050
:10137000C70109950E5F1F4FD7CFF801818189837F
:10138000AE014F5F5F4F61E0C7010E948109F2CF5C
:101390000F5F1F4FD7011696ED91FC9130E020E0D2
:1013A00040E0C7010995C0CF462FDC011696ED91AC
:1013B000FC9130E020E066E10994462FDC011696AE
:1013C000ED91FC9130E020E065E10994EF92FF920D
:1013D0000F931F93CF93DF93EC01042F79016D30AE
:1013E00009F446C050F46B30C9F1693009F49FC06C
:1013F0006A3009F465C080E046C06E3009F452C01E
:101400006F3099F70E947809F7011381110F110FBE
:10141000110F6C89160F60E4CE010E94DD09612F67
:1014200062956F706061CE010E94DD09612F6F705F
:10143000CE010E94D409F7016481606BCE010E9445
:10144000D409F701408151816281660F660F660FF2
:10145000CE010E9481090150A1F72EC061E271E026
:10146000442311F06CE171E0CE010E9489090AC0A9
:10147000411110C065E171E00E948909E881F9819C
:1014800082898C8B81E0DF91CF911F910F91FF902A
:10149000EF9008956EE071E00E948909E881F9817A
:1014A0008389EFCF0E94780961E8CE010E94DD09AF
:1014B000602FCE010E94D409CE010E946F09E2CFB5
:1014C000EA85FB8530E020E040E068E2CE01099546
:1014D000EE81FF8130E020E040E064E1CE0109953B
:1014E00041E06BE4CE010E946809E881F981448102
:1014F00069E2CE010E94680940E06BE4CE010E94DF
:101500006809E881F981448169E2CE010E94680995
:1015100041E06BE4CE010E946809E881F9814581D0
:1015200069E2CE010E94680966E271E09DCF8BE519
:1015300091E0998388831C8AA5CFDC011896ED91F0
:10154000FC9130E020E040E069E10994DC0118966C
:10155000ED91FC9130E020E040E068E10994CF9308
:10156000DF931F92CDB7DEB76983BE016F5F7F4FF8
:101570000E9492070F90DF91CF910895EF92FF9212
:101580001F93CF93DF93EC01162F7A010E94A60AD6
:1015900060E4CE010E94AF0AE885F9859701412FEA
:1015A00067E1CE010995CE01DF91CF911F91FF90A8
:1015B000EF900C949D0AEF92FF921F93CF93DF93CD
:1015C000EC01142F7901663181F138F4643109F4AA
:1015D0004BC0653179F080E022C06831C9F150F12B
:1015E0006931C9F78091EF01882391F1CE010E9402
:1015F0009D0A2EC08091EF01882319F0CE010E9430
:101600009D0ACE010E94A60A60E0CE010E94AF0AA8
:10161000612FCE010E94AF0A81E08093EF01DF913C
:10162000CF911F91FF90EF900895642F0E94AF0A11
:1016300081E0F5CF8091EF01882319F0CE010E945F
:101640009D0AA701193138F4612FCE010E94BE0A0C
:101650001092EF01EDCF68E1CE010E94BE0A185151
:1016600088E1E80EF11CEDCF8E898F3F11F488E7F9
:101670008E8BE885F9859701412F64E1CE01DF91DA
:10168000CF911F91FF90EF9009940F93FC01E05CC4
:10169000FF4F0190F081E02D4E1B5F0BDC01D496D3
:1016A000ED91FC9109950F910895CF93DF93FC0183
:1016B000A081B18182AD90E09C0143E0220F331FF5
:1016C0004A95E1F737AF26AF50962C91509748E0F6
:1016D000249F9001112435AF24AF23AD30E0B90130
:1016E00053E0660F771F5A95E1F7EF01C05CDF4FBB
:1016F0007983688351964C915197E901C80FD91F9E
:1017000050E04C175D0718F4CA01821B930BEF01E0
:10171000CE5BDF4F79836883229623E0880F991F81
:101720002A95E1F7860F971F99838883229654960E
:101730008D919C91559799838883E85BFF4F5696CE
:101740008D919C9191838083DF91CF9108950F9328
:101750001F93FC01E25BFF4F0190F081E02DDC0163
:10176000A05BBF4F0D90BC91A02D4A175B0740F4C2
:10177000E017F10748F00417150730F080E019C0B2
:10178000E017F107C0F3FACFFC01E65BFF4F4081A1
:101790005181845B9F4FFC0180819181681779079B
:1017A00058F481E04217530720F081E026173707ED
:1017B00028F71F910F91089542175307B0F3DECF1A
:1017C0002F923F924F925F926F927F928F929F9251
:1017D000AF92BF92CF92DF92EF92FF920F931F933F
:1017E000CF93DF93CDB7DEB72A970FB6F894DEBF5D
:1017F0000FBECDBF9A878987865B9F4F9A83898367
:10180000FC0111821082E985FA85EA5BFF4F408076
:10181000518029853A85245B3F4F3C832B83F90116
:1018200051824082E985FA85EE5BFF4F208031804E
:1018300029853A85225B3F4F3E832D83F901318212
:101840002082E985FA85EC5BFF4F608071802985F5
:101850003A85205B3F4F38872F83F9017182608280
:10186000E985FA85E85AFF4FE080F180E985FA853D
:10187000EC5AFF4FA080B180E985FA85EA5AFF4F04
:10188000C080D180E985FA85EE5AFF4F8080918033
:1018900087019501A601B40189859A850E94A70B4D
:1018A00029853A852C573F4F3A87298781111BC0DC
:1018B000F90110822A960FB6F894DEBF0FBECDBF95
:1018C000DF91CF911F910F91FF90EF90DF90CF901C
:1018D000BF90AF909F908F907F906F905F904F9050
:1018E0003F902F90089581E0E985FA8580838114E7
:1018F000910421F0E981FA8191828082A414B504D7
:1019000020F4EB81FC81B182A0822C143D0420F4F0
:10191000ED81FE81D182C082E614F70458F6EF8192
:10192000F885F182E082C6CF0F93CF93DF93E02F4B
:10193000DC01AC57BF4FFC91FF2309F460C02115B7
:10194000310509F45CC02230310538F0023009F06D
:101950004AC06F5F7F4F621B730B0E2F0170E0FD5B
:1019600052C0FC01E25BFF4F0190F081E02D4E1769
:101970005F0708F444C0FC01E05BFF4F0190F08179
:10198000E02D4E175F07D8F5FC01E45BFF4F019097
:10199000F081E02DDC01A65BBF4F0D90BC91A02D26
:1019A000260F371F2617370738F56E177F0718F5EC
:1019B0009F0121503109A217B30708F56A177B0769
:1019C00008F4BD012E173F0708F4F901E61BF70BD9
:1019D000EC01AEA9BFA914960D90BC91A02D9F015A
:1019E000FD0109950CC0033009F0B7CF4F5F5F4F81
:1019F000421B530BB2CFBD016E177F07E0F2DF91A0
:101A0000CF910F910895FC01E65BFF4F0190F081AB
:101A1000E02D6E177F0798F3FC01E45BFF4F019008
:101A2000F081E02D6E177F0750F7FC01E05BFF4F60
:101A30000190F081E02DDC01A25BBF4F0D90BC91C5
:101A4000A02D240F351F24173507A8F44E175F0764
:101A500088F49F0121503109A217B30780F64A1775
:101A60005B0708F4AD012E173F0708F4F901E41BEA
:101A7000F50BAECFAD014E175F0708F6EDCF0F9314
:101A8000209190033091910362177307F0F0209139
:101A900092033091930362177307B8F420918C037B
:101AA00030918D038217930780F020918E0330913F
:101AB0008F038217930748F4AB01BC0100E021E0DB
:101AC00030E082E493E00E94940C0F9108954F92CD
:101AD0005F926F927F928F929F92AF92BF92CF92BE
:101AE000DF92EF92FF920F931F93CF93DF93EC015E
:101AF0008B016A0181E1E82EF12C4701861A970AD1
:101B00005A01AC0EBD1EB401C5010E943F0DEC1A76
:101B1000FD0A38016C0C7D1CB701C3010E943F0D0A
:101B200026014C1A5D0AB401C2010E943F0DC01A81
:101B3000D10AB701C6010E943F0D0F5E1F4FB801C9
:101B4000C5010E943F0D6196BE01C3010E943F0D79
:101B5000B801C2010E943F0DBE01C601DF91CF91C5
:101B60001F910F91FF90EF90DF90CF90BF90AF90BB
:101B70009F908F907F906F905F904F900C943F0D4F
:101B80008F929F92AF92BF92CF92DF92EF92FF928D
:101B90000F931F93CF93DF935C01AC0167E070E07C
:101BA00090E080E00E94670DCC24C394D12CF12CEE
:101BB000E12C07E010E092EF892E99249A94CAEF65
:101BC000DFEF8FEFE81AF80A82E0C80ED11CCC0DC7
:101BD000DD1DA501B801C7010E94670DE016F106E1
:101BE00068F0DF91CF911F910F91FF90EF90DF9000
:101BF000CF90BF90AF909F908F900895D7FDE1CF89
:101C00000150110982E0880E911CC80DD91DD9CF51
:101C10005F926F927F928F929F92AF92BF92CF927C
:101C2000DF92EF92FF920F931F93CF93DF93EC011C
:101C30007B018A016C01C41AD50A4817590718F0AC
:101C40006A01C81AD90A2E153F0560F44701821AA5
:101C5000930AC814D90448F10C171D0708F459C099
:101C6000512C18C049018E189F08C814D90408F0D7
:101C70005EC09C2D8D2D6401892E982E902F812F72
:101C80008901292F382F9C2F8D2FE701E92EF82E5F
:101C900055245394360176946794E216F30608F4BB
:101CA00042C0AA24AA94BA2C21C09C2D8D2D640177
:101CB000892E982E9E2D8F2D7801092F182F9C2F5D
:101CC0008D2FE901292F382FE3CFB701CE01552001
:101CD00011F0BE01C7010E943F0D6818790877FE18
:101CE00004C0EA0CFB1C6C0C7D1C21960C171D0714
:101CF00060F7DF91CF911F910F91FF90EF90DF90F0
:101D0000CF90BF90AF909F908F907F906F905F909B
:101D10000895360176946794902F812F8E01C92FF4
:101D2000D82F7901512CAA24A394B12CDFCF0C1702
:101D30001D0708F095CF360176946794902F812F78
:101D40008E01C92FD82F7901512CABCF8F929F9242
:101D5000AF92BF92CF92DF92EF92FF920F931F93B9
:101D6000CF93DF936C017B015A01E9014C01840E92
:101D7000951E8B01020F131F9401AB01BC0182E47D
:101D800093E00E94A70B882339F100E09501A70199
:101D9000B60182E493E00E94940C22978FEFE81A38
:101DA000F80A01E09E01A701B60182E493E00E94D7
:101DB000940CB401615071099E01A70182E493E083
:101DC0000E94940CAE014E0D5F1D00E09501B6011E
:101DD00082E493E00E94940CDF91CF911F910F91C8
:101DE000FF90EF90DF90CF90BF90AF909F908F903B
:101DF0000895213069F038F0223079F0840F911D78
:101E000047FD9A950895860F911D67FD9A9508954F
:101E1000841B910947FD93950895861B910967FDE1
:101E200093950895213069F038F0223079F0861BBF
:101E3000910967FD93950895840F911D47FD9A952B
:101E40000895860F911D67FD9A950895841B910949
:101E500047FD939508953F924F925F926F927F92C4
:101E60008F929F92AF92BF92CF92DF92EF92FF92AA
:101E70000F931F93CF93DF937C01162F442EEC0119
:101E8000C25ADF4F5E806F806C018AE8C80ED11C99
:101E900078847518312E711608F4372C8C809D804B
:101EA0000E85202F462D652D8A819B810E94F90E7B
:101EB0005C01202F462D652DC4010E94120FAC013C
:101EC000442079F08C85F6018083232D30E0B50124
:101ED000C7010E94940C171548F017196394512CF0
:101EE000D7CF8B858111F7CF8D85EDCF150D1E8353
:101EF0006F82DF91CF911F910F91FF90EF90DF9054
:101F0000CF90BF90AF909F908F907F906F905F9099
:101F10004F903F900895DC011A964C911A97ED91DD
:101F2000FC911197249130E0042E02C0359527953D
:101F30000A94E2F7842F860F883068F03196119664
:101F4000FC93EE93E49198E0941B01C0EE0F9A95F8
:101F5000EAF72E2B88501A968C938FEF9FEF01C0D3
:101F6000880F6A95EAF7809582230895FC01E60FB1
:101F7000F11D849190E0982F88273196E4918E0F7F
:101F8000911D0895CF93DF9320919C0330919D0381
:101F90002817390709F490C0EC0190939D038093B2
:101FA0009C03FC0184918093AF033196E491E0930C
:101FB000B003FE013296E491E093B103FE01339643
:101FC000E491E093B203FE013496E491E093B3030D
:101FD000FE013596E491E093B403FE013696E49158
:101FE000E093B503FE013796E491E093B603FE015A
:101FF0003896E491E093B703FE013996E491E093BB
:10200000B803FE013A96E491E093B903FE013B96D2
:10201000E491E093BA03FE013C96E491E093BB03A4
:10202000FE013D96E491E093BC03FE013E96E491EF
:10203000E093BD03FE013F96E491E093BE03FE01F1
:102040007096E491E093BF0361E1CE010E94B60F68
:102050009093C1038093C00363E1CE010E94B60F49
:102060009093C3038093C20365E1CE010E94B60F33
:102070009093C5038093C40380919C0390919D032A
:10208000892BD1F08091BC038093C8034091BD039C
:102090004093C9039091C703992371F0913079F46B
:1020A0009091BE03891714F49093C8038091BF03E5
:1020B000841714F48093C903DF91CF910895309170
:1020C000B9032091BB03082E000C990B622F022E3E
:1020D000000C770B630F711D37FD7A9586179707F4
:1020E0001CF4320F3093C803241734F72093C9032C
:1020F000E3CF4F925F926F927F928F929F92AF92B7
:10210000BF92CF92DF92EF92FF920F931F93CF93E4
:10211000DF93EC016B018A017901FC01E459FF4F67
:102120008081813009F44BC008F43EC0823009F44C
:1021300051C0833009F459C0FE01E05AFF4FD182EB
:10214000C0823296118300833897808191814796AF
:102150002FEFE216F10411F008F0F2C0E1E6EE16FE
:10216000F10408F44DC0FE01E058FF4F2081318199
:10217000820F931F9C012F5F3F4FF9014491411142
:1021800048C090E080E0DF91CF911F910F91FF90C8
:10219000EF90DF90CF90BF90AF909F908F907F9007
:1021A0006F905F904F900895FE01E45AFF4F0190A9
:1021B000F081E02DCE010995080F191FBDCFFE015A
:1021C000E45AFF4F0190F081E02DCE010995C81A25
:1021D000D90AB2CFFE01E45AFF4F0190F081E02D01
:1021E000CE010995081B190BA7CFFE01E45AFF4F3A
:1021F0000190F081E02DCE010995C80ED91E9CCF2B
:10220000F1E4EF16F10408F4B5CFFE01E258FF4FF8
:10221000ADCFFC0144914E151F0409F08CC002960D
:10222000009709F4AECF7E01FEE5EF0EF11CF70139
:1022300091838083128673966081C7010E948B0F01
:10224000F701808774966081C7010E948B0F982EDA
:10225000F70181875E01FAE8AF0EB11CF5019081AC
:10226000F701948781E0911180E0F7018587FE01F5
:10227000ED58FF4FC0806C2DC7010E948B0F582E68
:10228000FE01EC58FF4FD0806D2DC7010E948B0FCF
:10229000482EFE01EB58FF4F1081612FC7010E94AD
:1022A0008B0F9FEF910F01E010E0980101C0220F0A
:1022B0009A95EAF7882E821AF701608416140CF0BA
:1022C000ADC0CA94C80101C0880FCA94EAF7581A71
:1022D0007684490CDA94A80101C0440FDA94EAF735
:1022E000F42FF4194F2E272D4F2F652DF7018281E2
:1022F00093810E94F90E6C01F70193838283272D4D
:10230000442D652D848195810E94120FF7019583DC
:102310008483F1E07F1609F485C07F1608F43FC07E
:1023200022E0721609F48DC0E3E07E1609F49DC028
:10233000BC0196013EC0F9012491820F911D1ACF74
:10234000FE01EE57FF4F00811181080F191F680130
:1023500060E0C6010E94B60F080F191F62E0C601B7
:102360000E94B60FF4E0CF0ED11C8E159F0580F3AE
:10237000F801849190E0982F88273196E4918E2B74
:10238000009709F4FECEE816F90619F4C801039681
:1023900047CFF8013296E4910E0F111DE9CF960157
:1023A000260D311D67FC3A95BC01690D711D97FC26
:1023B0007A958B01AC01B601CE010E94A70B882350
:1023C00069F1F701168217828E0101591F4F6E01C4
:1023D000F0E7CF0ED11CF8016081C7010E948B0F7E
:1023E000682EF6016081C7010E948B0F782E40E0B5
:1023F000662DCE010E942B0F41E0672DCE010E9479
:102400002B0F61E0C7010E948B0F8111F0CFF70104
:102410008781891504F38485F5018083882D880CD4
:10242000990BB1CE0919110997FC139596012F5FED
:102430003F4FBC01660D711D67FC7A95C00ED11E21
:10244000B8CFA8014619510967FC539596012F5F33
:102450003F4F0919110997FC1395BC016F5F7F4F1E
:10246000800F911FC40ED51EA4CF9601290D311DDA
:1024700097FC3A950619110967FC1395BC016F5F2B
:102480007F4F800F911F95CFCF92DF92EF92FF92F7
:102490000F931F93CF93DF93EC018B0110925A039C
:1024A0007A01D12CC12CF70161917F01E0914403A5
:1024B000F091450382E493E009958F3F980719F165
:1024C0008E3F2FEF920779F39C01A801BE0182E4B1
:1024D00093E00E9479102091AE03213059F038F03A
:1024E000223059F0233061F0C80ED91EDCCFC80F5E
:1024F000D91FFACF080F191FF7CFC81BD90BF4CF7C
:10250000081B190BF1CFC601DF91CF911F910F91DD
:10251000FF90EF90DF90CF90089526E137E0309361
:102520004503209344030C944412CF93DF93EC01B2
:102530006BAFEEA9FFA90190F081E02D0995EEA9FE
:10254000FFA90280F381E02DCE01DF91CF910994A4
:10255000AF92BF92CF92DF92EF92FF920F931F93B1
:10256000CF93DF9300D000D01F92CDB7DEB78C01A0
:10257000DC01DA96AC90DA97DB96EC90DB97ED9184
:10258000FC91B188FE2CD12CC12CD801ED91FC918D
:1025900011978089D8962D913C911C82FD828B8366
:1025A000B8E08B9FC00111248C9DA0018D9D500D22
:1025B0009C9D500D1124240F351F3A832983D80187
:1025C0001496ED91FC919E012F5F3F4F41E06FE02B
:1025D000C8010995F3948F2D8E198A1528F4BFEF41
:1025E000CB1ADB0AFB1488F20F900F900F900F901C
:1025F0000F90DF91CF911F910F91FF90EF90DF909F
:10260000CF90BF90AF900895CF92DF92EF92FF925C
:102610000F931F93CF93DF93EC01962F683109F44A
:102620004BC0B901993130F49431C9F0973189F038
:1026300080E006C0993109F461C09032C9F781E0A9
:10264000DF91CF911F910F91FF90EF90DF90CF908E
:10265000089550E082EB92E00E940C09F0CF8C8547
:102660009D85AE85BF85892B8A2B8B2B71F4E881E4
:10267000F981A585B0E020EA36E841E050E00E940B
:10268000631A6C877D878E879F8710923202109223
:10269000310210923402109233020E94A10880EE9F
:1026A00098E090935C0280935B0281EE98E09093B7
:1026B000600280935F02C3CF2C853D854E855F8588
:1026C00060E074E284EF90E00E946E1A20513109BC
:1026D0004109510956954795379527952093B8009C
:1026E0008E8990E09595879591E090931002809364
:1026F000EE011092340210923302A1CFD091330236
:10270000D13208F093C0C091EE010E9422086B0103
:102710007C0180918302811164C082E080938302F6
:1027200081E0809385028FEF809382021092A7024E
:10273000D093A602A0EFB1E0E6E8F2E080E0D81383
:102740007CC01092A8028091A802CC0FC82BC09325
:10275000A80280918402813009F073C01092840233
:102760000E9422086B017C018091A8028093BB002B
:102770008091360290913702A0913802B0913902CF
:10278000892B8A2B8B2B99F00E942208009136020C
:102790001091370220913802309139026C197D096D
:1027A0008E099F090617170728073907D8F1809166
:1027B000BC0083FDD9CF85EC8093BC000E94220829
:1027C0006B017C01809183028230E9F18091820269
:1027D0008F3F61F180918202803241F180918202CB
:1027E00025C08091360290913702A0913802B091B5
:1027F0003902892B8A2B8B2B09F48BCF0E9422085C
:10280000009136021091370220913802309139023E
:102810006C197D098E099F090617170728073907C4
:1028200008F077CF809135020E94BF0810923402E1
:10283000109233021092100202CF9D9191938F5FFC
:102840007ECF85EEB9CF8091360290913702A0916C
:102850003802B0913902892B8A2B8B2B09F4B2CF25
:102860000E9422080091360210913702209138020E
:10287000309139026C197D098E099F0906171707D7
:102880002807390708F09ECFCDCF0F931F93CF9322
:10289000DF93EC01862F642F8C3208F03AC08A3225
:1028A00008F060C0883209F44BC0893209F460C076
:1028B000803408F475C0982F9F73FE01E90FF11D55
:1028C000868D8F3F09F44EC0903108F436C0282F12
:1028D00030E0F901E255FF4F8491F901E656FF4FD0
:1028E0000491F901EA57FF4F1491112379F08111F6
:1028F0000E949A07E12FF0E0EE0FFF1FE859FF4F0B
:10290000A591B491EC910E2381E009F480E0898FC8
:1029100029C08D3299F108F4CBCF94EB980F923007
:1029200008F0C6CF8F73C80FD11D8E8D411134C0F2
:1029300061E00E94F10760E08E8D0E94C30712C023
:102940008E01025E1F4FD0E0F80181918F018F3F11
:1029500031F061E0D03108F062E00E94F107DF5F02
:10296000D63191F781E0DF91CF911F910F910895BA
:1029700070E090E080E00E944708F4CF85E090E0AE
:10298000433010F082E090E0880F991F880F991F64
:1029900005970197F1F7E6CF62E00E94F107E2CFD9
:1029A00080E0E1CFCF92DF92EF92FF920F931F93DF
:1029B000CF93DF936C01EB017B01E40EF51E10E079
:1029C00000E0CE15DF0561F06991D601ED91FC9133
:1029D0000190F081E02DC6010995080F191FF1CF74
:1029E000C801DF91CF911F910F91FF90EF90DF9081
:1029F000CF900895CF92DF92EF92FF920F931F93A3
:102A0000CF93DF93EC016C0124E0C20ED11CFC01DA
:102A1000E057FF4F0190F081E02DC60109958E3FF0
:102A2000EFEF9E07D8F48E010C561F4FF80140813E
:102A300051817E01F2E9EF0EF11CF7016081718195
:102A40009C01C6010E947910C059DF4F28812130B6
:102A5000C1F078F02230B9F02330E9F081E090E065
:102A6000DF91CF911F910F91FF90EF90DF90CF906A
:102A70000895F70120813181820F931F9183808314
:102A8000EDCFF801F7CFF70120813181281B390BF9
:102A900031832083E3CFF801F7CF089590E080E001
:102AA000089585ED8093BC008091360290913702A5
:102AB000A0913802B09139020796A11DB11D23E003
:102AC000B695A795979587952A95D1F72091BC0043
:102AD00024FD03C010928302089540913602509164
:102AE00037026091380270913902452B462B472BF3
:102AF00069F30097A105B10541F02AE22A95F1F7A3
:102B000000C00197A109B109E1CF809135020C9471
:102B1000BF08FC01A081B18150962C9182AD38E0B4
:102B2000839FC0011124289FA001299F500D1124CB
:102B300070E060E080AD91AD0C94AC1A1F93CF9320
:102B4000DF93EC010E94A8121BAD8AAD180FE8813B
:102B5000F9818189181768F0EC81FD8130E020E06F
:102B600040E060E1CE01099580E0DF91CF911F91B7
:102B70000895FE01E557FF4F8081882319F0CE01AB
:102B80000E948915612FCE010E94951281E0EDCF40
:102B9000CF93DF93EC01FC01E557FF4F8081882341
:102BA00019F0CE010E94891560E0CE01DF91CF912E
:102BB0000C9495121F920F920FB60F9211242F931F
:102BC0003F938F939F93AF93BF938091AA0290916D
:102BD000AB02A091AC02B091AD023091A90223E00A
:102BE000230F2D3758F50196A11DB11D2093A90281
:102BF0008093AA029093AB02A093AC02B093AD0273
:102C00008091AE029091AF02A091B002B091B1025A
:102C10000196A11DB11D8093AE029093AF02A093C7
:102C2000B002B093B102BF91AF919F918F913F914C
:102C30002F910F900FBE0F901F90189526E8230F2D
:102C40000296A11DB11DD2CF1F920F920FB60F9207
:102C500011242F933F934F935F936F937F938F93A1
:102C60009F93AF93BF93EF93FF938091B900887FB9
:102C7000803609F44AC0F0F5883209F4A7C018F587
:102C8000803109F49BC0B8F4882309F4F9C0883076
:102C900009F494C0FF91EF91BF91AF919F918F91F3
:102CA0007F916F915F914F913F912F910F900FBE48
:102CB0000F901F901895883109F488C0803251F721
:102CC0008093820214C0803409F49DC040F48033A4
:102CD000B9F38833F9F68093820285ECB0C0803571
:102CE00009F485C0883509F496C0883499F60E94A5
:102CF0005115D0CF883909F48CC038F5883729F0C0
:102D000050F4883611F0803729F683E080938302EF
:102D10001092810257C0883809F47BC0803919F0BD
:102D2000803809F0B7CF80918102803208F071C0FD
:102D3000E091810281E08E0F809381028091BB003F
:102D4000F0E0EF59FD4F80833DC0803B39F0E0F467
:102D5000803A09F479C0883A09F09CCF84E08093E6
:102D6000830210925E0210925D02E0915B02F0918C
:102D70005C02099580915D0281110FC081E0809312
:102D80005D0210923B0209C0803C09F4A6CF883C4A
:102D900009F4A3CF883B09F07DCFE0915E0281E08A
:102DA0008E0F80935E02F0E0E55CFD4F80818093A2
:102DB000BB0090915E0280915D0229C08091A802C3
:102DC0008093BB0085EC8093BC0064CF9091A702F8
:102DD0008091A602981758F5E091A70281E08E0F26
:102DE0008093A702F0E0EA57FD4F8081E9CFE091A0
:102DF000A70281E08E0F8093A7028091BB00F0E0D4
:102E0000EA57FD4F80839091A7028091A602981700
:102E1000C8F285E8D8CFE091A70281E08E0F8093B9
:102E2000A7028091BB00F0E0EA57FD4F80838091BC
:102E3000850281115CCF81E08093840284EA8093D3
:102E4000BC001092830226CF85EC8093BC001092C8
:102E5000830280918102803230F4E0918102F0E0BF
:102E6000EF59FD4F10826091810270E0E0915F02A6
:102E7000F091600281E692E00995109281020ACFFA
:102E80001092820234CFCF931092B5021092B40206
:102E900088EE93E0A0E0B0E08093B6029093B70292
:102EA000A093B802B093B9028FE791E09093B30278
:102EB0008093B202109241031092400386E197E0A2
:102EC0009093CF038093CE031092D1031092D0033E
:102ED0001092D3031092D20310925A0381E991E029
:102EE00090933F0380933E0310924303109242035A
:102EF0001092570310924E0310924F0310925003FA
:102F0000109251038FEF8093580380935C03E0E6A7
:102F1000F3E086E793E0CFEFC1938E179F07E1F7C9
:102F200086EE99E090934703809346038BED9AE0F9
:102F3000909349038093480384E093E190934B037B
:102F400080934A0385E494E190934D0380934C036E
:102F500030E020E040E069E082E493E00E94E6098E
:102F600010929D0310929C0380E297E09093770368
:102F7000809376038EEB92E090937B0380937A03A9
:102F800081E080937C0310927D031092AB0310923A
:102F9000CB031092C7038093CC038093CD0389E9C0
:102FA00091E0909379038093780382E493E00E9408
:102FB000550B10929503109294031092990310925E
:102FC00098038FEF9FEF90939703809396039093CE
:102FD0009B0380939A03E0917803F0917903028038
:102FE000F381E02D82E493E009958FE897E09093D8
:102FF0009F0380939E031092AE03C0936B03C09314
:103000006C03C0936D03CF910895CF93DF93CDB739
:10301000DEB72C970FB6F894DEBF0FBECDBF789405
:1030200084B5826084BD84B5816084BD85B58260CD
:1030300085BD85B5816085BD80916E00816080937E
:103040006E001092810080918100826080938100E7
:1030500080918100816080938100809180008160F7
:10306000809380008091B10084608093B100809152
:10307000B00081608093B00080917A00846080937A
:103080007A0080917A00826080937A0080917A0041
:10309000816080937A0080917A00806880937A00C2
:1030A0001092C100E0914603F091470330E020E028
:1030B00040E06AE082E493E0099582E493E00E94B4
:1030C000C81582E493E00E949E158111FACF60E05A
:1030D00082E493E00E949512E0914603F091470349
:1030E00030E020E040E06BE082E493E009955CE0B2
:1030F000552E9E012F5F3F4F690182E493E00E94AD
:10310000C8152CE330E044E150E064E070E08CE668
:1031100090E00E94A60EA0910C01B0910D012AE34F
:1031200030E00E949F1A24E630E040E050E00E9428
:10313000441A4EE3E42EF12CE21AF30A5701A20ED0
:10314000B31E85012FE730E0A7016DE670E082E451
:1031500093E00E94A70B811142C106E010E09801A4
:103160004EE650E0B8018CE690E00E94080E0A5F3F
:103170001F4F0C33110599F781EB9AE00E94C20FA3
:103180004FE951E06AE070E082E090E00E948D1229
:1031900080910D018F9380910C018F9389EA91E0CA
:1031A0009F938F931F925F92DF92CF920E94B31AE8
:1031B00085E994E00E94C20FA6016AE170E085E013
:1031C00090E00E948D122FE130E047E350E06FE184
:1031D00070E083E090E00E94080E81EB9AE00E948C
:1031E000C20F4EEA51E068E270E08CE390E00E948A
:1031F0008D1282EC90E00E94C20F1F92F6EEFF93B8
:1032000026EB31E03F932F931F925F92DF92CF9294
:103210000E94B31AA60164E370E08CE390E00E9480
:103220008D1222E330E047E350E063E270E087E391
:1032300090E00E94080E81EB9AE00E94C20F4AEBD8
:1032400051E068E270E088E090E00E948D1282EC2C
:1032500090E00E94C20F94E09F93E0EBEF9321EC8B
:1032600031E03F932F931F925F92DF92CF920E94A3
:10327000B31AA60164E370E088E090E00E948D122A
:1032800025E330E044E650E065E370E083E090E061
:103290000E94080E81EB9AE00E94C20F40E051E0CC
:1032A0006FE370E085E090E00E948D1229E130E04C
:1032B0004DE250E065E070E08CE390E00E94A60EE5
:1032C00009E110E020E530E04AE050E061E470E020
:1032D00082E493E00E94A70B0FB6F894DEBF0FBE06
:1032E000CDBF882321F088E490E00E94C00D45EC1A
:1032F00051E064E170E085E490E00E948D1209E104
:1033000010E024E630E04AE050E065E570E082E459
:1033100093E00E94A70B882321F08CE590E00E94A7
:10332000C00D82EC90E00E94C20F47EC51E064E1D6
:1033300070E08AE590E00E948D120EE310E027E62F
:1033400030E046E350E06FE570E082E493E00E94F5
:10335000A70B882309F473C026E3E22EF12C970112
:10336000235C3E4F590117013FEF231A330A8101B5
:1033700027E630E0A7016FE570E082E493E00E9469
:10338000A70B882309F455C04090CC038FE5682E25
:10339000712C98E0892E912C11E0F5018491812304
:1033A00030E020E0F501811130C094919123D9F0F3
:1033B0008091CB03811137C081E0411080E0809380
:1033C000CC0328C000E022E130E0A7016DE670E008
:1033D00082E493E00E94940C3FEFE31AF30AAE14E8
:1033E000BF0481F7BACE2F5F3F4FFFEF6F1A7F0AFE
:1033F000110F21F49FEFA91AB90A11E0E1E08E1A2A
:10340000910881F68823A1F203C09491912359F782
:103410004092CC03B301621B730B00E0A70182E46E
:1034200093E00E94940C8114910409F0B6CF40926D
:10343000CC037101FEE32F16310409F090CF82E432
:1034400093E00E949E1581115CCE68EE73E080E0EF
:1034500090E00E94470880910C0190910D01029626
:103460008536910564F490930D0180930C0120E062
:1034700030E0232B09F441CE0E9400003ECE109292
:103480000D0110920C01F3CF052E97FB1EF4009452
:103490000E945B1A57FD07D00E946E1A07FC03D0EA
:1034A0004EF40C945B1A50954095309521953F4F02
:1034B0004F4F5F4F089590958095709561957F4F20
:1034C0008F4F9F4F08950E94901AA59F900DB49F13
:1034D000900DA49F800D911D11240895A1E21A2E34
:1034E000AA1BBB1BFD010DC0AA1FBB1FEE1FFF1FA8
:1034F000A217B307E407F50720F0A21BB30BE40BF8
:10350000F50B661F771F881F991F1A9469F760953E
:103510007095809590959B01AC01BD01CF010895F8
:10352000A29FB001B39FC001A39F700D811D112404
:10353000911DB29F700D811D1124911D08950E944F
:10354000901AB7FF0895821B930B0895EE0FFF1F8B
:103550000590F491E02D0994DC0101C06D93415078
:103560005040E0F70895AEE0B0E0E9EBFAE10C94EA
:103570006F1D0D891E898F89988D26E02C831A83F3
:10358000098397FF02C080E090E801979E838D83B6
:10359000AE01455E5F4F698D7A8DCE0101960E9426
:1035A000E31A4D815E8157FD0AC02F81388542178D
:1035B00053070CF49A01020F131FF80110822E9684
:1035C000E4E00C948B1DABE0B0E0E9EEFAE10C9482
:1035D000611D7C013B018A01FC01178216828381F7
:1035E00081FFC8C1CE0101965C01F7019381F3010F
:1035F00093FD859193FF81913F01882309F453C185
:10360000853239F493FD859193FF81913F01853295
:1036100029F4B70190E00E94D31CE7CF912C212C14
:10362000312CFFE1F31538F08B3211F190F4803238
:1036300009F1833229F137FC3CC020ED280F2A30F4
:1036400050F536FE20C08AE0989E200D1124922E5F
:1036500006C08D3291F0803371F7689430F8F30131
:1036600093FD859193FF81913F018111DACF21C0B4
:10367000689431F8689432F8F2CF689433F8EFCF59
:10368000689434F8ECCFEAE02E9E200D1124222E0F
:10369000689435F8E4CF8E3229F436FC04C168947E
:1036A00036F8DDCF8C3619F4689437F8D8CF8836E1
:1036B000B1F2982F9F7D95549330E0F08336A1F1BD
:1036C0008337C1F1833509F063C02801F2E04F0E62
:1036D000511CF801C080D180692D70E036FC02C019
:1036E0006FEF7FEFC6010E94BD1C4C01689437F854
:1036F00082010AC00C5F1F4FFFE3F9838824839483
:10370000912C6501E89437F833FE2DC0522C8114BA
:10371000910471F5552009F468CFB70180E290E07B
:103720000E94D31C5A94F6CFF801808189830E5FE2
:103730001F4FE4CF2801F2E04F0E511CF801C0806A
:10374000D180692D70E036FC02C06FEF7FEFC601BB
:103750000E94C81C4C018201D5CFB70180E290E0E5
:103760000E94D31C2A942814190409F0B0F7CECF74
:10377000F60137FC859137FE81916F01B70190E02A
:103780000E94D31C51105A94F1E08F1A9108BFCFB8
:10379000843619F0893609F077C0F80137FE6BC01E
:1037A00060817181828193810C5F1F4FF32DFF76C1
:1037B0003F2E97FF09C090958095709561957F4F3A
:1037C0008F4F9F4F689437F82AE030E0A5010E94A0
:1037D000031DC82ECA188C2C432C36FE0CC0E8944E
:1037E00040F8C91440F434FE05C032FC03C0F32D88
:1037F000FE7E4F2E892C44FE95C0FE01EC0DF11D7E
:103800008081803309F087C0242D297E422E842DAB
:103810008870582E43FC95C040FE8FC09C2C8214AB
:1038200018F42C0C922C981844FE91C0B70180E338
:1038300090E00E94D31C42FE09C088E790E041FE60
:1038400002C088E590E0B7010E94D31CC91408F4B7
:103850008AC0CA94D12C9FEFC91AD90ACA0CDB1CA2
:10386000F60182916F01B70190E00E94D31CAC1465
:10387000BD04B1F74FCF60817181072E000C880B1A
:10388000990B0E5F1F4F92CFD32CE894D4F82AE007
:1038900030E0853739F1232D297FD22E8F3601F183
:1038A00048F48835A9F0F701868197812B96E2E1EB
:1038B0000C947D1D803749F08837A9F7D4FE02C0EB
:1038C0006894D2F820E130E00DC06894D4F8F6CFC7
:1038D00034FE03C0822F8660D82E20E132E002C081
:1038E00028E030E0F801D7FE0FC06081718182814D
:1038F00093810C5F1F4FA5010E94031DC82ECA189B
:103900003D2CE89437F867CF6081718190E080E0CA
:103910000E5F1F4FF0CF42FC02C0839478CF839498
:10392000839475CF842D867809F471CFF6CFB701D3
:1039300080E290E00E94D31C83948214C0F3512C47
:1039400073CF522C5818821408F46ECFF8CF842D00
:10395000867809F47BCF8BE241FE80E247FC8DE262
:10396000B70190E071CFB70180E390E00E94D31CD3
:103970009A946CCF8FEF9FEF99CFFC010590615027
:1039800070400110D8F7809590958E0F9F1F089575
:10399000FC016150704001900110D8F7809590951E
:1039A0008E0F9F1F08950F931F93CF93DF93182FB0
:1039B000092FEB018B8181FD09C01FEF0FEF812FD4
:1039C000902FDF91CF911F910F91089582FF14C026
:1039D0002E813F818C819D81281739073CF4E88135
:1039E000F981CF0101969983888310838E819F810D
:1039F00001969F838E83E3CFE885F985812F099512
:103A0000892BA1F3DACFFA01AA27283051F120310E
:103A100081F1E8946F936E7F6E5F7F4F8F4F9F4F62
:103A2000AF4FB1E03ED0B4E03CD0670F781F891FA4
:103A30009A1FA11D680F791F8A1F911DA11D6A0F72
:103A4000711D811D911DA11D20D009F468943F9125
:103A50002AE0269F11243019305D3193DEF6CF0124
:103A60000895462F4770405D4193B3E00FD0C9F7EA
:103A7000F6CF462F4F70405D4A3318F0495D31FD57
:103A80004052419302D0A9F7EACFB4E0A6959795AA
:103A9000879577956795BA95C9F700976105710580
:103AA00008959B01AC010A2E0694579547953795CA
:103AB0002795BA95C9F7620F731F841F951FA01D24
:103AC00008952F923F924F925F926F927F928F92C2
:103AD0009F92AF92BF92CF92DF92EF92FF920F939D
:103AE0001F93CF93DF93CDB7DEB7CA1BDB0B0FB6A7
:103AF000F894DEBF0FBECDBF09942A883988488864
:103B00005F846E847D848C849B84AA84B984C884F9
:103B1000DF80EE80FD800C811B81AA81B981CE0FF0
:103B2000D11D0FB6F894DEBF0FBECDBFED010895D5
:103B3000F894FFCF30322D30342031313A33300019
:103B400041001815A015C019FF1815A115C819FFB7
:103B50001815AE19FF1815AF19FF1815AE15D516A3
:103B60008015A8163F15D316001540158D1614158F
:103B700020160015A115C815DA1612158116CF15D5
:103B8000D916F115DB1640152E15A415A619FF0040
:103B900001140A6464323200127A0000042896107C
:103BA0000800008000400000182442810018000036
:103BB00000000039090C094E15E2080509F208E376
:103BC0000800000000FA14D2144E154D15550BE0F4
:103BD0000B450B5761746572204C764C00256425AB
:103BE0002500566F6C746167650025645600566F3A
:0E3BF0006C756D650025644C004D007E000074
:107E0000112484B714BE81FFF0D085E080938100F7
:107E100082E08093C00088E18093C10086E0809377
:107E2000C20080E18093C4008EE0C9D0259A86E02C
:107E300020E33CEF91E0309385002093840096BBD3
:107E4000B09BFECF1D9AA8958150A9F7CC24DD24C4
:107E500088248394B5E0AB2EA1E19A2EF3E0BF2EE7
:107E6000A2D0813461F49FD0082FAFD0023811F036
:107E7000013811F484E001C083E08DD089C08234E0
:107E800011F484E103C0853419F485E0A6D080C0E4
:107E9000853579F488D0E82EFF2485D0082F10E0AE
:107EA000102F00270E291F29000F111F8ED06801E7
:107EB0006FC0863521F484E090D080E0DECF843638
:107EC00009F040C070D06FD0082F6DD080E0C81688
:107ED00080E7D80618F4F601B7BEE895C0E0D1E017
:107EE00062D089930C17E1F7F0E0CF16F0E7DF06D8
:107EF00018F0F601B7BEE89568D007B600FCFDCFD4
:107F0000A601A0E0B1E02C9130E011968C91119780
:107F100090E0982F8827822B932B1296FA010C0160
:107F200087BEE89511244E5F5F4FF1E0A038BF0790
:107F300051F7F601A7BEE89507B600FCFDCF97BE46
:107F4000E89526C08437B1F42ED02DD0F82E2BD052
:107F50003CD0F601EF2C8F010F5F1F4F84911BD097
:107F6000EA94F801C1F70894C11CD11CFA94CF0C13
:107F7000D11C0EC0853739F428D08EE10CD085E9AC
:107F80000AD08FE07ACF813511F488E018D01DD067
:107F900080E101D065CF982F8091C00085FFFCCF94
:107FA0009093C60008958091C00087FFFCCF809118
:107FB000C00084FD01C0A8958091C6000895E0E648
:107FC000F0E098E1908380830895EDDF803219F02E
:107FD00088E0F5DFFFCF84E1DECF1F93182FE3DFCA
:107FE0001150E9F7F2DF1F91089580E0E8DFEE27F6
:047FF000FF270994CA
:027FFE00040479
:00000001FF
