:020000040000FA
:100000000C941E140C9446140C9446140C94461430
:100010000C9446140C9446140C9446140C944614F8
:100020000C9446140C9446140C9446140C944614E8
:100030000C9446140C9446140C9446140C944614D8
:100040000C9430240C9446140C94A0240C947A2420
:100050000C9446140C9446140C9446140C944614B8
:100060000C94D2240C9446140000000023002600B7
:10007000290000000000240027002A0000000000E2
:10008000250028002B0004040404040404040202D4
:100090000202020203030303030301020408102007
:1000A0004080010204081020010204081020000012
:1000B0000008000201000003040700000000000027
:1000C00000005F00020204040304050C0BFFFE089D
:1000D000FE08FE016A032C0471200500CC092108EA
:1000E00082C4C991F2082207336D4BB202231087F4
:1000F000447CCAA81C3365548E9932AA012410A5E9
:100100003C6B1E2AA938E28849A5A1230025158A3F
:10011000C49DD44A655523554995544649E5A8726E
:100120005600261188C4AC862A2395A186494B73B4
:10013000A4A5002706316DCA00280BA4B47A8C4A06
:10014000BA754601290AA4B44A46D974C91A2A09BB
:10015000555C6B55AD66042B0B554C6B4671C88CCA
:1001600022002C0742B4C9480A2D06135CCA002E8F
:100170000622C4C9082F0A84C47A99638E390330D1
:100180000E8544DB52238D34D24823A905310984DE
:10019000459B9ABE4600320C8544DB52236929F305
:1001A0003802330E8544DB5223498D461A492D000F
:1001B000340B8544EB95549A636439350D8544CBF3
:1001C0002BA391D14823A905360E8544DB52238FFA
:1001D000A4461A492D00370A8444CBA1638E2E0011
:1001E000380E8544DB5223A9A5461A492D00390E45
:1001F0008544DB52238DA4461E492D003A0752C484
:10020000C988233B0972B4C9882329003C0956CC0C
:100210003B9236D6583D083554CBD070083E0A562E
:10022000CC8BC61A4B1B013F0A8544DBB2A5CCB46C
:10023000094012A93CFD465A6698E248FE543293A2
:100240009A1E11411289433CCAD4C61B468DA21E78
:100250002366A4E608420E8744CC694935A4259557
:100260001C430143108744ECAA47461B6AA8518DE2
:10027000E24800440F88C4CCADA3565A69A5954EF8
:100280006302450E86C4CB25938A23AA28931C2398
:10029000460E86C4CB25934C2A8EA8A21E11470E6B
:1002A0008744ECAA47461BCAA155962B481289449D
:1002B000CD482369A9E518514B2DB51A69044909A0
:1002C00084C4CA48D2D7084A0C86C4EBC81A69E469
:1002D0002BCA094B1189C4CC88769619A90C87467C
:1002E000525B230E4C0F86C4CBC81A69A4914632C8
:1002F000C931024D158B44CEC823ED99549249253E
:10030000995492D18CD652234E1188C48C5E3ACE29
:1003100038524C23C699D54E004F0E8744ECAEF4AC
:10032000C8238FAC729E00500F8744CC694925D5F5
:10033000901A6A3432005113983CEC46396AA595FC
:10034000562349A5D148192A00520D88C4CC2D3D09
:10035000F3D0D235D200530D86C4DB39F2D068E831
:1003600011D702540E86C4CB915C51238D34D22315
:1003700001551088C4CC484B471D75D451479D4743
:1003800004561188C4CC484B479D55462A2395A155
:10039000C61A57158B44CE486A4919CDA8928A2AA5
:1003A000A9BC36D21A6909581088C4CC484BC795E5
:1003B000D1C61BA599D511591188C4CC484B679556
:1003C00091CA50638D351C115A0B86C4CB91F57CB4
:1003D000EB31025B08A334CA50FE1A5C0C84C44A99
:1003E000CE28679433CA015D08A334CAF2D7105EE1
:1003F0000A65546B4679A65A075F061634CB01602E
:100400000623748A14610954C4CA56238D01620EEE
:1004100086C48B461A69641D71C4B50063095544CE
:10042000DB925BA605640E86C4FB461AA931E288FE
:10043000232D0365095544DB52E34623660C85C42E
:10044000EA52498EA8CD9100670D86343B8A533914
:10045000F7D8632400680E86C48B461A69641D7140
:10046000C41105690A84C49AD470BA46006A09A303
:10047000B49ABDBC46026B0E86448B461A69648DE5
:1004800038A2B2066C0884C4CAF46B046D0D5AC459
:100490008D92EA11E5887244036E0B56C48B524765
:1004A0001C7144016F0C56C4DB4872C411D548005E
:1004B000700D76B48B52471C718CA4D106710E77E7
:1004C000B4DB505249A5A6D250A311720954C48A74
:1004D0001A239A00730954C4DA90230E0574097321
:1004E000445A52439902750B56C48B1C71C49196A1
:1004F00001760B56C4CBB2A2CA1A4900770C5944F4
:10050000CDF28A4A65A59109780A56C4CBB2B24E9B
:10051000D600790D76B4CBB2A2CA1AC9AD11007A51
:10052000085544CB25CD317B0AA4B4AA9296966E89
:10053000017C068146CB217D0AA4B48A96B6922E10
:10054000097E0726DCDB520B00000004FFFF0000E1
:10055000600004040505040606172300FA18FA18BB
:100560000103250643094D20060020F80221090356
:100570002F98C20F9825220FA6F0FC469012254412
:10058000041111080023350C2B08D3904143068D2C
:10059000204382CC904143060D193464C48307463E
:1005A000261A3268C890070F4C90183464D09041D6
:1005B00043060D1943820C093200241FCB6BF7D27E
:1005C000C0E94A9D4932E6948503E90F079A3275DE
:1005D00066489A53E5064E0400252E0C2B0807A109
:1005E00024238408192144C8081363888C1C38729A
:1005F000E0C809474E3872E0C8216446981822C501
:100600001029862422010026280C2B081331446867
:100610008810193464E4D09103CB153B756AC4107B
:1006200013248C8C30A226A3126388A84994002737
:100630000BA3EC9C4608134142002818E672F88E82
:10064000A02163868C9964CCFCD19889C60C1A23AE
:100650000200291AE676F8C2984163068D9968CCA3
:10066000FC84C89821448610192406002A144A6D77
:100670000C934051224434316444851483040A02AB
:100680002B0E296DF9CEB0691EB019360D002C0A5B
:10069000A3AC97420A1121002D0869ECF9C20306A8
:1006A0002E07632C9842022F200B2BF8E274E406ED
:1006B0008E233770DCC0E9068E2337701CB981E3C6
:1006C000C80D1C476E200030170C2BF81231344A2D
:1006D000068D1866FF3F1B3168881A648400310F4D
:1006E0000637F8CE24241E901833FFFF0032210C69
:1006F0002BF81231344A068D1866B36203090E24B2
:10070000477020398203090E2447F0C10303331ECA
:100710000C2BF8C20706C9111C488EE04082C60E99
:100720009224394F42A121A206192100341F0C2B1B
:10073000F8D2C809474E4870E48404470E1934645F
:100740000C9131D33C78606CE4DC00351D0C2BF847
:10075000C20729E74519252B088D18666CE42C8DF6
:10076000193B34440D324200361F0C2BF812313441
:100770004A068D1866E52CCA28594168C430FB6CBE
:10078000C4A0216A901102371C0C2BF8C207A9AE35
:100790001A3990C29103098E1C48E1C881148E1C3D
:1007A00048150038200C2BF81231344A068D186693
:1007B000CF460C1AA2068D0A422386D9D921126A85
:1007C00090110239210C2BF81231344A068D18662B
:1007D0009F8D184462899A1223A734666CC4A021A5
:1007E0006A9011023A09A3ED98427A60093B0C0322
:1007F0006E98427A90294484003C12C731F95A28F5
:1008000031442819246A105553090B3D0D2B29F941
:10081000C207E3A179F060003E16C731F9423051BA
:1008200084A81A25680C11226306890A06003F1B5A
:100830000C2B081331344A068D18666CE48403C906
:10084000D170E47C0F6CE45400404395AB96DFE13B
:1008500095ED4A952249862C914147469041722652
:100860008D9969CC4C63661A33D39899C6CC34669B
:10087000A631338D9969CC4C63E6019926834A945D
:10088000210F863C98F2401C365D030041290C2B59
:10089000F8D2C89104C9D5CE98A911A3468C1A31B3
:1008A0006AC4A82163888C999B344A548C1A316A93
:1008B000C4A811C30642290C2B0803A2344A06918E
:1008C000183562D48861A6468C1A31888412252B8B
:1008D00006911875CCAE460C22A1240D22004319B6
:1008E0000C2B084F31342A088D1866E5FC9F191B24
:1008F0003188841A64650044150C2B080322252BCB
:10090000468D1866FF7F35628512440045130C2B17
:1009100008C30729E79769B219395F3E7860004636
:10092000110C2B08C30729E79769B21939FF120088
:10093000471A0C2B084F31342A088D1866E57C9332
:10094000333B1B3188C41245240648100C2B08C3C6
:1009500030FBCF1E3C6066FF6C004908032F98C235
:100960001F304A120C2B08E7FCFF4B63C60E0D51DB
:1009700083AC0C004B2F0C2B08C3A84324060D1985
:100980004364CC246446101A31EA943163E5CA19F1
:1009900033766AC4A811848690990D914143468D9F
:1009A0001845004C0E0C2B08C3C8F9FFBF7CF0C0E3
:1009B000004D200C2B08C33053881025D1E4C1070B
:1009C0002B48982061828411214684180963CC3E0B
:1009D0001B4E1F0C2B08C3B05357214294261B25D6
:1009E00026869818626484911146D4E408AB9B0D66
:1009F0004F170C2B081331344A068D1866FF3F1B26
:100A00003168881A648400501B0C2B08C3A9344A2F
:100A1000069118356298BD1A3188849234A746CE63
:100A20005F0251160C2B081331344A068D1866FFED
:100A30003F1B3168889A540852270C2B08C3A934ED
:100A40004A069118356298BD1A318884923469E655
:100A5000D1904143060D193562D4885123860D5338
:100A6000200C2B084F31344A068D1866E5D09124AE
:100A70000BD692E4D091C68C1D1AA20659190054C7
:100A80000E0C2B08C3078646CEFFFF150055120C2F
:100A90002B08C330FBFF9F8D1834440D32420056A3
:100AA000250C2BF8C2305323468D183564D0904165
:100AB00043C6CCA32183860C1A3268C4A811C3ECA8
:100AC000AC203D0257250B2BF8C228FB9320468211
:100AD000180962628489112646B848921312444864
:100AE00010214164CC90312300582B0B2BF8C228E5
:100AF0005387468C213166C89849C68C1834629455
:100B000055C5AA3A3462D0884143A6193266C8183E
:100B100044A64C0D59260B2BF8C2288B488C193251
:100B200066C81022138D1874C8943172D40D1C47F6
:100B30006EE0387203C70D1C08005A200C2B08C346
:100B40000706090E243890E0C88123078E1C3872EE
:100B500020C1810407127CF0C0005B0D0733F8C28E
:100B60008344F3FF8F1E185C1A0B2BF8C2C8815305
:100B70000E1C4870428213129C90E0840427243893
:100B8000015D0D0733F8C20343F3FF8F1E245E0B94
:100B9000896CFE0EA13223A6195F074FA0F7C2078A
:100BA000600AA5F4FDC29031D30861214E2A185382
:100BB000C16389C890193566D4D8A9D26C426AC875
:100BC000B021C3861022D3848D910162190C2B08A9
:100BD000C3C8F98290921584460CB37F7668C40A24
:100BE0002523080163184C2A081331344A068D184E
:100BF00066E57C666CC4A0216A90110264180C2B17
:100C000008E77C4462888A15838ED93F1B3188C4EB
:100C10001245240665194C2A081331344A061DB3BF
:100C2000ECC10396330B3368881A64840066130C96
:100C30002B0857B14369E6E5CC566C3472FE670069
:100C400067200CAB061312152B068D1866B31183A3
:100C500048A841746AE49468543CB3EC851A2400B3
:100C600068130C2B08C3C8F98290921584460CB304
:100C7000FF6703690F052B98C290E981CCFF4F4AAB
:100C800010196A13C9AFF6DAECA11936FFFFCC8C44
:100C90001916678A006B290C2B08C3C8F9EAD48897
:100CA0004124C61019330999218346101A31EA14D8
:100CB000224469888C2142641089512346116C0EAC
:100CC000062BA8C298F9FFBF315184006D31552A17
:100CD00098C3085284542079508250A111C38619B8
:100CE0001B666C98B161C686191B666C98B161C6AB
:100CF00086191B666C98B161C686199B006E114CF3
:100D00002A08C308424A56101A31CCFE9F0D6F16AE
:100D10004C2A081331344A068D1866FF6CC4A02192
:100D20006A901102701A0CAB06C308424A56101A98
:100D300031CCFED9A1112B948C2034725E02711833
:100D40000CAB061389212A560C3A66FF6CC420129C
:100D50004B149118391F720F492AD8C288074CCCFE
:100D6000189BFF3300731A4B2AF84EA93329C89CED
:100D70003275F0D485044D993A4322CDA9320074DE
:100D8000130827A8C6A879F420C5A8F9AF481931D7
:100D9000440075114C2A08C330FB7F366210892548
:100DA0008A480C76254C2AF8C2305323468D1835D4
:100DB00064D0904143C6CCA32183860C1A316AC407
:100DC000A811C32C2B5708007741552A88C32862E5
:100DD000A6488D18456AC428522346911A32C6D0B7
:100DE000903166A631338D99590C193482C49041E3
:100DF00023868C183562C8885123868C1835628CFE
:100E00003133C60A952B54080078234B2AF8C228A0
:100E10005323C60C1933C5A011A38A951B38AE58AD
:100E2000A91183468C9964CC8851A60679270CAB0E
:100E3000F6C6201283860C1A334FC80C193464D4BA
:100E4000885123469D3266AE7604494E1584D0A95A
:100E500063E4007A174C2A08C30706C9111C488EA0
:100E60004272140E2447F0C103037B18892FF7DA6E
:100E7000284265480D9BAF0851458CB2F919B15213
:100E8000C4067C07C37BF7C27F7D18892FF7C23069
:100E900052C588CDCF684588AA61F3159942A486CA
:100EA000017E0B8DE4F9C29822DC90197F060020A8
:100EB000F80200000004FFFF0000DF000303040449
:100EC0000303050808000008000800000D01AB0935
:100ED0008D400D782C5E3D18BA0443F15801410C49
:100EE000782C5E3D12BDA4C6630542085536C65037
:100EF0004D0143095535D644245303440E782CC67E
:100F0000210EB2830E71900500450E782CC6210E7D
:100F1000B1C30E71880900460D782CC6210EB3436B
:100F20000E71980147108824DE2C329A11C592B8B0
:100F300064161101480A85255630A7CA2C04490FAA
:100F40008824164D241999C843894846024A0F88B7
:100F500024164D321195C5238A6446024B0F88240E
:100F6000166D22218DC525C94446024C0F882416D2
:100F70004D24118E49A6894846024D0B58345658C7
:100F80007A88C8A3004E0B58346E5C72888A43007E
:100F90004F0A84268E48178A2C02500A483456F885
:100FA00070084501510A4834AEE470088700520ABF
:100FB00084264E684211E902530A8525566C520A6E
:100FC000E604540E58344E3012968422925064280F
:100FD00055128724664A301291A44832459222E184
:100FE0001000560B742E8EE410118B2400571188BC
:100FF00024162D2609D242A21831228B91005811B5
:10100000782C465012944454222A1195F821005904
:101010001288249E581A0A1D22A688241491842C12
:10102000005A0C682CC6251A89AE462E005B0A6849
:101030002CC6E5E14172015C0F88248E2D140CC58D
:1010400044A260E4F0305D0D88249E94C86639C4E3
:101050008132005E0E85255650228A8C26A2902C65
:10106000045F108824864DA4C92493C824B2830445
:1010700000600B652D56307688054300610A872491
:1010800006A9E9F0203E6208742EC6075200630BE1
:101090008824C6210E191DFE10640E8824163114F2
:1010A0003A3CCC21878300650C8625962C941AA4A3
:1010B00005A306660C8824C641123C8C351F0467C4
:1010C0000C88247E543A154A17A700680B772C5ECB
:1010D0007474A9ACA82C690E772C764CE212A1840A
:1010E00062A120006A0F8724C6212A3D48522C9213
:1010F0009443006B0D8724C6FB21927290440E032B
:101100006C0F8824A6947290882A128AA474186D91
:1011100008363D868526026E09632F56E4101105B8
:101120006F0A632E46487288840070073635968CA5
:1011300062710C682CC6DC46A443431100720A6835
:1011400034464D2CB9D41A730C682C7678129AD880
:10115000A84200740C58344E30329AD8A832007528
:1011600009642E964449A600760A85254E6CD36400
:101170002D0677094635968C221A06780E88241695
:10118000CD5231D10E141B0900790E882416CDA240
:10119000523255546C24007A0B87245ECA447AF884
:1011A00021007B0F8824162D1809AB85C491608C13
:1011B000047C0B682CDEB064391C24077D0E882467
:1011C000DEB064995522C2F038067E0E8824DEB067
:1011D00064A1D884E1710C007F0E8824CE702A1996
:1011E000962C8783E4008010682C6E2C14490B89A0
:1011F0006291A4581400810E88249ED06419992607
:1012000026A30C00820B8824C6831C28C77C088375
:101210000C882446745B641699AE0A840C88248674
:10122000744B6C129BAE06850C8824C6218E590E19
:101230003C1C048610772CC684927208454287486D
:101240000A65008708782CC63FD8038811882416C1
:101250002D18094644BA0423C1180900890E8824B0
:10126000166D14A1758B8C6224008A0E8824C62109
:101270000EA9A31EE2104B008B0D682CC6210E395F
:101280001C269143018C1288244EF4108A89524204
:10129000915048163A47008D118824162D18094B95
:1012A000421191A6483046028E0B88249E58952AFA
:1012B000473D048F0C8824C6218E2AA58AD500902C
:1012C0000C682C9645A56492A8840C910E682C1687
:1012D0002D1809A95042541900920F8724C6701284
:1012E0008A4424C3C8C17810930B852556C846A4E8
:1012F000994200940B5834C6C8A926098600950A5D
:10130000582C5630222B390D960C682C8E8C2609C1
:1013100086464E03970D682CC6C869148CC868129F
:1013200000980C7625968C72B058261400990D788A
:10133000249E946639C4218783009A0A642E8E8481
:101340000EA148009B08283C864442519C0D682C05
:10135000C621620989488743019D0F88249E502435
:10136000094B282211E970289E0C87241E291AADEA
:10137000458B71029F0D782CC61D54071EE2906CA0
:1013800000A00C8824C6210E94633E1C04A10C8886
:101390002446744B6C129BAE0AA20C882486745BA4
:1013A000641699AE06A30B8824C6831CB31C780868
:1013B000A40B8824868CC8969E7C10A50E682C16DB
:1013C0004D249184289A642400A61188245E6448E0
:1013D0008B8C62A1586414234E01A70C8724C6701D
:1013E000129A4886870FA80E87245658B8121955A6
:1013F0004A930801A90F8724466414B15022941817
:10140000391900AA0C742E8E28448A45262200AB76
:101410000B8824C6F410871C7E28AC0D8724C6C414
:1014200065120B55868B00AD098824C6741DEB062A
:10143000AE09662DC66C79B600AF0F8824164D2410
:1014400091116946892C4602B00B782476E2301C53
:10145000473904B10D772C46247B247B247B24035D
:10146000B21088248644425187A850D4212A1405FA
:10147000B30B8824C6C8698E34721AB40A8724C68E
:10148000EF87CA2100B50F772CC664120BC542A5A1
:1014900058281659B60E782C164D240A868211212A
:1014A000A300B70D682C8E487238486C541900B8E8
:1014B0000B762D968C7238984802B90B8824C64159
:1014C000AC4C733A08BA0B8824C6C35879783810E4
:1014D000BB0C48348E4812D214114900BC0A842631
:1014E00096E22C148B0DBD0D8724566D28154A8568
:1014F000B31200BE0E782CC6210E39C4218738C81D
:1015000002BF0E782CC6210E39C4218738C404C00E
:101510000E782CC6210E39C4218738CC00C10E8824
:1015200024E6501413852C26DA740AC20E682C8E19
:1015300029180A868291D18100C30F88240691253B
:101540004489474294789000C40C85259664689C31
:10155000CC212100C5138824564825140FC542B15B
:10156000503C1411894200C6118824AE1C1213A5E8
:101570008562A1902C0E9102C70E782C46C40E896C
:10158000D821113B2462C80E782CC6E43A998326F0
:10159000D7C90400C90B662DA6E820A2494300CA9A
:1015A0000A762D962C94E5F030CB0B8625962C14DC
:1015B0004D393C0CCC0E782C76E4208DC3A2074923
:1015C0001800CD0E682C9654168AD94231A908000D
:1015D000CE0F88248E29180FC56CA178306401CFF6
:1015E000108824D630168A46A291682826330BD05C
:1015F000108824C6412C194992242351847C10D18F
:101600000D762D0E4534148E24341100D208662D2B
:1016100086884F02D30A652D467074300501D40ABE
:10162000662D0EE5F030A100D50E672D562C22AAAE
:10163000582622512C00D60E672C462CA432B19489
:1016400024B11000D70A672C867046712306D80B88
:10165000672C469066B1D08602D907662DC61F0258
:10166000DA0C8824169174F840229200DB0C78245E
:10167000C6218E7488231D02DC0E8625965014D157
:10168000329210631400DD07283CC68300DE0C880C
:1016900024C641ACF920135A00DF0B77248E7091D9
:1016A00076B18900E00A772C5E38ED164E03E10D25
:1016B00088245EC9140C054321AF00E2118724A6DB
:1016C0003094168945324564A2D80C00E30B772488
:1016D000761C269C2D4A01E40F88246E30249A88BB
:1016E00026C1A02CF206E50D88249E94C82A8C49B8
:1016F0000E0701E6098525864DB70301E70F88240B
:101700009658128DA8994A34E20800E80B772C4EBF
:101710006D38BA85D300E90D882416CD3239B95019
:101720006C2400EA0C88249E58ED709089D500EB5B
:101730001087245E3818C914924A23B1D80800ECE7
:101740000E882416910E3B882594109104ED0E7896
:101750002C465822138B9465127100EE0C58345E9F
:10176000584C9A50243100EF0D8824965868321D49
:101770000E244D00F00E8526CE24168CC5647150C3
:101780000800F10F8824DEB06439CC6629D92249DB
:1017900000F210882476443691A489A59214D93891
:1017A00002F30E8824162D38A4A743E2101200F489
:1017B0000B8824EEC65828385D05F50D8525566C36
:1017C000520A862AB31000F60E5834569A48728888
:1017D0008864A11000F7128824CE5C288A4A4292BD
:1017E00088481299A48C01F80F8824C6B44A124D77
:1017F000283209494251F91088249629428A90E2F8
:1018000095482552B900FA0C68346E5C66B1C8423E
:101810007100FB0D782CC63456A2C413432600FC7D
:101820001088249E6C52AB5142A3D02C229501FD0E
:101830001387247630128C84224991882445922281
:10184000C900FE0B85255668541A053301FF0F8722
:10185000254E44168E8CC2114A741A0500000004ED
:10186000FFFF01001087254E84128E8CC21159741F
:101870001A0501010F782CC641123C4C828749F0B1
:101880002001020B562D96C84222A50001030D66C9
:101890002D46302423D144C10001040B8724C621E6
:1018A000AAEBE11001050E772CC630140BC9DA88BB
:1018B000120001060D473C862825141A85440101B3
:1018C00007158824162D1809A98422925044248AC9
:1018D0000463240001080F772C46292A8C84445184
:1018E000E9210001090E8824C64172885864870FD7
:1018F00005010A0D8824C641248A89752501010B3A
:101900000F772C468412A1442C35A93804010C0D04
:10191000772C665429E242895000010D118724D6A4
:1019200070168D4544216924161B01010E0F782C79
:1019300076E4108EC3C287481800010F118724D6A1
:10194000E80EC914498A2445922A000110118724FF
:101950008E28240A8942A2902836071D01110F788B
:101960002C869045429150D421870001120F782C8B
:101970008690A20E39C4212A4401011310782CC686
:10198000210E51A148281222510001140C5834860E
:10199000C97238444E0001151188245E582221591D
:1019A0002295484945180401160C86255E50C4D27C
:1019B000280D0101170B84265EE87020C90201186A
:1019C0000F87245E743893C424A2CAE43001190D31
:1019D00087244E251A07CD519500011A0D882466DB
:1019E00058B9541A4EC500011B1188244E30329A42
:1019F000D88834CB68128C00011C1087244634121E
:101A00004B09DD62B7700C00011D108824D630161A
:101A1000CA12992465939905011E118824D630169F
:101A20008A462293D4504C661600005F00030203DE
:101A300004030504050A00FE07FE070001420288B0
:101A400003B6200500620721073943C7A004220717
:101A50009B52476209230E3D424F294906A5322871
:101A6000A52401240C3D4257B6D4B624D922002522
:101A70000C3D424FA474ABB4480900260D3D424FC3
:101A80009644495649A4480927061953C70028080F
:101A9000BB425752AA152909BB424756AA94002AAD
:101AA0000A2D4647965406A52D2B0A2D4657180D8C
:101AB0005218012C079B3E8F52022D060D4EC72057
:101AC0002E089B3E4FB224002F083D4267AD6308AD
:101AD000300B3D425796D46C492D02310A3D425796
:101AE000262561D320320C3D42CF92859194858387
:101AF00000330C3D42C7206699AA250B00340C3DEB
:101B0000425F2625A564D0C204350B3D42C7313162
:101B1000855AB200360C3D4297948589494B160090
:101B2000370B3D42C720666156CC00380C3D42CF92
:101B30009269C99269C902390C3D42CF92498A1211
:101B40006691043A0ABB3E4FB2A4C992003B09BB5E
:101B50003E4FB2A44A093C08BC425FD4D8003D08BD
:101B60001D4AC7A00E023E08BC4247D8D4063F0A11
:101B70003D42CF9235E65004400C3D42CF92494B56
:101B800062491700410C3D425796D4B461C8B40075
:101B9000420D3D42C71055A264AA448302430A3D48
:101BA00042CF92896DC902440F3D42C71055A2240D
:101BB0004AA2241A1400450B3D42C7311C92301C26
:101BC00004460A3D42C7311C92B008470B3D42CF44
:101BD0009289A52D5900480A3D4247661B86CC16BE
:101BE0004908BB42C71275194A0A3D42D716B64486
:101BF00091044B0D3D42472625252D892A59004C3D
:101C0000083D4247D8E3204D0B3D4247A62D4BA24D
:101C1000D9024E0C3D4247A64D4A226D5A004F0A4A
:101C20003D42CF92794B1600500C3D42C79064DA8A
:101C3000A0844500510A453ECF9279A9AC01520DCE
:101C40003D42C79064DAA0942A5900530B3D42CF1D
:101C500092A9AB962C0054093D42C720853D015501
:101C6000093D4247E65BB200560D3D4247664B4A8E
:101C70004994641100570A3D4247E69228C92D58FD
:101C80000B3D4247A625B54A4D0B590A3D4247A692
:101C900025B5B0095A0A3D42C720661D07015B08F9
:101CA000BB42C710751A5C083D424798760C5D0828
:101CB000BB42C7D469085E081D525796D4025F061E
:101CC0000D3EC7206006125B4714610A2D42CF9A71
:101CD0000C5A3204620B3D424758316993A20063AB
:101CE0000A2D42CF928959B200640A3D4267C5B4B9
:101CF000498A12650A2D42CF920D43BA00660B3D08
:101D0000429754C98628AC01670C3D3ACFA069C9F7
:101D1000106AC902680A3D4247583169B60069082D
:101D2000BB424F28B50C6A0BCC3A5FACD524295185
:101D3000006B0B3D4247589392A992056C08BB4239
:101D400087D4CB006D0B2D4287D2A2244AA2056E08
:101D5000092D424762D26C016F092D42CF92D99270
:101D600005700C3D3A4762D22645094300710A3D91
:101D70003A8F699314252C72092D424762128B0009
:101D800073092D42CF921E1400740C3D424F980DE2
:101D900051588A140075092D4247E6A42801760B94
:101DA0002D4247A625A5248B00770A2D4247664978
:101DB000942E00780A2D424796D42AB500790C3D1E
:101DC0003A47665294504B16007A092D42C7A0B587
:101DD0000D027B0ABC4297122662140A7C06394324
:101DE000C7217D0BBC428718854A9848007E091D93
:101DF000524FA424520200000004FFFF00005F00C5
:101E000003020304030504050D00FE09FE0AFF0199
:101E10005F02C404032005006E0721074943C72160
:101E20000922079B5A476209230E3D464F2949065E
:101E3000A53228A52401240F4D4257362851926D12
:101E400049940C5A04250D4D424FA474CC8A498BF9
:101E50009400260E45424F9644495689A2295202C3
:101E60002706195BC700280BDB3E57122551B72800
:101E70000B290CDB3E47166551972889002A0A2D4D
:101E80005257A5B23445002B0A2D4A57180D521847
:101E9000012C079B3E8F52022D060D52C7202E08A3
:101EA0009B3E4FB224002F0B4D42672DCC8A591810
:101EB00002300B4D425796D4BC25B508310B4D422C
:101EC000572625614F8300320B4D42CF926961D670
:101ED0007110330C4D42C72066B535D49205340FCE
:101EE0004D425F984949949492410B1300350C4D33
:101EF00042C7B1620A432D5900360D4D42CF928937
:101F0000E19064B66401370C4D42C72066611666E5
:101F1000610D380D4D42CF92D99225B3250B003972
:101F20000D4D42CF92D992210CB564013A0BC33EBC
:101F30004FB2E448B224003B0AC33E4FB2E4885299
:101F4000023C084D4267D6B5033D09254AC7A06348
:101F500083003E094D4247DAAD23003F0C4D42CF8E
:101F600092696156CCA108400D4D42CF929996449A
:101F7000492CE910410C4D425796D46CC390D902BC
:101F800042104D42C71055A2244AA64A94448302E7
:101F9000430B4D42CF9289BD250B0044124D42C7E1
:101FA0001055A2244AA2244AA2241A1400450B4D1B
:101FB00042C7B13824617110460B4D42C7B1382475
:101FC000612300470C4D42CF92894D9B962C0048CF
:101FD0000B4D4247E6360C995B004908CB42C712CD
:101FE000F5654A0B4D42D716F6124512004B0D4DC2
:101FF0004247664A4A5A1255322D4C094D4247D83B
:102000008F83004D0D4D4247A62D4BA2249A5B00B5
:102010004E0D4D4247364D4AA224D24D0B4F0A4D2C
:1020200042CF92F92D5900500C4D42C79064B641F1
:10203000091B01510A553ECF92F9A5B206520D4D2A
:1020400042C79064B6412955322D530C4D42CF9270
:1020500089E91A6AC90254094D42C72085FD045511
:10206000094D4247E66FC902560D4D4247E6969428
:102070009228C9C208570D4D4247E62551122551F5
:10208000BA00580E4D4247A625A524AB44494D0B36
:10209000590C4D4247A625A5240B3B015A0C4D4235
:1020A000C720666156CCC2415B09DB3EC710F5A76D
:1020B000015C0B4D4247988669310D035D09DB3E9B
:1020C000C7D49F86005E081D5A5796D4025F060D3E
:1020D0003EC720600612634714610B3542CF9A0C4D
:1020E0009AA42801620C4D4247581C92CC6D5000B6
:1020F000630A3542CF9289B56401640B4D4267CBC8
:10210000A0B9254300650C3542CF920D4398250BAD
:1021100000660C4D42975409B3210ADB00670C4559
:102120003ACF92D99221D49205680A4D4247D8629B
:10213000D2DC026908C3424F2875196A0B543A5F12
:10214000ACB54952A2006B0D4D4247D89494B424CB
:10215000AA64016C08CB4287D42F036D0D354287EA
:10216000D2A2244AA2245A006E0935424762D2DC28
:10217000026F0A3542CF92B9250B00700C453AC761
:102180009064B641098B00710A453ACFA0D99221DB
:102190006C720935424762121B01730C3542CF92B3
:1021A000256A92250B00740C45424F980D51D814A6
:1021B00029007509354247E6495102760B354247F9
:1021C000664B4A491601770B35424766499444E904
:1021D00002780B35424796D4C22CA905790C453AB2
:1021E00047E6A428A1962C007A093542C7A0751CA1
:1021F000047B0B5D3E9F1436A961AB007C0649430E
:10220000C7037D0B5D3E871AB64A6193067E091DA2
:102210005A4FA424520200000004FFFF0000600097
:10222000030304050406060F1700FC10FC1000024F
:102230000A040005FF20060010540121080215348D
:10224000F1A144220934B65521998802231E0813AE
:102250005427114D4492916424911C0E928948E5B3
:102260007090A8496412D144A404241448D353277D
:1022700096D22CA322799F89A5898D2A96012518AB
:1022800008135423B348282255B1AA582A5615A931
:102290004822129B04002617081354372CC92432F5
:1022A00089783A244A641209C9CD3439192707328A
:1022B000B435510128100417541593885444FA2654
:1022C000128D22002910041754139289D444FA2243
:1022D000928C42002A12787255278C48228710E986
:1022E0001089488232002B0C66745425141D4A4212
:1022F00011002C0732F43341092D0726B4547128FC
:102300002E06221434412F140813542D9D8AA553F0
:10231000B154AC2A964EC5D22900300F081354454B
:10232000B38C8AFCC7D2C44602310B041754253A39
:102330005044FA1F321408135445B38C8A6C53E985
:10234000702A9DAA4E0F07013312081354F1209DE5
:10235000AAAE92C79A4B131B0900341208135427D4
:10236000156B156B11E9743808C54A00351308134D
:1023700054F14056365D4645B132B134B191003624
:102380001408135445B38C8A64B1E9322A722C4D77
:102390006C24003713081354F140A44DC5AA53B15F
:1023A00074552C9D0A01381508135445B38C8A8C3A
:1023B000A589C9322A3296263612003914081354D8
:1023C00045B38C8A1C4B9393594C2C4D6C24003A8A
:1023D000089254344187113B09A234344187510299
:1023E0003C0D95765C19932C05674361003D0967A8
:1023F000545CF10E3F1C3E0E95765C1114CE86A106
:10240000C95210003F1208135445B38C8A62E97018
:10241000AAAC3B5C2C0340293E9383693F4487B3BD
:10242000B964542299484A242592124989A44452F5
:102430002229910EA643680E9D430FE243080041F6
:102440001308135427160F7994C824229D4C17198A
:102450009128421408135451BBC824426E12D3452C
:1024600056E426B9D400431008135445B38C8A644B
:10247000FDB134B19100440F08135461BAC88AFC0D
:102480006F87890900450F081354F140D6D96412AB
:10249000EB7C3808460E081354F140D6D96412EB91
:1024A0003300471108135445B38C8A649D1C194BA3
:1024B000939301480D08135421E4C7C3C1C88F0288
:1024C0004908021534F103014A0D081354ADFF9970
:1024D000589AD848004B1A08135421AB4944139119
:1024E0008AAC469C4E8935894CA434914964034C8E
:1024F0000B08135421D6FFF3E1204D130813542188
:102500002C391D7E904828128A84C8A3004E1308D7
:10251000135421ACB5994C178A8422A19CDC3A0A49
:102520004F0F08135445B38C8AFCC7D2C4460250DF
:102530001108135451BBC82442DE24979A58CF0087
:10254000510E08135445B38C8AFCC7D2E46452156B
:1025500008135451BBC82442DE241793DE24328969
:102560004C2214531108135445B38C8AE47D2696EB
:1025700026361200540C081354F12013EBFF0D0003
:10258000550D08135421E4FFB134B19100561708DA
:10259000135421244A64129944A437894C22AB1164
:1025A000A95B6500571107155C21E34B8412A14418
:1025B00028875F5C0658150813542194C824226D9F
:1025C00012598DC8B13411E98D28591708135421B7
:1025D000948826225D6644E2742C154BA762E914A8
:1025E000005A15081354F120968AA562A9582A9614
:1025F0008AA5E2C341005B0B05175471A8E97F3B34
:102600000C5C110715542155964AA7AA53D5A9EA7F
:1026100054005D0B0515547198E97F3B145E093633
:10262000145625A388045F071AF053711860083305
:10263000F8552111096115C9125C37AD29C9E43279
:10264000D34528114A84A2438822621108135421D9
:10265000D66CBA8C8A7C2C1D2626006310C81254B6
:1026600045B38C8A641D4B131B0900640F08135477
:10267000AD93E5302AF2B13439196512C8125445C8
:10268000B38C8AC4C3C12C1E4D6C2400660F081382
:102690005447336956BCDCC4FA11006716089353DB
:1026A00065398C8AC4D2C454138B2D8721F130B183
:1026B00000680E08135421D66CBA8C8AFCA30069FA
:1026C0000C03133421914BF42F13016A0F469553D9
:1026D000A98E24D4FF483A4428006B1808135421CB
:1026E000D6AD26114D442A3289AC6D229A4C641223
:1026F000D9006C0B04133421D2FF1365006D1BCE7F
:10270000128461221D2C23525148141285442151F8
:1027100048141285442151016E0CC8125461BA8CC0
:102720008AFCA3006F0FC8125445B38C8A7C2C4DD1
:102730006C2400701108935361BA8C8A7C2C1D267E
:1027400026B16600710F08935365398C8A7C2C4D35
:102750004E661D720BC61244F11021EA8F007310F1
:10276000C7124C35ABC89889641A4D521B01740EC0
:1027700005133C23D37498C8F41B6900750CC81268
:102780005421E41F4B9393017613C8125421244A19
:102790006412D144A43789AC4664027720CE1284F7
:1027A0002114126712D94C22A24944242592524581
:1027B00026D14692C84844129144027814C8125453
:1027C000219488262219912A961269222D42017994
:1027D0001B0893532393C8243291642491496412B3
:1027E0009944489C6E8B8C8A43007A11C81254F12C
:1027F000201D4EA5C3A974383D1C047B1026D5535B
:10280000291B09751BCD8643BD0E057C0842D95393
:10281000F187027D1026D553215CD4EB6C24D46D56
:102820003413027E0929D25471081D027F0600105C
:10283000540100000004FFFF0000F12511241FBE19
:10284000CFEFD8E0DEBFCDBF11E0A0E0B1E0EAE518
:10285000FDE502C005900D92A43EB107D9F724E032
:10286000A4EEB1E001C01D92AB38B207E1F714E16C
:10287000CEE1D4E104C02197FE010E94B92BCD31F5
:10288000D107C9F70E94F1260C94AB2E0C940000DE
:10289000662329F06A3019F0862F90E008958FEFB3
:1028A0009FEF0895AF92BF92CF92DF92EF92FF9287
:1028B0000F93CF93DF93EC01DA017901942F977096
:1028C000E1E0F0E09F01092E01C0220F0A94EAF72F
:1028D000522F6E018AE8C80ED11CF601808140E0BB
:1028E000823018F4422F813049F15D01F8EFAF22B8
:1028F000E8ADF9AD28813981D90150968C918A9D36
:1029000090018B9D300D1124620F731FDF01A60F04
:10291000B71F01111AC0EA0EFB1E8C91842B85276C
:102920008D93AE15BF05C9F7DF91CF910F91FF9041
:10293000EF90DF90CF90BF90AF90089550E0D5CF4B
:10294000440F550FE114F10479F33C91342B3527F2
:102950003C939F5F9770E1E0EE1AF1089111F0CF80
:102960002CAD3DADA20FB31FF6018081823028F45B
:10297000813009F051E041E0E5CF51E0E3CF80E064
:10298000089590E080E008958093830408959B016A
:10299000DC011896ED91FC9141E067E109948330E8
:1029A00081F028F4813099F08230A9F008958730C1
:1029B000A9F08830C9F08430B1F4809180008F7D17
:1029C00003C0809180008F7780938000089584B544
:1029D0008F7784BD089584B58F7DFBCF8091B00043
:1029E0008F778093B00008958091B0008F7DF9CFEC
:1029F0001F93CF93DF93282F30E0F901E255FF4F6B
:102A00008491F901E656FF4FD491F901EA57FF4F3F
:102A1000C491CC23A9F0162F81110E94CF14EC2F62
:102A2000F0E0EE0FFF1FE458FF4FA591B4918FB770
:102A3000F894EC91111108C0D095DE23DC938FBF80
:102A4000DF91CF911F910895DE2BF8CFCF93DF93C5
:102A500090E0FC01E656FF4F24918A579F4FFC01FE
:102A600084918823D1F090E0880F991FFC01EE58E3
:102A7000FF4FA591B491FC01E458FF4FC591D4914B
:102A8000623071F49FB7F8943C91822F8095832334
:102A90008C93E8812E2B28839FBFDF91CF910895DF
:102AA0008FB7F894EC912E2B2C938FBFF6CF3FB7B6
:102AB000F8948091780290917902A0917A02B09175
:102AC0007B0226B5A89B05C02F3F19F00196A11DDA
:102AD000B11D3FBFBA2FA92F982F8827BC01CD0168
:102AE000620F711D811D911D42E0660F771F881FC7
:102AF000991F4A95D1F708958F929F92AF92BF92F6
:102B0000CF92DF92EF92FF926B017C010E945715EA
:102B10004B015C01C114D104E104F104B9F00E943D
:102B20005715681979098A099B09683E7340810520
:102B3000910580F321E0C21AD108E108F10888EE7E
:102B4000880E83E0981EA11CB11CE4CFFF90EF908B
:102B5000DF90CF90BF90AF909F908F900895089591
:102B60000895AF92BF92CF92DF92EF92FF920F93B0
:102B70001F93CF93DF936C017B018B01040F151F13
:102B8000EB015E01AE18BF08C017D10759F069917B
:102B9000D601ED91FC910190F081E02DC6010995DF
:102BA000892B79F7C501DF91CF911F910F91FF908C
:102BB000EF90DF90CF90BF90AF900895FC01538DC0
:102BC000448D252F30E0842F90E0821B930B541707
:102BD00010F0CF96089501970895FC01918D828D94
:102BE000981761F0A28DAE0FBF2FB11D5D968C912D
:102BF000928D9F5F9F73928F90E008958FEF9FEF6C
:102C00000895FC01918D828D981731F0828DE80F27
:102C1000F11D858D90E008958FEF9FEF0895FC01E1
:102C2000918D228D892F90E0805C9F4F821B9109AE
:102C30008F73992708958CEC92E00E940F1621E083
:102C4000892B09F420E0822F089580E090E0892B01
:102C500029F00E941B1681110C9400000895FC01BC
:102C6000A48DA80FB92FB11DA35ABF4F2C91848DED
:102C700090E001968F739927848FA689B7892C934A
:102C8000A089B1898C91837080648C93938D848D9D
:102C9000981306C00288F389E02D80818F7D8083A0
:102CA0000895EF92FF920F931F93CF93DF93EC0160
:102CB00081E0888F9B8D8C8D98131AC0E889F989E3
:102CC000808185FF15C09FB7F894EE89FF896083E6
:102CD000E889F98980818370806480839FBF81E067
:102CE00090E0DF91CF911F910F91FF90EF900895A9
:102CF000F62E0B8D10E00F5F1F4F0F731127E02E84
:102D00008C8D8E110CC00FB607FCFACFE889F989BB
:102D1000808185FFF5CFCE010E942F16F1CFEB8D7C
:102D2000EC0FFD2FF11DE35AFF4FF0829FB7F8948F
:102D30000B8FEA89FB8980818062CFCFCF93DF93AD
:102D4000EC01888D8823B9F0AA89BB89E889F989C3
:102D50008C9185FD03C0808186FD0DC00FB607FCF8
:102D6000F7CF8C9185FFF2CF808185FFEDCFCE012B
:102D70000E942F16E9CFDF91CF91089520912A026A
:102D8000260F3327331F21323105ECF42091A202A4
:102D9000FC0190E080E0243069F082E00895A09189
:102DA0002A022191AC01465F5D4FA40FB52FB11DE2
:102DB0002C930196861798F380912A02680F6093EE
:102DC0002A0280E0089581E008951092A20281E035
:102DD0008093A10210927C0261E082E10E94F814CB
:102DE00061E083E10E94F814E9EBF0E080818E7FDE
:102DF000808380818D7F808388E48093B80085E420
:102E00008093BC000895CF93DF9391E090930902E3
:102E10008823B9F0C091B800D091BA008091BC006D
:102E20008A7B8093BC0060E082E10E94F81460E03D
:102E300083E10E94F8140E94E516D093BA00C09373
:102E4000B800DF91CF9108958F929F92AF92BF9279
:102E5000CF92DF92EF92FF920F931F93CF93DF9366
:102E6000D091CB02D13208F0D7C0182FC091CA023E
:102E70000E9457156B017C018091A20281116BC0E9
:102E800082E08093A2021093A1028FEF8093A002B0
:102E900010929F02D0939E02AAEAB2E0EEE7F2E01F
:102EA00080E0D81391C010927D0280917D02CC0FFA
:102EB000C82BC0937D0280917C02813009F088C0CC
:102EC00010927C020E9457156B017C0180917D025B
:102ED0008093BB008091A4029091A502A091A602CC
:102EE000B091A702892B8A2B8B2BA1F00E9457153A
:102EF0000091A4021091A5022091A6023091A70290
:102F00006C197D098E099F090617170728073907CD
:102F100008F442C08091BC0083FDD8CF85EC80933B
:102F2000BC000E9457156B017C018091A202823087
:102F300009F450C08091A0028F3F09F46FC08091C6
:102F4000A002803209F46CC08091A002803309F4A1
:102F500069C084E026C08091A4029091A502A0914E
:102F6000A602B091A702892B8A2B8B2B09F484CF60
:102F70000E9457158090A4029090A502A090A602EE
:102F8000B090A7026C197D098E099F0986169706D5
:102F9000A806B90608F070CF8091A3020E9403171B
:102FA00085E01092A9021092CB021092A802DF9144
:102FB000CF911F910F91FF90EF90DF90CF90BF9036
:102FC000AF909F908F9008959D9191938F5F69CF5F
:102FD00085EEA5CF8091A4029091A502A091A602B2
:102FE000B091A702892B8A2B8B2B09F49ECF0E94CC
:102FF00057150091A4021091A5022091A6023091CC
:10300000A7026C197D098E099F0906171707280763
:10301000390708F08ACFC0CF81E0C3CF80E0C1CFAD
:1030200082E0BFCF83E0BDCF0895E091520280914E
:103030005102E81730F4F0E0ED5AFD4F808190E046
:1030400008958FEF9FEF0895909152028091510261
:103050002FEF3FEF981748F4E92FF0E0ED5AFD4FBE
:10306000208130E09F5F90935202C90108958091C2
:10307000510290915202891B990B0895CF92DF92D1
:10308000EF92FF920F931F93CF93DF937C01CB01BD
:103090008A012091A802222389F0EB016B01C40E62
:1030A000D51ECC15DD0569F06991D701ED91FC9134
:1030B0000190F081E02DC7010995F3CF642F0E94A4
:1030C000BE16C801DF91CF911F910F91FF90EF9035
:1030D000DF90CF900895CF93DF931F92CDB7DEB7E7
:1030E00069832091A8022223F9F02091CB0220329B
:1030F00058F021E030E0FC013383228390E080E04F
:103100000F90DF91CF9108958091A902E82FF0E010
:10311000E655FD4F998190838F5F8093A90280933C
:10312000CB0281E090E0ECCF61E0CE0101960E94FD
:10313000BE16F7CFDC011A96ED91FC9130E020E04D
:103140000994DC011696ED91FC9130E020E040E01E
:1031500069E10994DC011696ED91FC9130E020E0E4
:1031600040E068E109949A01DC011696ED91FC912A
:10317000462F67E10994EF92FF920F931F93CF932D
:10318000DF931F92CDB7DEB77C018B01D8016C9124
:10319000673129F150F46531A0F40F90DF91CF91A0
:1031A0001F910F91FF90EF9008956A3118F16E3FD3
:1031B000A1F7F8014181498369E2C7010E949A1889
:1031C0000BC0F80141814983D7011696ED91FC911E
:1031D00030E020E0C70109950E5F1F4FD7CFF801FF
:1031E00081818983AE014F5F5F4F61E0C7010E941B
:1031F000B318F2CF0F5F1F4FD7011696ED91FC91D8
:1032000030E020E040E0C7010995C0CF462FDC0147
:103210001696ED91FC9130E020E066E10994462F8E
:10322000DC011696ED91FC9130E020E065E1099417
:10323000EF92FF920F931F93CF93DF93EC01042F34
:1032400079016D3009F446C050F46B30C9F1693032
:1032500009F49FC06A3009F465C080E046C06E3052
:1032600009F452C06F3099F70E94AA18F701138130
:10327000110F110F110F6C89160F60E4CE010E941F
:103280000F19612F62956F706061CE010E940F1956
:10329000612F6F70CE010E940619F7016481606B87
:1032A000CE010E940619F701408151816281660FAB
:1032B000660F660FCE010E94B3180150A1F72EC011
:1032C00069E271E0442311F064E271E0CE010E94F2
:1032D000BB180AC0411110C06DE171E00E94BB181B
:1032E000E881F98182898C8B81E0DF91CF911F91F8
:1032F0000F91FF90EF90089566E171E00E94BB1876
:10330000E881F9818389EFCF0E94AA1861E8CE0194
:103310000E940F19602FCE010E940619CE010E9453
:10332000A118E2CFEA85FB8530E020E040E068E2CA
:10333000CE010995EE81FF8130E020E040E064E1BC
:10334000CE01099541E06BE4CE010E949A18E88114
:10335000F981448169E2CE010E949A1840E06BE451
:10336000CE010E949A18E881F981448169E2CE0178
:103370000E949A1841E06BE4CE010E949A18E881FD
:10338000F981458169E2CE010E949A186EE271E0EE
:103390009DCF83E691E0998388831C8AA5CFDC01C9
:1033A0001896ED91FC9130E020E040E069E109944D
:1033B000DC011896ED91FC9130E020E040E068E1FE
:1033C0000994CF93DF931F92CDB7DEB76983BE0117
:1033D0006F5F7F4F0E94C7140F90DF91CF910895C8
:1033E000EF92FF921F93CF93DF93EC01162F7A0198
:1033F0000E94D81960E4CE010E94E119E885F985A0
:103400009701412F67E1CE010995CE01DF91CF9160
:103410001F91FF90EF900C94CF19EF92FF921F93A2
:10342000CF93DF93EC01142F7901663181F138F4E9
:10343000643109F44BC0653179F080E022C0683115
:10344000C9F150F16931C9F780910802882391F1DF
:10345000CE010E94CF192EC080910802882319F056
:10346000CE010E94CF19CE010E94D81960E0CE0192
:103470000E94E119612FCE010E94E11981E0809341
:103480000802DF91CF911F91FF90EF900895642F74
:103490000E94E11981E0F5CF80910802882319F09C
:1034A000CE010E94CF19A701193138F4612FCE0146
:1034B0000E94F01910920802EDCF68E1CE010E943F
:1034C000F019185188E1E80EF11CEDCF8E898F3F7D
:1034D00011F488E78E8BE885F9859701412F64E127
:1034E000CE01DF91CF911F91FF90EF9009940F9340
:1034F000FC01E05CFF4F0190F081E02D4E1B5F0B63
:10350000DC01D496ED91FC9109950F910895CF932C
:10351000DF93FC01A081B18182AD90E09C0143E08A
:10352000220F331F4A95E1F737AF26AF50962C9103
:10353000509748E0249F9001112435AF24AF23AD6C
:1035400030E0B90153E0660F771F5A95E1F7EF01BC
:10355000C05CDF4F7983688351964C915197E901A4
:10356000C80FD91F50E04C175D0718F4CA01821B21
:10357000930BEF01CE5BDF4F79836883229623E0C4
:10358000880F991F2A95E1F7860F971F99838883E3
:10359000229654968D919C91559799838883E85BE8
:1035A000FF4F56968D919C9191838083DF91CF91AF
:1035B00008950F931F93FC01E25BFF4F0190F08190
:1035C000E02DDC01A05BBF4F0D90BC91A02D4A17F0
:1035D0005B0740F4E017F10748F00417150730F0D7
:1035E00080E019C0E017F107C0F3FACFFC01E65BF9
:1035F000FF4F40815181845B9F4FFC01808191810D
:103600006817790758F481E04217530720F081E0EA
:103610002617370728F71F910F9108954217530770
:10362000B0F3DECF2F923F924F925F926F927F92D4
:103630008F929F92AF92BF92CF92DF92EF92FF92C2
:103640000F931F93CF93DF93CDB7DEB72A970FB6B3
:10365000F894DEBF0FBECDBF9A878987865B9F4FE8
:103660009A838983FC0111821082E985FA85EA5BDD
:10367000FF4F4080518029853A85245B3F4F3C8332
:103680002B83F90151824082E985FA85EE5BFF4F79
:103690002080318029853A85225B3F4F3E832D83F0
:1036A000F90131822082E985FA85EC5BFF4F608069
:1036B000718029853A85205B3F4F38872F83F90138
:1036C00071826082E985FA85E85AFF4FE080F180D7
:1036D000E985FA85EC5AFF4FA080B180E985FA852B
:1036E000EA5AFF4FC080D180E985FA85EE5AFF4F34
:1036F0008080918087019501A601B40189859A8512
:103700000E94D91A29853A852C573F4F3A87298735
:1037100081111BC0F90110822A960FB6F894DEBF02
:103720000FBECDBFDF91CF911F910F91FF90EF9012
:10373000DF90CF90BF90AF909F908F907F906F90D1
:103740005F904F903F902F90089581E0E985FA8532
:1037500080838114910421F0E981FA819182808231
:10376000A414B50420F4EB81FC81B182A0822C1456
:103770003D0420F4ED81FE81D182C082E614F7047D
:1037800058F6EF81F885F182E082C6CF0F93CF9390
:10379000DF93E02FDC01AC57BF4FFC91FF2309F40E
:1037A00060C02115310509F45CC02230310538F0C4
:1037B000023009F04AC06F5F7F4F621B730B0E2F00
:1037C0000170E0FD52C0FC01E25BFF4F0190F0810F
:1037D000E02D4E175F0708F444C0FC01E05BFF4F8B
:1037E0000190F081E02D4E175F07D8F5FC01E45BF6
:1037F000FF4F0190F081E02DDC01A65BBF4F0D90E3
:10380000BC91A02D260F371F2617370738F56E17E6
:103810007F0718F59F0121503109A217B30708F55A
:103820006A177B0708F4BD012E173F0708F4F9015A
:10383000E61BF70BEC01AEA9BFA914960D90BC9145
:10384000A02D9F01FD0109950CC0033009F0B7CFF1
:103850004F5F5F4F421B530BB2CFBD016E177F0707
:10386000E0F2DF91CF910F910895FC01E65BFF4FED
:103870000190F081E02D6E177F0798F3FC01E45B67
:10388000FF4F0190F081E02D6E177F0750F7FC018C
:10389000E05BFF4F0190F081E02DDC01A25BBF4FA8
:1038A0000D90BC91A02D240F351F24173507A8F4C7
:1038B0004E175F0788F49F0121503109A217B30703
:1038C00080F64A175B0708F4AD012E173F0708F48E
:1038D000F901E41BF50BAECFAD014E175F0708F6FB
:1038E000EDCF0F932091470430914804621773077E
:1038F000F0F02091490430914A0462177307B8F43C
:1039000020914304309144048217930780F0209162
:103910004504309146048217930748F4AB01BC017B
:1039200000E021E030E089EF93E00E94C61B0F9198
:1039300008954F925F926F927F928F929F92AF9273
:10394000BF92CF92DF92EF92FF920F931F93CF938C
:10395000DF93EC018B016A018AE0E82EF12C47012C
:10396000861A970A5A01AC0EBD1EB401C5010E9409
:10397000711CEC1AFD0A38016C0C7D1CB701C301E7
:103980000E94711C26014C1A5D0AB401C2010E94FA
:10399000711CC01AD10AB701C6010E94711C065FD2
:1039A0001F4FB801C5010E94711C2A96BE01C301B8
:1039B0000E94711CB801C2010E94711CBE01C601A7
:1039C000DF91CF911F910F91FF90EF90DF90CF90FB
:1039D000BF90AF909F908F907F906F905F904F902F
:1039E0000C94711C8F929F92AF92BF92CF92DF92F4
:1039F000EF92FF920F931F93CF93DF935C01AC0183
:103A00006AE070E090E080E00E94991CCC24C394AE
:103A1000D12CF12CE12C0AE010E09CEE892E9924A7
:103A20009A94C7EFDFEF8FEFE81AF80A82E0C80E2A
:103A3000D11CCC0DDD1DA501B801C7010E94991C48
:103A4000E016F10668F0DF91CF911F910F91FF9082
:103A5000EF90DF90CF90BF90AF909F908F900895A0
:103A6000D7FDE1CF0150110982E0880E911CC80DED
:103A7000D91DD9CF5F926F927F928F929F92AF9212
:103A8000BF92CF92DF92EF92FF920F931F93CF934B
:103A9000DF93EC017B018A016C01C41AD50A481737
:103AA000590718F06A01C81AD90A2E153F0560F4A3
:103AB0004701821A930AC814D90448F10C171D074C
:103AC00008F459C0512C18C049018E189F08C81419
:103AD000D90408F05EC09C2D8D2D6401892E982E8E
:103AE000902F812F8901292F382F9C2F8D2FE701AF
:103AF000E92EF82E55245394360176946794E216F5
:103B0000F30608F442C0AA24AA94BA2C21C09C2D22
:103B10008D2D6401892E982E9E2D8F2D7801092FD1
:103B2000182F9C2F8D2FE901292F382FE3CFB701B4
:103B3000CE01552011F0BE01C7010E94711C68180A
:103B4000790877FE04C0EA0CFB1C6C0C7D1C2196E6
:103B50000C171D0760F7DF91CF911F910F91FF9018
:103B6000EF90DF90CF90BF90AF909F908F907F901D
:103B70006F905F900895360176946794902F812F0F
:103B80008E01C92FD82F7901512CAA24A394B12CCE
:103B9000DFCF0C171D0708F095CF36017694679498
:103BA000902F812F8E01C92FD82F7901512CABCFA7
:103BB000213069F038F0223079F0840F911D47FDF3
:103BC0009A950895860F911D67FD9A950895841B17
:103BD000910947FD93950895861B910967FD93957B
:103BE0000895213069F038F0223079F0861B910970
:103BF00067FD93950895840F911D47FD9A9508954B
:103C0000860F911D67FD9A950895841B910947FDC4
:103C1000939508953F924F925F926F927F928F9209
:103C20009F92AF92BF92CF92DF92EF92FF920F934B
:103C30001F93CF93DF937C01162F442EEC01C25AC1
:103C4000DF4F5E806F806C018AE8C80ED11C7884DB
:103C50007518312E711608F4372C8C809D800E85D6
:103C6000202F462D652D8A819B810E94D81D5C01E5
:103C7000202F462D652DC4010E94F11DAC0144206A
:103C800079F08C85F6018083232D30E0B501C701E2
:103C90000E94C61B171548F017196394512CD7CFF3
:103CA0008B858111F7CF8D85EDCF150D1E836F822A
:103CB000DF91CF911F910F91FF90EF90DF90CF9008
:103CC000BF90AF909F908F907F906F905F904F903C
:103CD0003F900895DC011A964C911A97ED91FC9152
:103CE0001197249130E0042E02C0359527950A944F
:103CF000E2F7842F860F883068F031961196FC9396
:103D0000EE93E49198E0941B01C0EE0F9A95EAF7C8
:103D10002E2B88501A968C938FEF9FEF01C0880F3F
:103D20006A95EAF7809582230895FC01E60FF11D5C
:103D3000849190E0982F88273196E4918E0F911D01
:103D40000895CF93DF9320915304309154042817A2
:103D5000390709F490C0EC01909354048093530404
:103D6000FC018491809366043196E491E0936704AA
:103D7000FE013296E491E0936804FE013396E491EB
:103D8000E0936904FE013496E491E0936A04FE0135
:103D90003596E491E0936B04FE013696E491E0934E
:103DA0006C04FE013796E491E0936D04FE013896B1
:103DB000E491E0936E04FE013996E491E0936F0480
:103DC000FE013A96E491E0937004FE013B96E49183
:103DD000E0937104FE013C96E491E0937204FE01CD
:103DE0003D96E491E0937304FE013E96E491E093E6
:103DF0007404FE013F96E491E0937504FE01709611
:103E0000E491E093760461E1CE010E94951E9093C7
:103E100078048093770463E1CE010E94951E90930D
:103E20007A048093790465E1CE010E94951E9093F7
:103E30007C0480937B048091530490915404892BDB
:103E4000D1F08091730480937F0440917404409377
:103E5000800490917E04992371F0913079F49091CF
:103E60007504891714F490937F0480917604841765
:103E700014F480938004DF91CF9108953091700401
:103E800020917204082E000C990B622F022E000C58
:103E9000770B630F711D37FD7A95861797071CF412
:103EA000320F30937F04241734F720938004E3CF3C
:103EB0004F925F926F927F928F929F92AF92BF923A
:103EC000CF92DF92EF92FF920F931F93CF93DF93E6
:103ED000EC016B018A017901FC01E459FF4F8081FB
:103EE000813009F44BC008F43EC0823009F451C05F
:103EF000833009F459C0FE01E05AFF4FD182C082DD
:103F000032961183008338978081918147962FEFF5
:103F1000E216F10411F008F0F2C0E1E6EE16F10449
:103F200008F44DC0FE01E058FF4F20813181820F1F
:103F3000931F9C012F5F3F4FF9014491411148C0ED
:103F400090E080E0DF91CF911F910F91FF90EF9073
:103F5000DF90CF90BF90AF909F908F907F906F90A9
:103F60005F904F900895FE01E45AFF4F0190F08159
:103F7000E02DCE010995080F191FBDCFFE01E45AAF
:103F8000FF4F0190F081E02DCE010995C81AD90AA2
:103F9000B2CFFE01E45AFF4F0190F081E02DCE0137
:103FA0000995081B190BA7CFFE01E45AFF4F01909A
:103FB000F081E02DCE010995C80ED91E9CCFF1E409
:103FC000EF16F10408F4B5CFFE01E258FF4FADCF74
:103FD000FC0144914E151F0409F08CC00296009715
:103FE00009F4AECF7E01FEE5EF0EF11CF7019183DF
:103FF0008083128673966081C7010E946A1EF70152
:10400000808774966081C7010E946A1E982EF7010E
:1040100081875E01FAE8AF0EB11CF5019081F701CE
:10402000948781E0911180E0F7018587FE01ED58CA
:10403000FF4FC0806C2DC7010E946A1E582EFE01E2
:10404000EC58FF4FD0806D2DC7010E946A1E482E8C
:10405000FE01EB58FF4F1081612FC7010E946A1EBD
:104060009FEF910F01E010E0980101C0220F9A9597
:10407000EAF7882E821AF701608416140CF0ADC09E
:10408000CA94C80101C0880FCA94EAF7581A768406
:10409000490CDA94A80101C0440FDA94EAF7F42F2E
:1040A000F4194F2E272D4F2F652DF7018281938113
:1040B0000E94D81D6C01F70193838283272D442D24
:1040C000652D848195810E94F11DF701958384837C
:1040D000F1E07F1609F485C07F1608F43FC022E0A6
:1040E000721609F48DC0E3E07E1609F49DC0BC0190
:1040F00096013EC0F9012491820F911D1ACFFE0155
:10410000EE57FF4F00811181080F191F680160E011
:10411000C6010E94951E080F191F62E0C6010E9489
:10412000951EF4E0CF0ED11C8E159F0580F3F8018B
:10413000849190E0982F88273196E4918E2B0097F8
:1041400009F4FECEE816F90619F4C801039647CF24
:10415000F8013296E4910E0F111DE9CF9601260D5C
:10416000311D67FC3A95BC01690D711D97FC7A956C
:104170008B01AC01B601CE010E94D91A882369F1E6
:10418000F701168217828E0101591F4F6E01F0E769
:10419000CF0ED11CF8016081C7010E946A1E682EF3
:1041A000F6016081C7010E946A1E782E40E0662DEC
:1041B000CE010E940A1E41E0672DCE010E940A1E18
:1041C00061E0C7010E946A1E8111F0CFF70187816B
:1041D000891504F38485F5018083882D880C990B5B
:1041E000B1CE0919110997FC139596012F5F3F4F26
:1041F000BC01660D711D67FC7A95C00ED11EB8CF4B
:10420000A8014619510967FC539596012F5F3F4F4E
:104210000919110997FC1395BC016F5F7F4F800F3F
:10422000911FC40ED51EA4CF9601290D311D97FCF8
:104230003A950619110967FC1395BC016F5F7F4F12
:10424000800F911F95CFCF92DF92EF92FF920F9345
:104250001F93CF93DF93EC018B01109211047A012D
:10426000D12CC12CF70161917F01E091FB03F0910A
:10427000FC0389EF93E009958F3F980719F18E3F72
:104280002FEF920779F39C01A801BE0189EF93E01B
:104290000E94581F20916504213059F038F02230D7
:1042A00059F0233061F0C80ED91EDCCFC80FD91FDA
:1042B000FACF080F191FF7CFC81BD90BF4CF081B73
:1042C000190BF1CFC601DF91CF911F910F91FF9094
:1042D000EF90DF90CF900895CF93DF93EC016BAF19
:1042E000EEA9FFA90190F081E02D0995EEA9FFA9A3
:1042F0000280F381E02DCE01DF91CF910994AF923E
:10430000BF92CF92DF92EF92FF920F931F93CF93C2
:10431000DF9300D000D01F92CDB7DEB78C01DC0157
:10432000DA96AC90DA97DB96EC90DB97ED91FC9106
:10433000B188FE2CD12CC12CD801ED91FC911197A4
:104340008089D8962D913C911C82FD828B83B8E0A8
:104350008B9FC00111248C9DA0018D9D500D9C9DB3
:10436000500D1124240F351F3A832983D801149648
:10437000ED91FC919E012F5F3F4F41E06FE0C8013E
:104380000995F3948F2D8E198A1528F4BFEFCB1A57
:10439000DB0AFB1488F20F900F900F900F900F9094
:1043A000DF91CF911F910F91FF90EF90DF90CF9011
:1043B000BF90AF900895CF93DF93EC01962F6831B3
:1043C00009F445C0B901993130F4943199F097312D
:1043D00059F080E006C0993109F45BC09032C9F70A
:1043E00081E0DF91CF91089550E089E693E00E944B
:1043F0003E18F6CF8C859D85AE85BF85892B8A2B8F
:104400008B2B71F4E881F981A585B0E020EA36E8CC
:1044100041E050E00E946A2B6C877D878E879F87E2
:1044200010925202109251021092A9021092CB02E5
:104430000E94E5168FEA95E190934E0280934D021B
:1044400080EB95E19093500280934F02C9CF2C8569
:104450003D854E855F8560E074E284EF90E00E94C8
:10446000752B2051310941095109569547953795CA
:1044700027952093B8008E8990E09595879591E0D7
:104480009093A8028093CA021092A9021092CB02C4
:10449000A7CF81E00E942417A3CF0F931F93CF9340
:1044A000DF93EC01862F642F8C3208F03AC08A32F9
:1044B00008F060C0883209F44BC0893209F460C04A
:1044C000803408F475C0982F9F73FE01E90FF11D29
:1044D000868D8F3F09F44EC0903108F436C0282FE6
:1044E00030E0F901E255FF4F8491F901E656FF4FA4
:1044F0000491F901EA57FF4F1491112379F08111CA
:104500000E94CF14E12FF0E0EE0FFF1FE859FF4F9C
:10451000A591B491EC910E2381E009F480E0898F9C
:1045200029C08D3299F108F4CBCF94EB980F9230DB
:1045300008F0C6CF8F73C80FD11D8E8D411134C0C6
:1045400061E00E94261560E08E8D0E94F81412C072
:104550008E01025E1F4FD0E0F80181918F018F3FE5
:1045600031F061E0D03108F062E00E942615DF5F93
:10457000D63191F781E0DF91CF911F910F9108958E
:1045800070E090E080E00E947C15F4CF85E090E040
:10459000433010F082E090E0880F991F880F991F38
:1045A00005970197F1F7E6CF62E00E942615E2CF6A
:1045B00080E0E1CFCF92DF92EF92FF920F931F93B3
:1045C000CF93DF936C01EB017B01E40EF51E10E04D
:1045D00000E0CE15DF0561F06991D601ED91FC9107
:1045E0000190F081E02DC6010995080F191FF1CF48
:1045F000C801DF91CF911F910F91FF90EF90DF9055
:10460000CF900895CF92DF92EF92FF920F931F9376
:10461000CF93DF93EC016C0124E0C20ED11CFC01AE
:10462000E057FF4F0190F081E02DC60109958E3FC4
:10463000EFEF9E07D8F48E010C561F4FF801408112
:1046400051817E01F2E9EF0EF11CF7016081718169
:104650009C01C6010E94581FC059DF4F288121309C
:10466000C1F078F02230B9F02330E9F081E090E039
:10467000DF91CF911F910F91FF90EF90DF90CF903E
:104680000895F70120813181820F931F91838083E8
:10469000EDCFF801F7CFF70120813181281B390BCD
:1046A00031832083E3CFF801F7CF089590E080E0D5
:1046B00008958F929F92AF92BF920F931F93CF93C3
:1046C000DF93CDB7DEB7A1970FB6F894DEBF0FBE6C
:1046D000CDBF19A2423008F44AE08E010F5D1F4F92
:1046E000842E912CB12CA12CA50194010E94752B34
:1046F000E62FB901CA01EA3044F5E05DD801EE9336
:104700008D01232B242B252B79F790E080E0109747
:1047100069F0FD0101900020E9F73197AF014A1BD4
:104720005B0BBD018CEC92E00E94B115A1960FB617
:10473000F894DEBF0FBECDBFDF91CF911F910F91D7
:10474000BF90AF909F908F900895E95CD7CF85ED93
:104750008093BC008091A4029091A502A091A60232
:10476000B091A7020796A11DB11D23E0B695A795AC
:10477000979587952A95D1F72091BC0024FD03C019
:104780001092A20208954091A4025091A502609156
:10479000A6027091A702452B462B472B69F3009781
:1047A000A105B10541F02AE22A95F1F700C0019771
:1047B000A109B109E1CF8091A3020C940317FC0178
:1047C000A081B18150962C9182AD38E0839FC001C9
:1047D0001124289FA001299F500D112470E060E052
:1047E00080AD91AD0C94BF2B1F93CF93DF93EC0161
:1047F0000E947F211BAD8AAD180FE881F981818964
:10480000181768F0EC81FD8130E020E040E060E1C5
:10481000CE01099580E0DF91CF911F910895FE01AF
:10482000E557FF4F8081882319F0CE010E94DF23D6
:10483000612FCE010E946C2181E0EDCFCF93DF93F9
:10484000EC01FC01E557FF4F8081882319F0CE0170
:104850000E94DF2360E0CE01DF91CF910C946C21A8
:104860001F920F920FB60F9211242F933F938F93A5
:104870009F93AF93BF938091740290917502A09122
:104880007602B09177023091730223E0230F2D3727
:1048900058F50196A11DB11D2093730280937402F7
:1048A00090937502A0937602B0937702809178027C
:1048B00090917902A0917A02B0917B020196A11D9C
:1048C000B11D8093780290937902A0937A02B093FD
:1048D0007B02BF91AF919F918F913F912F910F904C
:1048E0000FBE0F901F90189526E8230F0296A11D6A
:1048F000B11DD2CF1F920F920FB60F9211242F939A
:104900003F934F935F936F937F938F939F93AF9357
:10491000BF93EF93FF938CEC92E00E942F16FF91D0
:10492000EF91BF91AF919F918F917F916F915F9127
:104930004F913F912F910F900FBE0F901F901895A0
:104940001F920F920FB60F9211242F938F939F9364
:10495000EF93FF93E091DC02F091DD028081E09122
:10496000E202F091E30282FD1BC090818091E5029A
:104970008F5F8F732091E602821741F0E091E5028C
:10498000F0E0E453FD4F958F8093E502FF91EF91A6
:104990009F918F912F910F900FBE0F901F901895A0
:1049A0008081F4CF1F920F920FB60F9211242F9394
:1049B0003F934F935F936F937F938F939F93AF93A7
:1049C000BF93EF93FF938091B900887F803609F4FD
:1049D0004AC0F0F5883209F4A7C018F5803109F40F
:1049E0009BC0B8F4882309F4F9C0883009F494C056
:1049F000FF91EF91BF91AF919F918F917F916F91B7
:104A00005F914F913F912F910F900FBE0F901F908C
:104A10001895883109F488C0803251F78093A0023C
:104A200014C0803409F49DC040F48033B9F3883356
:104A3000F9F68093A00285ECB0C0803509F485C0FA
:104A4000883509F496C0883499F60E94A723D0CF00
:104A5000883909F48CC038F5883729F050F4883645
:104A600011F0803729F683E08093A20210924C0265
:104A700057C0883809F47BC0803919F0803809F0B4
:104A8000B7CF80914C02803208F071C0E0914C02A7
:104A900081E08E0F80934C028091BB00F0E0E45DDA
:104AA000FD4F80833DC0803B39F0E0F4803A09F44B
:104AB00079C0883A09F09CCF84E08093A2021092DA
:104AC0002B0210922A02E0914D02F0914E020995BC
:104AD00080912A0281110FC081E080932A021092F6
:104AE0000A0209C0803C09F4A6CF883C09F4A3CF90
:104AF000883B09F07DCFE0912B0281E08E0F8093FF
:104B00002B02F0E0E65FFD4F80818093BB00909127
:104B10002B0280912A0229C080917D028093BB00E4
:104B200085EC8093BC0064CF90919F0280919E029F
:104B3000981758F5E0919F0281E08E0F80939F02B5
:104B4000F0E0E258FD4F8081E9CFE0919F0281E0E3
:104B50008E0F80939F028091BB00F0E0E258FD4FE2
:104B6000808390919F0280919E029817C8F285E8F9
:104B7000D8CFE0919F0281E08E0F80939F028091B9
:104B8000BB00F0E0E258FD4F80838091A1028111CB
:104B90005CCF81E080937C0284EA8093BC00109219
:104BA000A20226CF85EC8093BC001092A2028091D5
:104BB0004C02803230F4E0914C02F0E0E45DFD4FB5
:104BC000108260914C0270E0E0914F02F09150022F
:104BD0008CE292E0099510924C020ACF1092A0024A
:104BE00034CFCF931092CF021092CE0288EE93E092
:104BF000A0E0B0E08093D0029093D102A093D202C3
:104C0000B093D3022FE731E03093CD022093CC0252
:104C100025EC30E03093D9022093D80224EC30E028
:104C20003093DB022093DA0220EC30E03093DD0297
:104C30002093DC0221EC30E03093DF022093DE028F
:104C400022EC30E03093E1022093E00226EC30E0E9
:104C50003093E3022093E2021092E5021092E60202
:104C60001092E7021092E80210926C0310926B030C
:104C700080936D0390936E03A0936F03B0937003C2
:104C800081E991E090936A03809369031092F8039D
:104C90001092F70388E494E190938604809385044E
:104CA000109288041092870410928A04109289044A
:104CB0001092110483EA91E09093F6038093F50338
:104CC0001092FA031092F90310920E041092050448
:104CD0001092060410920704109208048FEF80933C
:104CE0000F0480931304E7E1F4E08DE294E0CFEF4A
:104CF000C1938E179F07E1F788E199E19093FE0336
:104D00008093FD038DE09AE1909300048093FF036C
:104D10008BED91E290930204809301048DE492E282
:104D2000909304048093030430E020E040E069E0C5
:104D300089EF93E00E9418191092540410925304C2
:104D400082E594E190932E0480932D0485E793E00F
:104D5000909332048093310481E080933304109265
:104D60003404109262041092820410927E048093A4
:104D70008304809384048BEA91E0909330048093C1
:104D80002F0489EF93E00E94871A10924C0410922E
:104D90004B041092500410924F048FEF9FEF9093AA
:104DA0004E0480934D049093520480935104E091FB
:104DB0002F04F09130040280F381E02D89EF93E01D
:104DC000099581EC94E190935604809355041092D8
:104DD0006504C0932204C0932304C0932404CF919C
:104DE0000895CF93DF93CDB7DEB760970FB6F894F1
:104DF000DEBF0FBECDBF789484B5826084BD84B51C
:104E0000816084BD85B5826085BD85B5816085BDC5
:104E100080916E00816080936E001092810080917D
:104E20008100826080938100809181008160809305
:104E30008100809180008160809380008091B1002A
:104E400084608093B1008091B00081608093B00055
:104E500080917A00846080937A0080917A008260E9
:104E600080937A0080917A00816080937A008091AB
:104E70007A00806880937A001092C100E091DC0291
:104E8000F091DD0282E08083E091D802F091D902B6
:104E90001082E091DA02F091DB028FEC80831092B5
:104EA000E402E091E002F091E10286E08083E0918B
:104EB000DE02F091DF02808180618083E091DE027A
:104EC000F091DF02808188608083E091DE02F091C2
:104ED000DF02808180688083E091DE02F091DF0252
:104EE00080818F7D80831092520210925102109225
:104EF000A9021092CB020E94E5168FEA95E19093E9
:104F00004E0280934D0280EB95E190935002809386
:104F10004F0201EB11E0F801C1908F01CC2011F19B
:104F20000C2C000CDD08EE08FF084AE0C701B601B2
:104F3000F7FE0DC06DE28CEC92E00E9451166627E0
:104F40007727CB016C197D098E099F094AE00E94E1
:104F5000592342E050E067EB71E08CEC92E00E9454
:104F6000B115D9CFE091FD03F091FE0330E020E0D0
:104F700040E06AE089EF93E0099589EF93E00E94B1
:104F80001E2489EF93E00E94F4238111FACF60E0A0
:104F900089EF93E00E946C21E091FD03F091FE0304
:104FA00030E020E040E06BE089EF93E0099589EF85
:104FB00093E00E941E24E8E4AE2EE4E1BE2EF1EB65
:104FC0006F2EF1E07F2EAFEB8A2EA1E09A2EB0E19A
:104FD0005B2E9E012F5F3F4F790181E00E94C41438
:104FE00000E410E020E830E050E040E070E060E0F5
:104FF00089EF93E00E94D91A882399F0D12CC12C13
:1050000000E020E830E0A60170E060E089EF93E086
:105010000E94C61B3FEFC31AD30A80E4C816D1040E
:1050200079F780E00E94C41480E595E00E94A11EFB
:10503000B092FC03A092FB034AEB51E06EE170E0FA
:105040008FE090E00E9423217F926F929F928F9237
:105050001F925F92FF92EF920E94C62B82EC90E02B
:105060000E94A11EB092FC03A092FB03A7016EE177
:1050700070E082E590E00E9423218EEF9DE10E9486
:10508000A11EB092FC03A092FB0343EC51E067E346
:1050900070E084E190E00E94232181E00E94C4142A
:1050A00089EF93E00E94F4230FB6F894DEBF0FBEA1
:1050B000CDBF811192CF68EB7BE080E090E00E9451
:1050C0007C1564E6262E312C412C512C78E4A72E39
:1050D00074E1B72E89EF93E00E941E2400E410E0F3
:1050E00020E830E044E050E06CE670E089EF93E0C7
:1050F0000E94D91A882359F100E024E130E044E00D
:1051000050E06CE670E089EF93E00E94C61B01E07E
:105110002AE330E045E050E06CE670E089EF93E090
:105120000E94C61B2AE330E045E050E06FE770E0E4
:1051300089EF93E00E94C61B00E024E130E04FE3DA
:1051400050E06CE670E089EF93E00E94C61BA091EE
:105150000001B09101012AE330E00E94B22BA201CC
:1051600091010E944B2B8FE390E06C01C21AD30A8D
:105170004601820E931E84012FE730E0A6016DE602
:1051800070E089EF93E00E94D91A811183C104E095
:1051900010E098014EE650E0B8018CE690E00E94E5
:1051A0003A1D0A5F1F4F0034110599F780910101E4
:1051B0008F93809100018F9322ED31E03F932F93E5
:1051C0001F929CE09F93FF92EF920E94C62B8EE16C
:1051D00092E20E94A11EB092FC03A092FB03A701E1
:1051E00064E170E081E090E00E94232129E130E059
:1051F00044E650E069E170E090E080E00E943A1DF2
:105200008EE192E20E94A11E1F92E6EEEF9327ED3F
:1052100031E03F932F931F929CE09F93FF92EF9278
:105220000E94C62BB092FC03A092FB03A7016EE282
:1052300070E08CE390E00E94232121E330E047E31B
:1052400050E06AE170E087E390E00E943A1D8EE151
:1052500092E20E94A11EE4E0EF93F0EBFF932BEDAE
:1052600031E03F932F931F929CE09F93FF92EF9228
:105270000E94C62BB092FC03A092FB03A7016EE232
:1052800070E081E090E00E94232122E330E044E6D8
:1052900050E062E370E090E080E00E943A1D8EEF03
:1052A0009DE10E94A11EB092FC03A092FB0342E08C
:1052B00051E06EE370E090E080E00E94232105E180
:1052C00010E027E430E050E040E062E370E089EF76
:1052D00093E00E94D91A0FB6F894DEBF0FBECDBF7F
:1052E000882321F08CE390E00E94F21CB092FC0332
:1052F000A092FB034FED51E06FE070E08AE390E095
:105300000E94232105E110E023E630E050E040E078
:105310006EE470E089EF93E00E94D91A882321F0AF
:1053200088E590E00E94F21C8BE29AE10E94A11EA7
:10533000B092FC03A092FB0341EE51E06EE070E0FE
:1053400083E590E00E9423218AEB9EE00E94A11E4B
:1053500028EF30E04EE350E06FE570E089EF93E036
:105360000E94581F89EF93E00E94F423182F8111A7
:10537000B5CE68EE73E080E090E00E947C1581E09D
:105380008093A802F8E6F093CA021092A902109244
:10539000CB0260E089E693E00E946B1881E00E94F6
:1053A00024170E9457153B014C018091A2028111E4
:1053B00075C081E08093A2028093A1022FEF209319
:1053C000A00210929F0236E030939E0280937D02ED
:1053D00080917D02806D80937D0280917C0281307E
:1053E00009F02EC110927C020E9457153B014C011E
:1053F00080917D028093BB008091A4029091A502D0
:10540000A091A602B091A702892B8A2B8B2BA1F029
:105410000E9457152091A4023091A5024091A60246
:105420005091A70266197709880999092617370745
:105430004807590708F453C08091BC0083FDD8CFBA
:1054400085EC8093BC000E9457153B014C01809174
:10545000A202813009F4F6C080919F02873008F0E3
:1054600013C180919F02AEE7B2E0E3E5F2E01817C6
:10547000D1F19D9191931F5FFACF00E022E130E0DE
:10548000A6016DE670E089EF93E00E94C61BFFEF76
:10549000CF1ADF0A8C149D0481F779CE8091A40283
:1054A0009091A502A091A602B091A702892B8A2B08
:1054B0008B2B09F47ACF0E9457152091A4023091CA
:1054C000A5024091A6025091A702661977098809A2
:1054D0009909261737074807590708F066CF8091C2
:1054E000A3020E940317109252021093510289E600
:1054F00093E00E94241889E693E00E9424189C01FE
:1055000094E0359527959A95E1F72F7033271AE0A7
:105510008F70D82E129FD00C112489E693E00E9440
:105520002418982F9F7392959F708F70C82E919F0B
:10553000C00C112489E693E00E94241889E693E0C8
:105540000E9424189C0144E0359527954A95E1F77F
:105550002F7033278F70882E129F800C112489E6BC
:1055600093E00E94241884FB992790F98F70982E5D
:10557000919F900C112489E693E00E9424189C01CD
:1055800054E0359527955A95E1F72F7033278F70A2
:10559000129F800D1124282F882D612F0E94A62B89
:1055A000805D80930201905D909303013FE2309310
:1055B0000401892D0E94A62B805D80930501905DDA
:1055C0009093060130930701822F0E94A62B805DE5
:1055D00080930801905D9093090180E280930A0115
:1055E0008C2D0E94A62B805D80930B01905D909383
:1055F0000C018AE380930D018D2D0E94A62B805D06
:1056000080930E01905D90930F0110921001809194
:10561000000190910101029685369105BCF59093A9
:1056200001018093000180E090E0892B09F452CDC4
:105630000E941B16882309F44DCD0E9400004ACD1C
:1056400085EEFFCE8091A4029091A502A091A602C2
:10565000B091A702892B8A2B8B2B09F4F8CE0E94DC
:1056600057152091A4023091A5024091A6025091B5
:10567000A702661977098809990926173707480785
:10568000590708F0E4CE2BCF87E0EDCE1092010150
:1056900010920001C8CF052E97FB1EF400940E94C3
:1056A000622B57FD07D00E94752B07FC03D04EF4E8
:1056B0000C94622B50954095309521953F4F4F4F5C
:1056C0005F4F089590958095709561957F4F8F4FAE
:1056D0009F4F08950E94972BA59F900DB49F900D0A
:1056E000A49F800D911D11240895A1E21A2EAA1BDA
:1056F000BB1BFD010DC0AA1FBB1FEE1FFF1FA21782
:10570000B307E407F50720F0A21BB30BE40BF50B7E
:10571000661F771F881F991F1A9469F76095709507
:10572000809590959B01AC01BD01CF010895A29F8A
:10573000B001B39FC001A39F700D811D1124911D65
:10574000B29F700D811D1124911D0895991B79E060
:1057500004C0991F961708F0961B881F7A95C9F701
:10576000809508950E94972BB7FF0895821B930B95
:105770000895EE0FFF1F0590F491E02D0994DC01D0
:1057800001C06D9341505040E0F70895AEE0B0E0A5
:10579000ECECFBE20C94822E0D891E898F89988D8A
:1057A00026E02C831A83098397FF02C080E090E8EB
:1057B00001979E838D83AE01455E5F4F698D7A8D23
:1057C000CE0101960E94F62B4D815E8157FD0AC0E5
:1057D0002F813885421753070CF49A01020F131FCB
:1057E000F80110822E96E4E00C949E2EABE0B0E01F
:1057F000ECEFFBE20C94742E7C013B018A01FC016E
:1058000017821682838181FFC8C1CE0101965C0197
:10581000F7019381F30193FD859193FF81913F01FE
:10582000882309F453C1853239F493FD859193FFA0
:1058300081913F01853229F4B70190E00E94E62D65
:10584000E7CF912C212C312CFFE1F31538F08B326E
:1058500011F190F4803209F1833229F137FC3CC018
:1058600020ED280F2A3050F536FE20C08AE0989EA1
:10587000200D1124922E06C08D3291F0803371F7E5
:10588000689430F8F30193FD859193FF81913F0176
:105890008111DACF21C0689431F8689432F8F2CFE0
:1058A000689433F8EFCF689434F8ECCFEAE02E9E9A
:1058B000200D1124222E689435F8E4CF8E3229F47D
:1058C00036FC04C1689436F8DDCF8C3619F4689440
:1058D00037F8D8CF8836B1F2982F9F7D9554933002
:1058E000E0F08336A1F18337C1F1833509F063C05D
:1058F0002801F2E04F0E511CF801C080D180692DC3
:1059000070E036FC02C06FEF7FEFC6010E94D02D21
:105910004C01689437F882010AC00C5F1F4FFFE307
:10592000F98388248394912C6501E89437F833FE39
:105930002DC0522C8114910471F5552009F468CFC3
:10594000B70180E290E00E94E62D5A94F6CFF8016C
:10595000808189830E5F1F4FE4CF2801F2E04F0E54
:10596000511CF801C080D180692D70E036FC02C066
:105970006FEF7FEFC6010E94DB2D4C018201D5CF76
:10598000B70180E290E00E94E62D2A9428141904C1
:1059900009F0B0F7CECFF60137FC859137FE819143
:1059A0006F01B70190E00E94E62D51105A94F1E08A
:1059B0008F1A9108BFCF843619F0893609F077C065
:1059C000F80137FE6BC060817181828193810C5F29
:1059D0001F4FF32DFF763F2E97FF09C090958095BE
:1059E000709561957F4F8F4F9F4F689437F82AE0ED
:1059F00030E0A5010E94162EC82ECA188C2C432C0C
:105A000036FE0CC0E89440F8C91440F434FE05C0DA
:105A100032FC03C0F32DFE7E4F2E892C44FE95C030
:105A2000FE01EC0DF11D8081803309F087C0242D2B
:105A3000297E422E842D8870582E43FC95C040FE4E
:105A40008FC09C2C821418F42C0C922C981844FEB5
:105A500091C0B70180E390E00E94E62D42FE09C0AC
:105A600088E790E041FE02C088E590E0B7010E941F
:105A7000E62DC91408F48AC0CA94D12C9FEFC91A24
:105A8000D90ACA0CDB1CF60182916F01B70190E0C4
:105A90000E94E62DAC14BD04B1F74FCF6081718137
:105AA000072E000C880B990B0E5F1F4F92CFD32C43
:105AB000E894D4F82AE030E0853739F1232D297FA6
:105AC000D22E8F3601F148F48835A9F0F70186818E
:105AD00097812B96E2E10C94902E803749F088371D
